:020000040800F2
:10000000005000206D810008290F00082B0F000808
:100010002D0F00082F0F0008310F0008000000000E
:10002000000000000000000000000000F172000865
:10003000330F00080000000091730008D57300081A
:10004000B5810008B5810008B5810008B5810008B8
:10005000B5810008B5810008B5810008B5810008A8
:10006000B5810008B5810008B5810008B581000898
:10007000B5810008B5810008B5810008B581000888
:10008000B5810008B5810008B5810008B581000878
:10009000350F0008B5810008B5810008450F00083C
:1000A000B5810008510F0008B5810008B58100082E
:1000B000B5810008B5810008B5810008610F00080E
:1000C000710F0008B5810008B5810008810F000894
:1000D000B5810008910F0008B5810008B5810008BE
:1000E000B5810008B5810008B58100080000000056
:1000F0000000000000000000000000000000000000
:0C01000000000000000000005FF808F1A3
:1001100010B5054C237833B9044B13B10448AFF341
:1001200000800123237010BD340300200000000074
:100130001CCB000808B5034B1BB103490348AFF3C0
:10014000008008BD00000000380300201CCB000820
:10015000034613F8012B002AFBD1181A0138704707
:1001600081F0004102E000BF83F0004330B54FEA68
:1001700041044FEA430594EA050F08BF90EA020FD5
:100180001FBF54EA000C55EA020C7FEA645C7FEA68
:10019000655C00F0E2804FEA5454D4EB5555B8BF8B
:1001A0006D420CDD2C4480EA020281EA030382EAFC
:1001B000000083EA010180EA020281EA0303362D8E
:1001C00088BF30BD11F0004F4FEA01314FF4801C61
:1001D0004CEA113102D0404261EB410113F0004F73
:1001E0004FEA03334CEA133302D0524263EB43032A
:1001F00094EA050F00F0A780A4F10104D5F1200EC8
:100200000DDB02FA0EFC22FA05F2801841F1000122
:1002100003FA0EF2801843FA05F359410EE0A5F1F6
:1002200020050EF1200E012A03FA0EFC28BF4CF027
:10023000020C43FA05F3C01851EBE37101F00045DD
:1002400007D54FF0000EDCF1000C7EEB00006EEBEA
:100250000101B1F5801F1BD3B1F5001F0CD3490874
:100260005FEA30004FEA3C0C04F101044FEA4452CB
:1002700012F5800F80F09A80BCF1004F08BF5FEA52
:10028000500C50F1000041EB045141EA050130BD32
:100290005FEA4C0C404141EB0101013C28BFB1F544
:1002A000801FE9D291F0000F04BF01460020B1FA8F
:1002B00081F308BF2033A3F10B03B3F120020CDA62
:1002C0000C3208DD02F1140CC2F10C0201FA0CF040
:1002D00021FA02F10CE002F11402D8BFC2F1200CA5
:1002E00001FA02F120FA0CFCDCBF41EA0C0190405B
:1002F000E41AA2BF01EB0451294330BD6FEA0404A4
:100300001F3C1CDA0C340EDC04F11404C4F120028E
:1003100020FA04F001FA02F340EA030021FA04F3A0
:1003200045EA030130BDC4F10C04C4F1200220FAF7
:1003300002F001FA04F340EA0300294630BD21FA35
:1003400004F0294630BD94F0000F83F4801306BFFB
:1003500081F480110134013D4EE77FEA645C18BFEF
:100360007FEA655C29D094EA050F08BF90EA020F86
:1003700005D054EA000C04BF1946104630BD91EA7E
:10038000030F1EBF0021002030BD5FEA545C05D181
:100390004000494128BF41F0004130BD14F58004C0
:1003A0003CBF01F5801130BD01F0004545F0FE4134
:1003B00041F470014FF0000030BD7FEA645C1ABF69
:1003C000194610467FEA655C1CBF0B46024650EAA0
:1003D000013406BF52EA033591EA030F41F40021CC
:1003E00030BD00BF90F0000F04BF0021704730B552
:1003F0004FF4806404F132044FF000054FF0000127
:1004000050E700BF90F0000F04BF0021704730B5E7
:100410004FF4806404F1320410F0004548BF4042BC
:100420004FF000013EE700BF42004FEAE2014FEA11
:1004300031014FEA02701FBF12F07F4393F07F4FEC
:1004400081F06051704732F07F4208BF704793F0EF
:100450007F4F04BF41F40021704730B54FF4607402
:1004600001F0004521F000411CE700BF50EA010205
:1004700008BF704730B54FF000050AE050EA0102AE
:1004800008BF704730B511F0004502D5404261EB1E
:1004900041014FF4806404F132045FEA915C3FF45F
:1004A000D8AE4FF003025FEADC0C18BF03325FEAFC
:1004B000DC0C18BF033202EBDC02C2F1200300FAAD
:1004C00003FC20FA02F001FA03FE40EA0E0021FAD2
:1004D00002F11444BDE600BF70B54FF0FF0C4CF4C0
:1004E000E06C1CEA11541DBF1CEA135594EA0C0F72
:1004F00095EA0C0F00F0DEF82C4481EA030621EAAD
:100500004C5123EA4C5350EA013518BF52EA0335E7
:1005100041F4801143F4801338D0A0FB02CE4FF099
:100520000005E1FB02E506F00042E0FB03E54FF0C9
:100530000006E1FB03569CF0000F18BF4EF0010EC1
:10054000A4F1FF04B6F5007F64F5407404D25FEABD
:100550004E0E6D4146EB060642EAC62141EA555170
:100560004FEAC52040EA5E504FEACE2EB4F1FD0CB2
:1005700088BFBCF5E06F1ED8BEF1004F08BF5FEA30
:10058000500E50F1000041EB045170BD06F00046E2
:1005900046EA010140EA020081EA0301B4EB5C048F
:1005A000C2BFD4EB0C0541EA045170BD41F4801187
:1005B0004FF0000E013C00F3AB8014F1360FDEBFAC
:1005C000002001F0004170BDC4F10004203C35DA88
:1005D0000C341BDC04F11404C4F1200500FA05F30B
:1005E00020FA04F001FA05F240EA020001F00042AC
:1005F00021F0004110EBD37021FA04F642EB060122
:100600005EEA430E08BF20EAD37070BDC4F10C044B
:10061000C4F1200500FA04F320FA05F001FA04F20F
:1006200040EA020001F0004110EBD37041F10001FB
:100630005EEA430E08BF20EAD37070BDC4F1200506
:1006400000FA05F24EEA020E20FA04F301FA05F26E
:1006500043EA020321FA04F001F0004121FA04F216
:1006600020EA020000EBD3705EEA430E08BF20EAE6
:10067000D37070BD94F0000F0FD101F00046400020
:1006800041EB010111F4801F08BF013CF7D041EAA2
:10069000060195F0000F18BF704703F000465200A6
:1006A00043EB030313F4801F08BF013DF7D043EA77
:1006B0000603704794EA0C0F0CEA135518BF95EA2D
:1006C0000C0F0CD050EA410618BF52EA4306D1D1B4
:1006D00081EA030101F000414FF0000070BD50EAD3
:1006E000410606BF1046194652EA430619D094EA5D
:1006F0000C0F02D150EA013613D195EA0C0F05D147
:1007000052EA03361CBF104619460AD181EA03019A
:1007100001F0004141F0FE4141F470014FF0000052
:1007200070BD41F0FE4141F4780170BD70B54FF0ED
:10073000FF0C4CF4E06C1CEA11541DBF1CEA13556D
:1007400094EA0C0F95EA0C0F00F0A7F8A4EB05044F
:1007500081EA030E52EA03354FEA013100F0888046
:100760004FEA03334FF0805545EA131343EA12630F
:100770004FEA022245EA111545EA10654FEA0026C4
:100780000EF000419D4208BF964244F1FD0404F57D
:10079000407402D25B084FEA3202B61A65EB0305D9
:1007A0005B084FEA32024FF480104FF4002CB6EB96
:1007B000020E75EB030E22BFB61A754640EA0C0016
:1007C0005B084FEA3202B6EB020E75EB030E22BF56
:1007D000B61A754640EA5C005B084FEA3202B6EB97
:1007E000020E75EB030E22BFB61A754640EA9C0056
:1007F0005B084FEA3202B6EB020E75EB030E22BF26
:10080000B61A754640EADC0055EA060E18D04FEAE3
:10081000051545EA16754FEA06164FEAC30343EA83
:1008200052734FEAC2025FEA1C1CC0D111F4801F50
:100830000BD141EA00014FF000004FF0004CB6E749
:1008400011F4801F04BF01430020B4F1FD0C88BFE8
:10085000BCF5E06F3FF6AFAEB5EB030C04BFB6EBF3
:10086000020C5FEA500C50F1000041EB045170BDE6
:100870000EF0004E4EEA113114EB5C04C2BFD4EB13
:100880000C0541EA045170BD41F480114FF0000E97
:10089000013C90E645EA060E8DE60CEA135594EA13
:1008A0000C0F08BF95EA0C0F3FF43BAF94EA0C0F16
:1008B0000AD150EA01347FF434AF95EA0C0F7FF48B
:1008C00025AF104619462CE795EA0C0F06D152EADF
:1008D00003353FF4FDAE1046194622E750EA4106C3
:1008E00018BF52EA43067FF4C5AE50EA41047FF4D4
:1008F0000DAF52EA43057FF4EBAE12E74FF0FF3C39
:1009000006E000BF4FF0010C02E000BF4FF0010C09
:100910004DF804CD4FEA410C7FEA6C5C4FEA430C82
:1009200018BF7FEA6C5C1BD001B050EA410C0CBFD1
:1009300052EA430C91EA030F02BF90EA020F002033
:10094000704710F1000F91EA030F58BF994208BF9A
:1009500090422CBFD8176FEAE37040F00100704757
:100960004FEA410C7FEA6C5C02D150EA013C07D1AE
:100970004FEA430C7FEA6C5CD6D152EA033CD3D0F9
:100980005DF8040B704700BF8446104662468C46F3
:100990001946634600E000BF01B5FFF7B7FF002826
:1009A00048BF10F1000F01BD4DF808EDFFF7F4FF4F
:1009B0000CBF012000205DF808FB00BF4DF808EDDA
:1009C000FFF7EAFF34BF012000205DF808FB00BFFD
:1009D0004DF808EDFFF7E0FF94BF012000205DF81F
:1009E00008FB00BF4DF808EDFFF7CEFF94BF0120D4
:1009F00000205DF808FB00BF4DF808EDFFF7C4FFCD
:100A000034BF012000205DF808FB00BF4FEA410C15
:100A10007FEA6C5C02D150EA013C0AD14FEA430CF8
:100A20007FEA6C5C02D152EA033C02D14FF0000035
:100A300070474FF0010070474FEA410212F5001273
:100A400015D211D56FF47873B3EB625212D94FEA15
:100A5000C12343F0004343EA505311F0004F23FAFF
:100A600002F018BF404270474FF00000704750EA54
:100A7000013005D111F0004008BF6FF00040704711
:100A80004FF00000704700BF4A0011D212F500126B
:100A900011D20DD56FF47873B3EB62520ED44FEAD6
:100AA000C12343F0004343EA505323FA02F0704756
:100AB0004FF00000704750EA013002D14FF0FF3094
:100AC00070474FF0000070474FEA4102B2F1E04337
:100AD00024BFB3F5001CDCF1FE5C0DD901F0004C25
:100AE0004FEAC0024CEA5070B2F1004F40EB830075
:100AF00008BF20F00100704711F0804F21D113F1A1
:100B00003872BCBF01F00040704741F480114FEAD9
:100B10005252C2F11802C2F1200C10FA0CF320FA62
:100B200002F018BF40F001004FEAC1234FEAD3237F
:100B300003FA0CFC40EA0C0023FA02F34FEA4303E9
:100B4000CCE77FEA625307D150EA01331EBF4FF072
:100B5000FE4040F44000704701F0004040F0FE408D
:100B600040F40000704700BF38B505460C4600222F
:100B7000002328462146FFF721FF28B928462146B1
:100B8000BDE8384000F00AB8284604F1004100F002
:100B900005F8404261EB410138BD00BFD0B50022ED
:100BA0000B4B06460F46FFF797FCFFF76DFF044619
:100BB000FFF718FC0022074BFFF78EFC02460B469E
:100BC00030463946FFF7D0FAFFF75EFF2146D0BD29
:100BD0000000F03D0000F0412DE9F04188B0002414
:100BE00004940594069407942E4B9A6942F02002CF
:100BF0009A619A6902F020020192019A9A6942F080
:100C000004029A619A6902F004020292029A9A69B5
:100C100042F008029A619B6903F008030393039B67
:100C2000214E22461021304603F080F91F4D224606
:100C30000321284603F07AF9102304934FF00108AA
:100C4000CDF814800694022707970DEB0301304678
:100C500003F05AF803230493CDF814800694079701
:100C600004A9284603F050F84FF400430493104FB2
:100C70000597069404A9304603F046F838230493F8
:100C80000597069404A9284603F03EF8224621461B
:100C9000172003F0E5F9172003F01AFA08B0BDE8B1
:100CA000F08100BF0010024000080140000C01402C
:100CB0000000111008B5034B1A680349034807F0F8
:100CC00037FA08BDF00400209007002058030020E8
:100CD00008B54FF47A7006F02BF9074B93F88C3077
:100CE000002BF6D0054B93F89C32032BF1D0024B2E
:100CF000002283F88C20ECE75803002090070020A6
:100D000008B5012006F014F9FBE7000008B50268F9
:100D1000034B9A4200D008BD02F008FCFBE700BF7D
:100D2000002C014072B6FEE708B50A480A4B036082
:100D30000A4B436000238360C3604FF4804202612A
:100D400043618361C361036203F098FB00B908BD8E
:100D5000FFF7E8FF0004002000540040A0860100D7
:100D600008B50D480D4B03604FF4827343600023B8
:100D70008360C360036143614FF4007282610822A3
:100D8000C2610362436283620A23C36204F06BFAA6
:100D900000B908BDFFF7C6FF540400200030014031
:100DA00008B50A480A4B03604FF4E133436000235F
:100DB0008360C36003610C2242618361C36104F0FC
:100DC0002FFD00B908BDFFF7ADFF00BFAC04002048
:100DD0000038014000B595B0282200210DEB02003B
:100DE00007F01CFA002305930693079308930993D1
:100DF000019302930393049301220A924FF48033E8
:100E00000B930E920222119212934FF4E01313935C
:100E10000AA802F0B3FBC0B90F2305930221069183
:100E2000002307934FF480620892099305A802F00B
:100E3000E5FD60B9102301930023049301A802F09B
:100E4000D7FE30B915B05DF804FBFFF76BFFFFF775
:100E500069FFFFF767FF000000B599B002F054FB8F
:100E6000FFF7B8FFFFF7B8FEFFF75EFFFFF778FF69
:100E7000FFF796FF00F0C2F900251695179501219E
:100E800016A806F05CF81D4B18601D4C0DF13C0CCB
:100E9000A646BEE80F00ACE80F009EE807008CE80D
:100EA000070029460FA806F00EF8164B18600DF142
:100EB000200C04F11C0EBEE80F00ACE80F009EE809
:100EC00007008CE80700294608A805F0FCFF0E4B38
:100ED00018600DF1040E04F1380CBCE80F00AEE808
:100EE0000F009CE807008EE80700294601A805F0DE
:100EF000EAFF064B186005F0E1FFFEE7F004002072
:100F000038CB0008FC0300205403002050030020CD
:100F1000034B0360034B0B6080231360704700BFDB
:100F2000F4060020F4040020FEE7FEE7FEE7FEE7FB
:100F3000FEE7704708B5024801F0CBF808BD00BFD6
:100F4000540C002008B5202002F0F8FF08BD000076
:100F500008B5024804F0AAFA08BD00BF48070020FF
:100F600008B5024804F048F808BD00BF000400209E
:100F700008B5024804F010F908BD00BF00040020C5
:100F800008B5024804F0CCF908BD00BF54040020A5
:100F900008B5024804F0F6FC08BD00BFAC04002010
:100FA00000B583B0114B9A6942F001029A619A69C7
:100FB00002F001020092009ADA6942F08052DA618E
:100FC000DB6903F080530193019B00220F216FF036
:100FD000010003F045F8064A536823F0E06343F04C
:100FE0000073536003B05DF804FB00BF00100240C3
:100FF0000000014010B586B00023029303930493D0
:1010000005930268194B9A4201D006B010BD184CE6
:10101000A36943F00803A361A36903F008030093E5
:10102000009BC0230293122303930323059302A979
:10103000104802F069FEE36943F40013E361E369D9
:1010400003F400130193019B002205211F2003F0EC
:1010500007F81F2003F03CF800220521202002F0B1
:10106000FFFF202003F034F8CFE700BF005400401A
:1010700000100240000C014030B587B000230293FD
:1010800003930493059302681A4B9A4201D007B068
:1010900030BD03F560439A6942F480529A619A69BF
:1010A00002F480520092009A9A6942F004029A6116
:1010B0009B6903F004030193019BA0230293022385
:1010C0000393032305930C4D02A9284602F01CFE4E
:1010D0004023029300240394049402A9284602F0BA
:1010E00013FE22460521232002F0BAFF232002F03E
:1010F000EFFFCCE7003001400008014030B587B079
:101100000023029303930493059302681B4B9A42B6
:1011100001D007B030BD03F558439A6942F48042CC
:101120009A619A6902F480420092009A9A6942F0A8
:1011300004029A619B6903F004030193019B4FF43D
:101140000073029302230393032305930C4D02A91A
:10115000284602F0D9FD4FF48063029300240394E3
:10116000049402A9284602F0CFFD2246052125203D
:1011700002F076FF252002F0ABFFCAE700380140FD
:101180000008014000B589B001460022192002F094
:1011900067FF192002F09CFF144B9A6942F4006229
:1011A0009A619B6903F400630193019B02A903A860
:1011B00002F000FD02F0EEFC0D4BA3FB00239B0CA4
:1011C000013B0C480C4A026040F2E732C2604360C7
:1011D00000230361836004F061FA18B1012009B0B3
:1011E0005DF804FB034804F029F9F8E70010024019
:1011F00083DE1B4348070020002C014008B5002275
:101200000F49104806F09EF970B90F490D4806F0D5
:10121000B0F960B90D490B4806F083FF50B9094891
:1012200006F0AEF948B908BDFFF77CFDEDE7FFF722
:1012300079FDEFE7FFF776FDF1E7FFF773FDF2E7E2
:1012400000000020900700208C0000206C0000208F
:1012500012230B80004870471C00002004230B80E1
:101260000048704730000020002393421ED200B592
:1012700010E00CF1370C01F813C000014FEA430CE9
:101280000CF1010C4FF0000E01F80CE00133DBB261
:10129000934209D24FEA107CB0F1204FE9D20CF111
:1012A000300C01F813C0E8E75DF804FB704700005C
:1012B00038B50B4BD3F8E807D3F8EC47D3F8F03741
:1012C000C01800D138BD074D0822A91CFFF7CCFF7C
:1012D000042205F112012046FFF7C6FFF2E700BF26
:1012E00000F0FF1F3400002008B51A230B80FFF721
:1012F000DFFF014808BD00BF3400002008B50A46E2
:1013000028B90549054806F092FD034808BD024981
:10131000024806F08CFDF8E7540A0020C4CB000810
:1013200010B50A46034C2146034806F080FD2046CE
:1013300010BD00BF540A0020CCCB000808B50A46F7
:1013400028B90549054806F072FD034808BD024961
:10135000024806F06CFDF8E7540A0020E0CB0008D4
:1013600008B50A4628B90549054806F060FD034856
:1013700008BD0249024806F05AFDF8E7540A002069
:10138000F4CB0008002070470020704708B50B4BD5
:10139000D3F8B802002305E0C15C094A1A4411736E
:1013A0000133DBB23F2BF7D94022002106F036FF94
:1013B000044B186805F016FE002008BD90070020B9
:1013C00058030020F0040020022805D8DFE800F0D0
:1013D00005040200012070470220704702680E4B8E
:1013E0009A4200D0704700B583B003F5DA33DA696A
:1013F00042F40002DA61DB6903F400030193019B0C
:1014000000220521142002F02BFE142002F060FEC1
:1014100003B05DF804FB00BF005C004008B500F5B8
:101420002C71D0F8E80206F0C3F808BD08B501EB4E
:10143000810300EBC303D3F87C21D0F8E80206F067
:10144000E4F808BD08B501EB810300EBC303DA6BD8
:10145000D0F8E80206F01FF908BD08B5D0F8E80298
:1014600006F0C0F908BD10B504468368022B09D107
:101470000121D4F8E80206F09EF9D4F8E80206F05B
:1014800072F910BDFFF74EFCF2E7000010B50446FC
:10149000D0F8E80206F092F9A36923B1024A136971
:1014A00043F00603136110BD00ED00E008B5D0F86D
:1014B000E80206F08CF908BD10B504461948C0F8DA
:1014C000E842C4F8C002184B0360082343600223BB
:1014D000836000238361C361036200F015F9E8B9FA
:1014E000182300221146D4F8C00201F011F8582345
:1014F00000228021D4F8C00201F00AF898230022CB
:101500008121D4F8C00201F003F8D8230022012180
:10151000D4F8C00200F0FCFF002010BDFFF702FC71
:10152000DEE700BF540C0020005C004008B5D0F896
:10153000C00200F075F9FFF747FF08BD08B59446F3
:101540001A466346D0F8C00200F0ADFEFFF73CFF3C
:1015500008BD08B5D0F8C00200F0E7FEFFF734FF81
:1015600008BD08B5D0F8C00200F05BFFFFF72CFF04
:1015700008BD08B5D0F8C00200F08FFFFFF724FFC8
:1015800008BDD0F8C03211F0800F08D101F07F0102
:1015900001EB810103EBC10191F86A01704701F091
:1015A0007F01013101EB810103EBC10188787047B4
:1015B00008B5D0F8C00200F078FDFFF705FF08BDC0
:1015C00008B5D0F8C00200F004FFFFF7FDFE08BD2B
:1015D00008B5D0F8C00200F0DAFEFFF7F5FE08BD4E
:1015E00000487047400F00207047704738B512F42C
:1015F000804F44D00468B4F850309BB291F800C0DA
:1016000003EBCC03023304EB4303B3F80044C4F30D
:1016100009048B69A34228D31B1B8B618B697BB99F
:10162000056835F82C309BB223F4804323F0700317
:1016300083F4005343F4004343F0800325F82C3037
:1016400012F0400F0ED002680D7832F825309BB2B0
:1016500023F4E04323F0700343F4004343F0C0035A
:1016600022F8253024B9204638BD00238B61D5E708
:1016700023460A894969006801F02DFFF3E70468F1
:10168000B4F850309BB291F800C003EBCC030633A2
:1016900004EB4303B3F80044C4F309048B69A34289
:1016A0002FD31B1B8B618B697BB9056835F82C30F8
:1016B0009BB223F4804323F0700383F4005343F47C
:1016C000004343F0800325F82C3012F0400F0FD177
:1016D000026891F800C032F82C309BB223F4E0434A
:1016E00023F0700343F4004343F0C00322F82C308E
:1016F000002CB8D023464A894969006801F0EBFE06
:10170000B1E700238B61CEE770B586B0002800F00A
:101710008580044690F8A932EBB1032384F8A932FE
:10172000206800F021FF254655F8106BEC460FCDE0
:10173000ACE80F002B68CCF80030231D0ECB3046F0
:1017400000F002FF054658B1022384F8A9320125B2
:10175000284606B070BD80F8A832FFF73FFEDCE7F0
:101760000021206800F00AFF2B461AE05A1C02EB09
:10177000820104EBC1010120487002EB820104F8F0
:10178000313003EB830104EBC101CB8602EB820C09
:1017900004EBCC0C00208CF803008863C863086459
:1017A000D3B261688B42E1D316E005EB850304EB0D
:1017B000C303002283F8692183F8685183F86B2101
:1017C000C3F87821C3F87C2105EB850304EBC30340
:1017D000C3F880210135EDB2A942E6D8254655F877
:1017E000106BEC460FCDACE80F002B68CCF8003046
:1017F000231D0ECB304600F0C3FE054620B1022368
:1018000084F8A9320125A3E7002384F824300123BA
:1018100084F8A932206801F0E9F999E7012597E7F2
:1018200038B590F8A832012B11D00446012580F874
:10183000A852006800F08FFE29462046FFF7D5FE2B
:10184000206801F0D1F9002084F8A80238BD0220F8
:10185000FCE770B505460C46164612F0400F00F046
:101860000D810268B2F850309BB2097803EBC103D6
:10187000023302EB4303B3F80024C2F30902A36965
:10188000934252D99B1AA361A369002B6AD1637852
:10189000002B4DD12B68B3F8502092B2134403EBC8
:1018A0000111B1F804349BB223F4F8439BB2A1F8C0
:1018B0000434B1F804346FEA43436FEA53439BB2F4
:1018C000A1F804342B686278002A3ED1B3F8502086
:1018D00092B21344227803EB0213B3F80C2492B2B1
:1018E00022F4F84292B2A3F80C24B3F80C246FEA65
:1018F00042426FEA524292B2A3F80C242178284661
:10190000FFF7A0FD16F4804F41D02A68217832F805
:1019100021309BB223F4E04323F0700343F44043AF
:1019200043F0800322F8213031E00023A361ABE7CC
:10193000012BC7D12B68B3F8502092B2134403EBAC
:1019400001110023A1F80434BCE7012AD6D1B3F871
:10195000502092B21344227803EB02130022A3F822
:101960000C24CBE716F4804F0DD0286830F82130D6
:101970009BB223F4E04323F0700343F4404343F06D
:10198000800320F8213094F82430012B12D02A68EB
:10199000217832F821309BB223F4E04323F0400356
:1019A00083F0300343F4004343F0800322F82130F6
:1019B000002070BD636913446361E3691344E3610C
:1019C000216A236999421FD3C91A21626278002AC9
:1019D0003FD12A68B2F8501089B20A44217802EB4C
:1019E0000112EBB9B2F8041489B221F4F84189B2BA
:1019F000A2F80414B2F804146FEA41416FEA5141AD
:101A000089B2A2F8041426E021B9002384F8243016
:101A10001346DBE7002384F8243023620B46D5E726
:101A20003E2B09D8590813F0010F00D0013189026B
:101A300089B2A2F804140EE0590913F01F0F00D167
:101A400001396FEAC1616FEA514189B2A2F8041409
:101A500001E0012A06D09BB222896169286801F061
:101A6000CDF894E72A68B2F8501089B20A44217878
:101A700002EB011299B2A2F80414ECE70268B2F882
:101A800050309BB2097803EBC103063302EB4303EA
:101A9000B3F80024C2F30902A369934253D39B1AFB
:101AA000A361A369002B6BD16378002B4ED12B6807
:101AB000B3F8502092B2134403EB0111B1F804348F
:101AC0009BB223F4F8439BB2A1F80434B1F8043478
:101AD0006FEA43436FEA53439BB2A1F804342B6887
:101AE0006278002A3FD1B3F8502092B21344227892
:101AF00003EB0213B3F80C2492B222F4F84292B230
:101B0000A3F80C24B3F80C246FEA42426FEA524265
:101B100092B2A3F80C2421782846FFF793FC16F420
:101B2000804F7FF434AF2A68217832F821309BB29D
:101B300023F4E04323F0700343F4404343F0800375
:101B400022F8213023E70023A361AAE7012BC6D1A5
:101B50002B68B3F8502092B2134403EB0111002319
:101B6000A1F80434BBE7012AD5D1B3F8502092B2D2
:101B70001344227803EB02130022A3F80C24CAE7D3
:101B800016F4804F0DD1286830F821309BB223F431
:101B9000E04323F0700343F4404343F0800320F814
:101BA000213094F82430012B7FF4F1AE63691344A3
:101BB0006361E3691344E361216A236999421FD396
:101BC000C91A21622A68617800293ED1B2F8501002
:101BD00089B20A44217802EB0112EBB9B2F80C1475
:101BE00089B221F4F84189B2A2F80C14B2F80C14AD
:101BF0006FEA41416FEA514189B2A2F80C1426E024
:101C000021B9002384F824301346DBE70023236244
:101C100084F824300B46D5E73E2B09D8590813F039
:101C2000010F00D00131890289B2A2F80C140EE034
:101C3000590913F01F0F00D101396FEAC1616FEA32
:101C4000514189B2A2F80C1401E0012906D09BB2DF
:101C500062896169286800F0D1FF98E6B2F85010F7
:101C600089B20A44217802EB011299B2A2F80C144D
:101C7000EDE72DE9F04105462868B0F8443013F44B
:101C8000004F00F00F82B0F84440A3B214F00F04EC
:101C900040F0D88013F0100F61D003889AB213F48B
:101CA000006F40F0938012F4004FE5D0038823F0DA
:101CB00070031B051B0D43F0800303802868B0F8F8
:101CC00050309BB295F8682103EBC203063300EB5A
:101CD0004303B3F80034C3F30903C5F884318BB16F
:101CE000D5F87C1171B1B5F86E2101F0F4FBD5F88F
:101CF0008421D5F87C311344C5F87C310021284675
:101D0000FFF794FB2B681A8812F4006FB4D1B3F874
:101D1000502092B21344D5F87821002A79D1B3F833
:101D20000C2492B222F4F84292B2A3F80C24B3F835
:101D30000C246FEA42426FEA524292B2A3F80C249A
:101D40002A6813889BB223F4804323F0700383F442
:101D5000405343F4004343F0800313808CE703882F
:101D60009BB223F4E14323F070036FEA43436FEA2D
:101D700053439BB203802A68B2F850309BB295F867
:101D8000281003EBC103023302EB4303B3F8003422
:101D9000C3F309036B64EA6B1344EB630021284629
:101DA000FFF750FB95F82430002B3FF465AF2B6C08
:101DB000002B7FF461AF95F824302A6843F080034C
:101DC000A2F84C30002385F8243055E7B0F85030A5
:101DD0009BB295F8682103EBC203063300EB430383
:101DE000B3F80034C3F30903C5F88431B5F86E21A4
:101DF00005F52C7101F06FFB2A68138823F070033E
:101E00001B051B0D43F0800313802846FFF706FBDC
:101E100032E73E2A09D8510812F0010F00D00131F3
:101E20008A0292B2A3F80C248AE7510912F01F0F1C
:101E300000D101396FEAC1626FEA524292B2A3F84F
:101E40000C247DE730F824309EB213F4004F4FD1BC
:101E500016F0800F3FF410AF621C02EB820105EB1D
:101E6000C101286830F824309BB223F4E14323F009
:101E700070036FEA43436FEA53439BB220F8243068
:101E8000CB78032B07D033B1022B40F0068116F438
:101E9000807F40F002812868B0F850309BB2621C0D
:101EA00002EB820215F8326003EBC603023300EB4B
:101EB0004303B3F80034C3F3090304EB840205EBD6
:101EC000C202126C9A4240F2D48004EB840705EB04
:101ED000C707D21A3A6404EB840205EBC202126C03
:101EE000002A40F0CD8031462846FFF7ABFAC3E622
:101EF00030F8243023F070031B051B0D43F08003E2
:101F000020F8243004EB8401C90001F5B47105EB1D
:101F1000010804EB840305EBC30393F87431002B31
:101F200042D12868B0F850309BB204EB840205EB34
:101F3000C20292F8682103EBC203063300EB4303AD
:101F4000B3F80074C7F3090717BB04EB840305EB70
:101F5000C303D3F884213A44C3F88421D3F87C2105
:101F60003A44C3F87C21D3F880313BB104EB8403BD
:101F700005EBC303D3F878319F4275D204EB840399
:101F800005EBC30393F868112846FFF74FFA5FE7A4
:101F900004EB840105EBC1013B46B1F86E21D1F899
:101FA0007C1101F098FAD0E704EB840305EBC3033E
:101FB00093F86B31022B35D0296804EB840205EBD2
:101FC000C20292F8680131F820309BB223F4E0435A
:101FD00023F0700343F4004343F0C00321F82030A2
:101FE000286892F8682130F8223013F4804F20D00E
:101FF000B0F850309BB203EBC203023300EB430353
:10200000B3F80074C7F30907002F9ED004EB8401D6
:1020100005EBC1013B46B1F87021D1F87C1101F00C
:102020005AFA92E7324641462846FFF7DFFA07465A
:102030008BE7B0F850309BB203EBC203063300EBE2
:102040004303B3F80074C7F30907002F3FF47DAFD3
:1020500004EB840105EBC1013B46B1F87221D1F8D4
:102060007C1101F038FA70E74146286800F0DAFD8B
:10207000EEE604EB840205EBC202002717642AE7B0
:1020800004EB840205EBC202D66B1E44D663546C8B
:102090002344536400F0C6FDEEE532462846FFF7C0
:1020A000D8FBE9E50020BDE8F08190F8A832012BCB
:1020B0000DD010B50446012380F8A83280F8241012
:1020C000006800F08BFD002084F8A80210BD0220FB
:1020D000704710B584B00446006800F089FD10F424
:1020E000004F47D1206800F083FD10F4806F45D188
:1020F000206800F07DFD10F4804F08D02268B2F80F
:1021000044309BB223F480439BB2A2F84430206851
:1021100000F06EFD10F4005F08D02268B2F8443081
:102120009BB223F400539BB2A2F84430206800F025
:102130005FFD10F4805F32D1206800F059FD10F48B
:10214000006F78D1206800F053FD10F4007F40F05C
:102150009D80206800F04CFD10F4807F08D022683C
:10216000B2F844309BB223F480739BB2A2F844309F
:1021700004B010BD2046FFF77CFDB3E72268B2F83B
:1021800044309BB223F480639BB2A2F844302046D3
:10219000FFF769F900212046FFF787FFA8E72268CB
:1021A000B2F840309BB223F004039BB2A2F8403057
:1021B0002268B2F840309BB223F008039BB2A2F829
:1021C00040302046FFF772F92268B2F844309BB2E3
:1021D00023F480539BB2A2F84430ADE7226832F872
:1021E000231004AA02EB430222F8101C0133DBB2D5
:1021F000072BF3D92268B2F840309BB243F00103B9
:10220000A2F840302268B2F840309BB223F00103BC
:102210009BB2A2F840302368B3F8442012F4806FD8
:10222000F9D0B3F8442092B222F4806292B2A3F8BB
:10223000442000230BE00023DAE7226804A901EB25
:10224000430131F8101C22F823100133DBB2072BB5
:10225000F3D92268B2F840309BB243F00803A2F8E9
:1022600040302268B2F844309BB223F400639BB242
:10227000A2F844302268B2F840309BB243F0040325
:10228000A2F840302046FFF701F95BE72268B2F878
:1022900044309BB223F400739BB2A2F84430204632
:1022A000FFF7DBF855E710B504468C4611F0800FB8
:1022B0002AD101F0070000EB8001C90001F5B47ECE
:1022C00004EB0E0100EB800004EBC0004FF0000EA9
:1022D00080F869E10CF0070C81F800C00A61CB704E
:1022E0004A780AB1A1F80EC0022B19D094F8A8328E
:1022F000012B18D0012384F8A832206800F051F98E
:10230000002084F8A80210BD01F00700013000EBA6
:10231000800104EBC1014FF0010E81F801E0D9E723
:1023200000230B71E2E70220EDE710B504460B46EF
:1023300011F0800F1FD101F0070202EB8201C900EA
:1023400001F5B471014402EB820200EBC2020020ED
:1023500082F8690103F007030B7094F8A832012B8F
:1023600013D0012384F8A832206800F0D6FA0020A8
:1023700084F8A80210BD01F00702013202EB8201CD
:1023800000EBC10101204870E4E70220F2E710B53C
:1023900001F0070404EB8401C90001F5B4710144A4
:1023A00004EB840C00EBCC0CCCF87C21CCF8803115
:1023B0000023CCF884318CF869318CF8684124B959
:1023C000006800F02FFC002010BD006800F02AFC1F
:1023D000F9E710B501F0070404F1010C0CEB8C01D6
:1023E00000EBC10104EB840E00EBCE0ECEF83C20D6
:1023F000CEF8403001228EF84C20CEF84830002331
:10240000CEF844304A700CEB8C0C00F83C4024B9F8
:10241000006800F007FC002010BD006800F002FC1E
:10242000F9E738B501F007054268954231D804460E
:102430000B4611F0800F1ED101EB8101C90001F59F
:10244000B471014403EB830300EBC303002283F860
:10245000692101238B700D7094F8A832012B1AD0DA
:10246000012384F8A832206800F042FB5DB100200F
:1024700084F8A80238BD6B1C03EB830100EBC1019B
:1024800001224A70E5E704F52C71206800F0B4FBE6
:10249000EDE70120EEE70220ECE70B4601F00F012B
:1024A0004268914230D810B5044613F0800F21D114
:1024B00003F0070202EB8201C90001F5B471014487
:1024C00002EB820200EBC202002082F869010022C6
:1024D0008A7003F007030B7094F8A832012B15D013
:1024E000012384F8A832206800F027FB002084F83C
:1024F000A80210BD03F00702013202EB820100EBDB
:10250000C10101204870E2E7012070470220F0E796
:1025100011F0800F0BD001F00701013101EB8101B7
:1025200000EBC10152B90A73CB800020704701EB68
:102530008101C90001F5B4710144F3E701220A7376
:102540000B811B0C4B81F0E784B001A880E80E00E2
:10255000002004B0704703460020A3F844004FF465
:102560003F42A3F840207047B0F8403023F47C533A
:102570005B045B0CA0F840300020704700207047DF
:1025800084B0844601A880E80E000123ACF84030F6
:102590000020ACF84000ACF84400ACF8500004B0A7
:1025A000704710B5034691F800C030F82C2092B265
:1025B00022F4EC4222F0700292B2C878032861D86B
:1025C000DFE800F0555C0258002048F2800E42EA35
:1025D0000E0223F82C2091F800C033F82C2092B280
:1025E00022F4E04222F070024CEA020242EA0E02B9
:1025F00023F82C200A7B002A40F0C4804A78002A65
:1026000051D0B3F8502092B21A440C7802EB041265
:10261000B1F806C04FEA5C0C4FEA4C0CA2F800C4BB
:102620000C7833F8242012F0400F0CD033F824201B
:1026300092B222F4E04222F0700242F4004242F0F0
:10264000C00223F82420CA78012A1DD0097833F863
:10265000212092B222F4E04222F0400282F02002D5
:1026600042F4004242F0800223F821206AE042F462
:102670000072AAE742F4C0620020A6E742F480623A
:102680000020A2E70120A0E7097833F8212092B2C8
:1026900022F4E04222F0400242F4004242F0800282
:1026A00023F821204EE0B3F8502092B21A440C785F
:1026B00002EB0412B1F806C04FEA5C0C4FEA4C0C76
:1026C000A2F808C4B3F8502092B21A440C7802EB76
:1026D00004120C69BCBBB2F80CC41FFA8CFC2CF4BD
:1026E000F84C1FFA8CFCA2F80CC4B2F80CC46FEAC8
:1026F0004C4C6FEA5C4C1FFA8CFCA2F80CC40C78B2
:1027000033F8242012F4804F0CD033F8242092B2F6
:1027100022F4E04222F0700242F4404242F0800291
:1027200023F82420097833F8212092B222F4804241
:1027300022F0700282F4405242F4004242F08002E1
:1027400023F8212010BD3E2C0DD84FEA540C14F074
:10275000010F01D00CF1010C4FEA8C2C1FFA8CFCFC
:10276000A2F80CC4CBE74FEA541C14F01F0F01D1A0
:102770000CF1FF3C6FEACC646FEA5444A4B2A2F8B7
:102780000C44BCE791F800C033F82C2092B222F43C
:10279000E04222F0700242F4014242F0800223F84B
:1027A0002C20B3F8502092B21A4491F800C002EBEA
:1027B0000C12B1F808C04FEA5C0C4FEA4C0CA2F8BE
:1027C00000C4B3F8502092B21A4491F800C002EB52
:1027D0000C12B1F80AC04FEA5C0C4FEA4C0CA2F89C
:1027E00008C44A78002A41D10C7833F8242012F426
:1027F000804F0CD033F8242092B222F4E04222F031
:10280000700242F4404242F0800223F824200C7807
:1028100033F8242012F0400F0CD033F8242092B269
:1028200022F4E04222F0700242F4004242F0C00280
:1028300023F8242091F800C033F82C2092B222F41F
:10284000804222F0700282F4405248F28004224317
:1028500023F82C20097833F8212092B222F4E042A8
:1028600022F04002224323F821206BE70C7833F852
:10287000242012F4804F0CD033F8242092B222F49A
:10288000E04222F0700242F4404242F0800223F81B
:1028900024200C7833F8242012F0400F0CD033F8A9
:1028A000242092B222F4E04222F0700242F400426C
:1028B00042F0C00223F82420CA78012A1ED00C78E6
:1028C00033F8242092B222F4E04222F0400282F057
:1028D000200242F4004242F0800223F824200978CA
:1028E00033F8212092B222F4804222F0700242F4A6
:1028F000004242F0800223F8212023E70C7833F8CD
:10290000242092B222F4E04222F0400242F400423B
:1029100042F0800223F82420E1E70B7B002B46D114
:102920004B7813B30A7830F8223013F0400F0CD0F4
:1029300030F822309BB223F4E04323F0700343F4D9
:10294000004343F0C00320F822300A7830F82230E8
:102950009BB223F4E04323F0400343F4004343F0ED
:10296000800320F82230002070470A7830F82230A7
:1029700013F4804F0CD030F822309BB223F4E043A4
:1029800023F0700343F4404343F0800320F82230E7
:102990000A7830F822309BB223F4804323F070038E
:1029A00043F4004343F0800320F82230DBE74B7808
:1029B000002B4ED10A7830F8223013F4804F0CD01F
:1029C00030F822309BB223F4E04323F0700343F449
:1029D000404343F0800320F822300A7830F8223058
:1029E00013F0400F0CD030F822309BB223F4E043B8
:1029F00023F0700343F4004343F0C00320F8223077
:102A00000A7830F822309BB223F4E04323F07003BD
:102A100043F4004343F0C00320F822300B7830F831
:102A2000232092B222F4804222F0700248F2800CFD
:102A300042EA0C0220F823200A7830F822309BB2B8
:102A400023F4E04323F0400343EA0C0320F8223050
:102A500089E70A7830F8223013F4804F0CD030F830
:102A600022309BB223F4E04323F0700343F440434D
:102A700043F0800320F822300A7830F8223013F037
:102A8000400F0CD030F822309BB223F4E04323F007
:102A9000700343F4004343F0C00320F822300A7867
:102AA00030F822309BB223F4E04323F0700343F468
:102AB000404343F0800320F822300B7830F8232085
:102AC00092B222F4E04222F0400248F2800C42EA44
:102AD0000C0220F823200A7830F822309BB223F42D
:102AE000804323F0700343EA0C0320F822303AE7D6
:102AF0004B788BB10A7830F822309BB223F4E04354
:102B000023F0400383F0100343F4004343F08003B9
:102B100020F82230002070470A7830F822309BB22B
:102B200023F4804323F0700383F4805343F4004381
:102B300043F0800320F82230ECE70B7B002B4BD1D5
:102B40004B7833B30A7830F8223013F0400F0CD0B2
:102B500030F822309BB223F4E04323F0700343F4B7
:102B6000004343F0C00320F82230CB78012B33D050
:102B70000A7830F822309BB223F4E04323F040037C
:102B800083F0200343F4004343F0800320F8223015
:102B900022E00A7830F8223013F4804F0CD030F85D
:102BA00022309BB223F4E04323F0700343F440430C
:102BB00043F0800320F822300A7830F822309BB2AC
:102BC00023F4804323F0700383F4405343F4004321
:102BD00043F0800320F822300020704711B9802391
:102BE000A0F84C300020704700207047002070474C
:102BF000B0F8440080B270470020704710B45C1CED
:102C0000640800EB420202F5806207E00B78487826
:102C100043EA002322F8043B0231013C002CF5D1A9
:102C200010BC704770B505460C464B78012B37D069
:102C30000A7B002A40F026838B690A69934240F29E
:102C400004839B1A8B61B5F850309BB22B442178DA
:102C500003EB0113002A40F0FC82B3F80C2492B27B
:102C600022F4F84292B2A3F80C24B3F80C246FEAD1
:102C700042426FEA524292B2A3F80C24227835F80D
:102C800022309BB223F4804323F0700383F440533B
:102C900043F4004343F0800325F82230002070BD48
:102CA0008E690A69964200D91646237B002B39D0DB
:102CB000E378022B58D0227835F822309BB223F4E7
:102CC000E04323F0700343F4014343F0800325F80D
:102CD0002230236A9B1B2362237835F8232012F0CD
:102CE000400F00F026826278002A40F0CA81B5F8D1
:102CF000502092B22A4402EB0313002E40F0A88128
:102D0000B3F80C2492B222F4F84292B2A3F80C2445
:102D1000B3F80C246FEA42426FEA524292B2A3F82F
:102D20000C24B0E1B6B23346E28861692846FFF769
:102D300065FFB5F850309BB22B44227803EB0213A9
:102D4000A3F80464227835F822309BB223F4E043E0
:102D500023F0400383F0300343F4004343F0800347
:102D600025F8223000209AE7236A9A4280F05281A7
:102D7000227835F822309BB223F4E04323F070032D
:102D800043F4014343F0800325F82230236A9B1B60
:102D90002362237835F8232012F0400F00F09D8045
:102DA00062788ABBB5F8502092B22A4402EB031332
:102DB0008EB9B3F80C2492B222F4F84292B2A3F87E
:102DC0000C24B3F80C246FEA42426FEA524292B2EA
:102DD000A3F80C241AE03E2E09D8720816F0010F51
:102DE00000D00132920292B2A3F80C240EE07209D4
:102DF00016F01F0F00D1013A6FEAC2626FEA524229
:102E000092B2A3F80C2401E0012A2BD0B3B262895C
:102E100061692846FFF7F2FE636933446361236A00
:102E20002269934228D99B1B23626378002B40D1EF
:102E3000B5F850309BB22B44227803EB0213FEB955
:102E4000B3F8042492B222F4F84292B2A3F8042414
:102E5000B3F804246FEA42426FEA524292B2A3F8F6
:102E6000042428E0B5F8502092B22A4402EB031360
:102E7000B2B2A3F80C24C9E7002222621E46D4E7AE
:102E80003E2E09D8720816F0010F00D001329202CE
:102E900092B2A3F804240EE0720916F01F0F00D1BD
:102EA000013A6FEAC2626FEA524292B2A3F8042476
:102EB00001E0012B06D0B3B2228961692846FFF7F1
:102EC0009DFE3FE7B5F850309BB22B44227803EBD0
:102ED0000213B2B2A3F80424EDE762788ABBB5F816
:102EE000502092B22A4402EB03138EB9B3F80424A3
:102EF00092B222F4F84292B2A3F80424B3F8042464
:102F00006FEA42426FEA524292B2A3F804241AE0F6
:102F10003E2E09D8720816F0010F00D0013292023D
:102F200092B2A3F804240EE0720916F01F0F00D12C
:102F3000013A6FEAC2626FEA524292B2A3F80424E5
:102F400001E0012A2BD0B3B2228961692846FFF73C
:102F500055FE636933446361236A2269934228D929
:102F60009B1B23626378002B40D1B5F850309BB295
:102F70002B44227803EB0213FEB9B3F80C2492B26F
:102F800022F4F84292B2A3F80C24B3F80C246FEAAE
:102F900042426FEA524292B2A3F80C2428E0B5F8FC
:102FA000502092B22A4402EB0313B2B2A3F80424D5
:102FB000C9E7002222621E46D4E73E2E09D87208D5
:102FC00016F0010F00D00132920292B2A3F80C2445
:102FD0000EE0720916F01F0F00D1013A6FEAC262CB
:102FE0006FEA524292B2A3F80C2401E0012B06D002
:102FF000B3B2628961692846FFF700FEA2E6B5F820
:1030000050309BB22B44227803EB0213B2B2A3F8E8
:103010000C24EDE7217835F8212092B222F4E24227
:1030200022F0700242F4004242F0800225F8212092
:10303000B5F8502092B22A44217802EB01129BB2DB
:10304000A2F80434228961692846FFF7D7FD79E6A2
:103050003E2E09D8720816F0010F00D001329202FC
:1030600092B2A3F80C240EE0720916F01F0F00D1E3
:10307000013A6FEAC2626FEA524292B2A3F80C249C
:1030800001E0012A26D0B3B2628961692846FFF7C0
:10309000B5FD636933446361236A2269934223D98E
:1030A0009B1B2362002E3FF44DAE63786BBBB5F8DB
:1030B00050309BB22B44227803EB02133E2E17D8DC
:1030C000720816F0010F00D00132920292B2A3F8FA
:1030D00004241CE0B5F8502092B22A4402EB0313FA
:1030E000B2B2A3F80C24CEE7002222621E46D9E732
:1030F000720916F01F0F00D1013A6FEAC2626FEA3F
:10310000524292B2A3F8042401E0012B06D0B3B2DC
:10311000228961692846FFF771FD13E6B5F8503042
:103120009BB22B44227803EB0213B2B2A3F804241F
:10313000EDE762788ABBB5F8502092B22A4402EBE0
:1031400003138EB9B3F8042492B222F4F84292B277
:10315000A3F80424B3F804246FEA42426FEA52420F
:1031600092B2A3F804241AE03E2E09D8720816F091
:10317000010F00D00132920292B2A3F804240EE0B3
:10318000720916F01F0F00D1013A6FEAC2626FEAAE
:10319000524292B2A3F8042401E0012A26D0B3B22D
:1031A000228961692846FFF729FD63693344636119
:1031B000236A2269934223D99B1B2362002E3FF48A
:1031C000C1AD63786BBBB5F850309BB22B4422780D
:1031D00003EB02133E2E17D8720816F0010F00D031
:1031E0000132920292B2A3F80C241CE0B5F85020F0
:1031F00092B22A4402EB0313B2B2A3F80424CEE73E
:10320000002222621E46D9E7720916F01F0F00D174
:10321000013A6FEAC2626FEA524292B2A3F80C24FA
:1032200001E0012B06D0B3B2628961692846FFF73D
:10323000E5FC87E5B5F850309BB22B44227803EBD0
:103240000213B2B2A3F80C24EDE700228A611A46F9
:10325000F9E43E2A09D8510812F0010F00D00131DB
:10326000890289B2A3F80C1408E5510912F01F0F66
:1032700000D101396FEAC1616FEA514189B2A3F807
:103280000C14FBE4CA78022A45D0012A40F02081C0
:1032900089692269914240F2D480891AA161D3B927
:1032A000B5F850309BB22B44217803EB0113002A70
:1032B00040F0CB80B3F8041489B221F4F84189B20C
:1032C000A3F80414B3F804146FEA41416FEA5141C2
:1032D00089B2A3F804146378002B40F0EA80B5F8B3
:1032E00050309BB22B44217803EB0113002A40F0AD
:1032F000C580B3F80C2492B222F4F84292B2A3F83B
:103300000C24B3F80C246FEA42426FEA524292B2A4
:10331000A3F80C24B2E4CBB9B0F850309BB203440C
:103320000A7803EB02130A6972BBB3F8042492B261
:1033300022F4F84292B2A3F80424B3F804246FEA0A
:1033400042426FEA524292B2A3F804246378002BFF
:103350004CD1B5F850309BB22B44227803EB0213CA
:10336000226952BBB3F80C2492B222F4F84292B212
:10337000A3F80C24B3F80C246FEA42426FEA5242DD
:1033800092B2A3F80C2433E03E2A09D8510812F077
:10339000010F00D001318A0292B2A3F80424D5E7CC
:1033A000510912F01F0F00D101396FEAC1626FEAB3
:1033B000524292B2A3F80424C8E73E2A09D8510821
:1033C00012F0010F00D001318A0292B2A3F80C244E
:1033D0000EE0510912F01F0F00D101396FEAC162EE
:1033E0006FEA524292B2A3F80C2401E0012B1DD0E7
:1033F000E369002B3FF442AC227835F8221044F206
:10340000400303EA01008B4302D000287FF436AC6E
:1034100035F822309BB223F4E04323F0700343F4E9
:10342000004343F0C00325F8223027E4B5F85030BC
:103430009BB22B44227803EB0213228AA3F80C24BC
:10344000D6E70022A2610A4629E73E2A09D8510898
:1034500012F0010F00D00131890289B2A3F80414DF
:1034600039E7510912F01F0F00D101396FEAC1612C
:103470006FEA514189B2A3F804142CE73E2A0AD816
:10348000510812F0010F00D001318A0292B2A3F864
:103490000C24FFF7F3BB510912F01F0F00D10139C3
:1034A0006FEAC1626FEA524292B2A3F80C24FFF7AE
:1034B000E5BB012B7FF4E2ABB5F850309BB22B4457
:1034C000217803EB011392B2A3F80C24FFF7D6BBCB
:1034D0000120FFF7E4BB10B45C0800EB420000F5EC
:1034E000806007E030F8042B0A70C2F307224A70AC
:1034F0000231013C002CF5D113F0010F01D00388FB
:103500000B7010BC7047000008B5074A136843F001
:1035100010031360032000F091FD0F20FDF732FE31
:10352000FDF73EFD002008BD00200240034A11685F
:10353000034B1B780B441360704700BF980F0020AB
:103540007C000020014B1868704700BF980F0020D6
:1035500082B0084B1B68084AA2FB03235B0A00FBEE
:1035600003F3019300BF019B5A1E0192002BF9D176
:1035700002B0704784000020D34D6210002800F094
:10358000F18170B582B00446036813F0010F2CD0AE
:10359000994B5B6803F00C03042B1DD0964B5B68C2
:1035A00003F00C03082B12D06368B3F5803F41D0C1
:1035B000002B55D103F1804303F504331A6822F43C
:1035C00080321A601A6822F480221A6037E08A4B2F
:1035D0005B6813F4803FE7D0874B1B6813F4003F10
:1035E00003D06368002B00F0BF81236813F0020F43
:1035F00075D0814B5B6813F00C0F5FD07E4B5B681E
:1036000003F00C03082B54D02369002B00F08A80B0
:103610007A4B01221A60FFF795FF0546764B1B682F
:1036200013F0020F75D1FFF78DFF401B0228F5D96B
:1036300003209EE1704A136843F48033136063688B
:1036400043B3FFF77FFF05466B4B1B6813F4003F46
:10365000CBD1FFF777FF401B6428F5D9032088E121
:10366000B3F5A02F09D0644B1A6822F480321A6097
:103670001A6822F480221A60E1E703F18043A3F57F
:103680003C331A6842F480221A601A6842F480328D
:103690001A60D4E7FFF756FF0546574B1B6813F433
:1036A000003FA2D0FFF74EFF401B6428F5D903204E
:1036B0005FE1514B5B6813F4803FA5D14E4B1B6813
:1036C00013F0020F03D02369012B40F04F814A4AC7
:1036D000136823F0F803616943EAC10313602368A8
:1036E00013F0080F33D0A369002B5CD0434B0122A9
:1036F000C3F88024FFF726FF05463F4B5B6A13F0B3
:10370000020F21D1FFF71EFF401B0228F5D903202D
:103710002FE1394A136823F0F803616943EAC103D2
:103720001360DCE7354B00221A60FFF70BFF0546FC
:10373000314B1B6813F0020FD1D0FFF703FF401B82
:103740000228F5D9032014E10120FFF701FF2368C7
:1037500013F0040F00F09680274BDB6913F0805FB5
:1037600034D1254BDA6942F08052DA61DB6903F02B
:1037700080530193019B0125214B1B6813F4807F2B
:1037800026D0E368012B3DD0002B53D103F18043B9
:1037900003F504331A6A22F001021A621A6A22F04F
:1037A00004021A6233E0154B0022C3F88024FFF7AD
:1037B000C9FE0546104B5B6A13F0020FC7D0FFF736
:1037C000C1FE401B0228F5D90320D2E00025D3E733
:1037D0000B4A136843F480731360FFF7B3FE064689
:1037E000074B1B6813F4807FCBD1FFF7ABFE801B28
:1037F0006428F5D90320BCE00010024000004242DA
:10380000007000405F4A136A43F001031362E368EB
:1038100033B3FFF797FE06465A4B1B6A13F0020FAD
:103820002FD1FFF78FFE801B41F288339842F3D9E6
:1038300003209EE0052B09D0524B1A6A22F00102A8
:103840001A621A6A22F004021A62E0E74D4B1A6A01
:1038500042F004021A621A6A42F001021A62D6E7C2
:10386000FFF770FE0646474B1B6A13F0020F08D0A5
:10387000FFF768FE801B41F288339842F3D903209A
:1038800077E0E5B9E369002B72D03E4A526802F056
:103890000C02082A56D0022B17D03B4B00221A6686
:1038A000FFF750FE0446374B1B6813F0007F47D0EC
:1038B000FFF748FE001B0228F5D9032059E0314AE2
:1038C000D36923F08053D361DCE72F4B00221A66C3
:1038D000FFF738FE05462B4B1B6813F0007F06D020
:1038E000FFF730FE401B0228F5D9032041E0236A90
:1038F000B3F5803F1AD023494B6823F47413226A2E
:10390000606A024313434B601F4B01221A66FFF7A4
:1039100019FE04461B4B1B6813F0007F0ED1FFF706
:1039200011FE001B0228F5D9032022E0154A536836
:1039300023F40033A1680B435360DCE7002018E058
:10394000002016E0012B16D00E4B5B6803F480318B
:10395000226A914211D103F47013626A93420ED12C
:10396000002006E001207047012002E0012000E075
:10397000002002B070BD0120FBE70120F9E7012023
:10398000F7E700BF001002400000424286B0174B2C
:103990000FCB0DF1180C0CE90F0040F20123ADF82C
:1039A0000430134B5B6803F00C02082A02D0114864
:1039B00006B07047C3F3834218326A4412F8100C01
:1039C00013F4803F0DD00A4B5B68C3F340431833B8
:1039D0006B4413F8143C074A02FB00F0B0FBF3F011
:1039E000E6E7054B03FB00F0E2E700BF0CCC000864
:1039F0000010024000127A0000093D00002800F08B
:103A0000A08070B50D460446524B1B6803F00703B7
:103A10008B420BD24F4A136823F007030B4313600A
:103A2000136803F007038B4240F08D80236813F086
:103A3000020F17D013F0040F04D0474A536843F421
:103A4000E0635360236813F0080F04D0424A5368C0
:103A500043F460535360404A536823F0F003A16875
:103A60000B435360236813F0010F31D06368012BBF
:103A700020D0022B25D0384A126812F0020F64D0F1
:103A800035494A6822F0030213434B60FFF75AFDA1
:103A90000646314B5B6803F00C036268B3EB820FA0
:103AA00016D0FFF74FFD801B41F288339842F0D9C2
:103AB000032045E0284A126812F4003FE0D10120BB
:103AC0003EE0254A126812F0007FD9D1012037E08C
:103AD000204B1B6803F00703AB420AD91D4A136849
:103AE00023F007032B431360136803F00703AB4273
:103AF0002DD1236813F0040F06D0174A536823F41E
:103B0000E063E1680B435360236813F0080F07D0AC
:103B1000114A536823F46053216943EAC103536097
:103B2000FFF734FF0C4B5B68C3F303130B4AD35C02
:103B3000D8400B4B18600B4B1868FDF723FB002097
:103B400070BD012070470120FAE70120F8E701204D
:103B5000F6E700BF002002400010024020CC000821
:103B60008400002080000020014B1868704700BFCF
:103B70008400002008B5FFF7F7FF044B5B68C3F330
:103B80000223034AD35CD84008BD00BF00100240A6
:103B900030CC000808B5FFF7E7FF044B5B68C3F3C0
:103BA000C223034AD35CD84008BD00BF00100240C6
:103BB00030CC00080F2303600B4B5A6802F003025D
:103BC00042605A6802F0F00282605A6802F4E062D1
:103BD000C2605B68DB0803F4E0630361034B1B68AE
:103BE00003F007030B607047001002400020024002
:103BF00070B582B00446036813F0010F36D03F4B16
:103C0000DB6913F0805F49D13C4BDA6942F08052A6
:103C1000DA61DB6903F080530193019B0125384B86
:103C20001B6813F4807F3BD0344B1B6A13F4407342
:103C300013D0626802F440729A420ED02F4A136A7F
:103C400023F440702F490126C1F840640026C1F8D2
:103C50004064106213F0010F36D1284A136A23F42E
:103C6000407361680B431362002D3ED1236813F04B
:103C7000020F06D0214A536823F44043A1680B4346
:103C80005360236813F0100F34D01C4A536823F498
:103C90008003E1680B43536000202CE00025BEE761
:103CA000174A136843F480731360FFF74BFC064612
:103CB000134B1B6813F4807FB6D1FFF743FC801BC6
:103CC0006428F5D9032016E0FFF73CFC06460B4BB1
:103CD0001B6A13F0020FC0D1FFF734FC801B41F2C6
:103CE00088339842F3D9032005E0D36923F0805349
:103CF000D361BBE7002002B070BD00BF00100240DE
:103D0000007000400000424270B582B00024A4461A
:103D1000A6E0804DAA4210D007D97F4DAA420CD010
:103D200005F58035AA4208D013E0A5F58015AA4212
:103D300003D005F57025AA4207D18A68002A58D019
:103D4000012A51D04361082403E0A5F58015AA4259
:103D5000F3D0BEF1FF0F4ED80646BEF1FF0F4CD890
:103D60004FEA8C0233680F25954023EA050304FAD5
:103D700002F2134333604B6813F0805F6ED0674BE1
:103D80009A6942F001029A619B6903F00103019371
:103D9000019B4FEA9C02951C614B53F825600CF087
:103DA00003039D000F23AB4026EA03065D4B9842B8
:103DB00029D003F58063984200F08E8003F580637C
:103DC000984200F08B8003F58063984219D0042359
:103DD0001AE0CC68BDE7CC680434BAE7CC68083494
:103DE000B7E7CC680C34B4E703610824B1E70024DA
:103DF000AFE70424ADE7061DAFE7ACF1080292007F
:103E0000B0E7032300E00023AB4033430232444DCC
:103E100045F822304B6813F4803F61D0424A136862
:103E200043EA0E0313604B6813F4003F5ED03E4A32
:103E3000536843EA0E0353604B6813F4801F5BD052
:103E4000394A936843EA0E0393604B6813F4001FEA
:103E500058D0354AD36843EA0E03D3600CF1010C05
:103E60000A6832FA0CF353D0012303FA0CF302EA86
:103E7000030E33EA0202F1D14A68122A3FF649AF33
:103E8000122A3FF666AF01A555F822F03B3D000827
:103E9000D33D0008DD3D0008EF3D0008533D00081C
:103EA000533D0008533D0008533D0008533D0008B2
:103EB000533D0008533D0008533D0008533D0008A2
:103EC000533D0008533D0008533D0008533D000892
:103ED000D73D0008E33D0008012395E7022393E75F
:103EE000114A136823EA0E0313609CE70E4A5368D5
:103EF00023EA0E0353609FE70B4A936823EA0E03FD
:103F00009360A2E7084AD36823EA0E03D360A5E7CB
:103F100002B070BD000022100000311000100240FD
:103F20000000014000080140000401400AB10161A5
:103F300070470904016170477047000008B5054BE0
:103F40005B69034200D108BD024B5861FFF7F4FFE3
:103F5000F9E700BF0004014090F82130022B06D0A1
:103F600004238363002380F8203001207047026817
:103F7000136823F00E0313600268136823F0010333
:103F80001360036CC16B012202FA03F34B6080F8EB
:103F90002120002380F820301846704708B590F89B
:103FA0002130022B03D004238363012008BD026863
:103FB000136823F00E0313600268136823F00103F3
:103FC00013600368194A934214D0143293421FD0ED
:103FD000143293421ED0143293421ED014329342B4
:103FE0001ED01432934202D04FF0807203E04FF49F
:103FF000801200E001220E4B5A60012380F821302C
:10400000002380F82030436B6BB198470020CDE748
:104010001022F0E74FF48072EDE74FF48052EAE7A8
:104020004FF48032E7E70020C0E700BF08000240FD
:104030000000024090F8210070470000074AD36852
:1040400023F4E0631B041B0C000200F4E060034354
:1040500043F0BF6343F40033D360704700ED00E0EA
:1040600000B5194BDB68C3F30223C3F1070CBCF1A5
:10407000040F28BF4FF0040C03F1040EBEF1060F2D
:1040800018D9033B4FF0FF3E0EFA0CFC21EA0C015D
:1040900099400EFA03F322EA0303194300280BDBCD
:1040A0000901C9B200F1604000F5614080F80013D9
:1040B0005DF804FB0023E5E700F00F000901C9B239
:1040C000024B1954F4E700BF00ED00E014ED00E0EE
:1040D000002807DB00F01F02400901239340024A39
:1040E00042F82030704700BF00E100E090F83E3019
:1040F000DBB2402B10D00369B3F5804F1BD0036DAA
:10410000002B39D1436CC3F3C813026803F00603D4
:1041100043F0F00313617047036D2BB9436C0268E1
:1041200003F0FE0313617047436C026843F0010320
:10413000DBB21361704790F83D30DBB2212B0FD01A
:10414000436C026843F00103DBB21361436B6BB154
:104150009B6A5BB10268536843F400635360704725
:10416000436C026803F0FE031361EFE7836B33B126
:104170009B6A002BEED102E0036D012B00D070474B
:10418000436CC3F3C813026803F0060343F0F10362
:104190001361F4E7436C0268DBB21361436B3BB11C
:1041A0009B6A2BB10268536843F400635360704705
:1041B000836B002BFBD09B6A002BF3D1F7E710B485
:1041C0008DB090F83E30DAB2C16A046B90F83D30A1
:1041D000DBB2222B0AD000230B9303685A690B929F
:1041E0009B690B930B9B0DB010BC7047036D0BB913
:1041F000402A17D0036D1BB90369B3F5404F19D09E
:10420000438D9BB2002B25D1039303685A69039217
:104210009A690392039A1A6842F400721A600023A2
:104220000365E0E7019303685A6901929B69019372
:10423000019BD8E70023029303685A6902929A69A6
:104240000292029A1A6842F480721A60036D013376
:104250000365C8E7438D9BB2012B25D0438D9BB2EC
:10426000022B7BD00268136843F4806313600368F9
:104270005A6812F4006F0ED011F5803F07D0012963
:1042800005D0082903D0102901D0202903D15A686C
:1042900042F480525A6000230A9303685A690A92D2
:1042A0009B690A930A9BBAE711F5803F11D0082950
:1042B00034D0202932D0122C2ED0042940D002290B
:1042C0003ED010293CD00268136823F48063136049
:1042D0003BE00268136823F48063136003685A6844
:1042E00012F4006F0CD01A6822F480621A60002366
:1042F000049303685A6904929B690493049B8EE7B4
:10430000002205925A6905929A690592059A1A68DF
:1043100042F400721A6082E70129CED00268136865
:1043200023F4806313600023079303685A6907929C
:104330009A690792079A1A6842F400721A606EE747
:104340000268136843F480631360002306930368D4
:104350005A6906929B690693069B60E7042915D06B
:10436000022913D0102911D00268136843F40063A6
:1043700013600023089303685A6908929A690892A7
:10438000089A1A6822F480621A600CE002681368C6
:1043900043F4806313600023099303685A69099208
:1043A0009B690993099B03685A6812F4006F3FF4F4
:1043B00036AF11F5803F08D0012906D0082904D076
:1043C000102902D020297FF42AAF5A6842F4805283
:1043D0005A6024E7438D9BB25BB1426A036812784E
:1043E0001A61436A01334362438D9BB2013B9BB226
:1043F00043857047438D9BB25BB103681A69436A7A
:104400001A70436A01334362438D9BB2013B9BB2F6
:104410004385704782B0002301930E4B1B68DB0875
:104420000D4AA2FB03231B0A03EB83030193019BA9
:10443000013B0193019B33B103681B6813F4007FB8
:10444000F5D1002004E0036C43F020030364012055
:1044500002B070478400002089B5F814C36AB3F530
:104460002A0F04D0C36AB3F12A4F03D07047012347
:10447000C36270470823C362F8E70000002800F019
:10448000CC8070B5044690F83D30002B77D02423C3
:1044900084F83D302268136823F00103136022681A
:1044A000136843F4004313602268136823F4004345
:1044B0001360FFF75FFB62685A4B9A4264D85A4B0D
:1044C00098428CBF00230123002B40F0A88057495D
:1044D000A1FB00318B0C25686A6822F03F0242EA9A
:1044E00091426A6021680A6A22F03F0266684D4D77
:1044F000AE424FD8013313430B622168CA6922F4DC
:104500004F4222F0FF026668464B9E424CD8431E43
:104510007600B3FBF6F3013340F6FC70034278D02B
:10452000C3F30B031343CB6121680B6823F0C00373
:10453000E269206A024313430B6021688B6823F40D
:10454000034323F0FF032269E068024313438B60B7
:104550002168CB6823F0FF036269A069024313431B
:10456000CB602268136843F00103136000202064CD
:10457000202384F83D30206384F83E0070BD80F82D
:104580003C30FCF737FD82E7294B98428CBF002373
:10459000012399E74FF4967505FB03F3254DA5FB21
:1045A00003539B090133A6E7A368BBB9451E06EB7D
:1045B000460CB5FBFCF50135C5F30B05B5FA85F5E1
:1045C0006D0945BBC3B9013806EB4603B0FBF3F3F5
:1045D0000133C3F30B0343F40043A3E7451E06EB8B
:1045E000860C0CEB8C0CB5FBFCF50135C5F30B050B
:1045F000B5FA85F56D09E4E7013806EB860303EBB0
:104600008303B0FBF3F30133C3F30B0343F44043E1
:1046100088E7042386E7012384E70120704701200F
:10462000ACE700BFA08601007F841E0083DE1B4331
:10463000FF083D00D34D621070477047704708B5C2
:1046400090F83D30DAB2438D9BB283B1416A036882
:1046500009781961436A01334362438D9BB2013B80
:104660009BB24385438D9BB20BB9292A00D008BD6C
:104670000268536823F48063536021230363282373
:1046800080F83D30FFF7DAFFF1E7704708B590F8A2
:104690003D30DAB2438D9BB283B103681969436A36
:1046A0001970436A01334362438D9BB2013B9BB255
:1046B0004385438D9BB20BB92A2A00D008BD0268FE
:1046C000536823F48063536022230363282380F814
:1046D0003D30FFF7DAFFF1E7704700B583B090F89F
:1046E0003D3003F02803282B0CD0002301930268EF
:1046F0005169019192690192019A80F83C3003B0AE
:104700005DF804FB0268536823F48063536011F082
:10471000040F0BD0002311F0800F09D182890021F2
:1047200080F83C101946FFF7D7FFE8E70123F2E7CE
:10473000028BF4E77047000008B590F83D30DBB21B
:10474000C26A082A01D0202A01D1282B06D0212BA9
:104750001ED003686FF480625A6108BD1A4BC362B1
:104760000268536823F4E063536003686FF4806267
:104770005A610268136823F48063136000230363A3
:10478000202280F83D2080F83E30FFF7D3FFE4E799
:104790000D4BC36221230363202380F83D300023A7
:1047A00080F83E300268536823F4E0635360036886
:1047B0006FF480625A610268136823F480631360A7
:1047C000FFF73CFFC9E700BF0000FFFF704708B5D7
:1047D000C26A90F83D30DBB2212B00D008BD438D7A
:1047E0009BB263B1426A036812781A61436A01336B
:1047F0004362438D9BB2013B9BB24385EEE7082A9F
:1048000004D0202A02D012F5803F19D102685368E3
:1048100023F4E06353600268136843F40073136089
:1048200000230363202380F83D3090F83E30DBB254
:10483000402B15D0002380F83E30FFF7FDFECDE77A
:104840000268536823F4E063536011230363002379
:1048500080F83E30202380F83D30FFF7EDFEBDE7C5
:10486000002380F83E30FFF7B1FFB7E708B590F8B6
:104870003D30026D9AB9C36C012B08D0836CC3F331
:10488000072302681361036D0133036508BD836C60
:104890000268DBB21361036D02330365F6E7DBB236
:1048A000026D012A23D0026D022AEFD1222B26D0DD
:1048B000428D92B20AB1212B2AD0428D92B2002AA7
:1048C000E4D1212BE2D10268536823F4E063536002
:1048D0000268136843F4007313600023036320220B
:1048E00080F83D2080F83E30FFF770FFCEE7836C04
:1048F0000268DBB21361036D01330365C6E702682A
:10490000136843F480731360036D01330365BDE7DF
:10491000426A036812781A61436A01334362438D25
:104920009BB2013B9BB24385B0E710B590F83D3098
:10493000DBB290F83E20D2B2C46A018D09B9212BB6
:1049400004D0212B3BD0402A37D010BD082C04D0F6
:10495000202C02D014F5803F19D10268536823F44B
:10496000E06353600268136843F40073136000232C
:104970000363202380F83D3090F83E30DBB2402BBB
:1049800015D0002380F83E30FFF756FEDDE70268C1
:10499000536823F4E063536011230363002380F81A
:1049A0003E30202380F83D30FFF746FECDE7002360
:1049B00080F83E30FFF70AFFC7E7222BC5D1438DB1
:1049C0009BB22BB90268536823F480635360BCE741
:1049D00090F83E30DBB2402B0CD0426A036812786C
:1049E0001A61436A01334362438D9BB2013B9BB220
:1049F0004385AAE7FFF73AFFA7E7704708B5C26A01
:104A0000438D9BB2042B14D0438D9BB2032B22D039
:104A1000438D9BB2022B39D003681A69436A1A701E
:104A2000436A01334362438D9BB2013B9BB2438592
:104A300010E00268536823F48063536003681A69C6
:104A4000436A1A70436A01334362438D9BB2013B50
:104A50009BB2438508BD01684B6823F480634B60BB
:104A6000042A06D0022A04D00268136823F4806363
:104A7000136003681A69436A1A70436A0133436218
:104A8000438D9BB2013B9BB24385E3E7012A0BD0E8
:104A9000102A09D0042A38D0022A36D002681368B6
:104AA00043F40073136004E00268136823F4806326
:104AB000136003681A69436A1A70426A531C43629E
:104AC000438D9BB2013B9BB2438503681B695370C6
:104AD000436A01334362438D9BB2013B9BB24385E2
:104AE0000268536823F440735360202380F83D30FC
:104AF00090F83E30DBB2402B0DD0002380F83E30E2
:104B000012230363FFF799FDA4E70268136843F4D7
:104B100080631360CDE7002380F83E300363FFF726
:104B20006CFF97E7704790F83D30DBB2222B00D046
:104B3000704710B50446438D9BB2032B16D903680A
:104B40001A69436A1A70436A01334362438D9BB208
:104B5000013B9BB24385438D9BB2032B00D010BD1C
:104B60000268536823F480635360F8E7C26A022A3C
:104B7000F5D0012BF3D8FFF74DFC00282ED1226889
:104B8000136823F4806313602268536823F4E0639E
:104B9000536023681A69636A1A70636A0133636237
:104BA000638D9BB2013B9BB26385202384F83D302B
:104BB00094F83E30DBB2402B08D0002384F83E301E
:104BC000122323632046FFF738FDC8E7002384F84B
:104BD0003E3023632046FFF710FFC0E7226853688A
:104BE00023F4E063536023681A69636A1A70636A86
:104BF00001336362638D9BB2013B9BB263852023CB
:104C000084F83D30002384F83E302046FFF78AFFC9
:104C1000A5E7704700B583B000230193406A90F880
:104C20003D20D2B2324B1B68DB083249A1FB031393
:104C30001B0A03EB8303C3EBC3030193019B43B143
:104C4000019B013B019303681B6813F4007FF5D1BE
:104C500003E0036C43F020030364436B0BB10021BA
:104C60009962836B0BB10021996201680B6823F490
:104C700080630B6000234385436B0BB100215963B4
:104C8000836B0BB10021596301680B6823F00103AA
:104C90000B6090F83D30DBB2602B0ED002F02802A2
:104CA000282A14D0202380F83D30002380F83E309D
:104CB000FFF738FF03B05DF804FB202380F83D3098
:104CC000002380F83E300364FFF7A3FFF2E7026899
:104CD000136843F0010313600268136843F48063B0
:104CE000136000230363282380F83D30E0E700BF12
:104CF0008400002089B5F81410B5044690F83D30C2
:104D0000DBB290F83E20D2B2102A35D0402A33D000
:104D100003F02802282A37D02268526812F4006F64
:104D200007D1602B05D0202384F83D30002384F880
:104D30003E300023236323685A6812F4006F47D083
:104D40005A6822F400625A60636B93F82120012AAA
:104D500020D0444A5A63606BFFF720F9002849D0FD
:104D60002268136823F001031360202384F83D3088
:104D7000606B436B98473DE0222BC9D121680A68DC
:104D800022F400620A60C3E700232363282384F827
:104D90003D30D0E7A36B334A5A63A06BFFF7FEF8B0
:104DA00040B323685A6912F0400F05D01A69636A4C
:104DB0001A70636A013363622268136823F0010387
:104DC0001360202384F83D30A06B436B984711E0BB
:104DD00094F83D20D2B2602A1FD05A6912F0400FD9
:104DE00005D01A69636A1A70636A013363622046E8
:104DF000FFF798FE236C13F00F0F04D0226853685E
:104E000023F4E063536094F83D30DBB2226C12F07F
:104E1000040F01D0282B18D010BD202284F83D208B
:104E2000002222645A6912F0400F05D01A69636AA1
:104E30001A70636A013363622268136823F0010306
:104E400013602046FFF7E5FED4E7074BE36200233B
:104E50002363202284F83D2084F83E302046FFF76B
:104E600069FCD9E7154C00080000FFFF30B583B09E
:104E7000044690F83D50EDB20268536823F4E063B5
:104E800053600023019303685A6901921A6842F043
:104E900001021A60019B0268136823F480631360A7
:104EA00003685A6812F4006F38D0222D21D02A2DC1
:104EB0001FD0426B1268526892B24285428D92B204
:104EC0001AB1026C42F0040202645A6822F40062D1
:104ED0005A60606BFFF7AEF801281FD0636B444A3D
:104EE0005A63606BFFF75AF8C0B1606B436B984729
:104EF00014E0A26B1268526892B26285628D92B21F
:104F00001AB1226C42F0040222645A6822F4006250
:104F10005A60A06BFFF78EF8012842D1638D9BB2D7
:104F200033B323685A6912F0040F0AD01A69636A0E
:104F30001A70636A01336362638D9BB2013B9BB25B
:104F4000638523685A6912F0400F0AD01A69636AB0
:104F50001A70636A01336362638D9BB2013B9BB23B
:104F60006385638D9BB21BB1236C43F00403236400
:104F7000236C13BB2A2D25D094F83D30DBB2282BAF
:104F800029D0236B222B01D0222D19D1002323639A
:104F9000202284F83D2084F83E302046FFF775FB40
:104FA0000EE0A36B124A5A63A06BFEF7F7FF0028CE
:104FB000B4D0A06B436B9847B0E72046FFF79CFE48
:104FC00003B030BD00232363282384F83D302046FE
:104FD000FFF75BFBD0E7074BE3620023236320224C
:104FE00084F83D2084F83E302046FFF7A3FBE7E736
:104FF000154C00080000FFFFF8B50446026855682C
:10500000C66A90F83E30DBB290F83D10C8B2102B63
:1050100013D0402B11D0236C002B7AD05369002180
:1050200013F0020F78D015F4007F75D0236C03B114
:1050300091692046FFF751FBF8BDD2F818C05169BD
:1050400011F0010705D1B6F52A0FF5D0B6F12A4FB8
:10505000F2D017B115F4007F29D111F0080F02D05A
:1050600015F4007F2AD111F0020F02D015F4007F51
:1050700028D11CF0040F31D0526812F4006FDBD13C
:1050800011F0800F05D015F4806F02D011F0040FDD
:105090001CD011F0040FCFD015F4007FCCD0212804
:1050A00018D0402BC8D12046FFF7E0FBC4E72046CC
:1050B000FFF7D4F92046FFF719F8BDE72046FFF7C0
:1050C00069F8B9E72046FFF77AF8B5E72046FFF719
:1050D0002CFCB1E72046FFF77AFBADE7536813F4E9
:1050E000006FA9D111F0400F05D015F4806F02D0E8
:1050F00011F0040F09D011F0040F9DD015F4007FBA
:105100009AD02046FFF77AFC96E72046FFF70BFD82
:1051100092E79169536983E713F0100F02D015F4F9
:10512000007F18D121281AD0292818D013F0400F59
:1051300005D015F4806F02D013F0040F28D013F0BF
:10514000040F3FF479AF15F4007F3FF475AF2046AC
:10515000FFF750F970E72046FFF788FE6CE713F081
:10516000800F05D015F4806F02D013F0040F0BD020
:1051700013F0040F3FF460AF15F4007F3FF45CAF11
:105180002046FFF727F957E72046FFF758FA53E77D
:105190002046FFF77BFA4FE7F8B5044603685D69E0
:1051A0005F6890F83E20D2B215F4807F0CD017F4DF
:1051B000807F41D06FF48071596101680B6843F4BE
:1051C00000430B60012600E0002615F4007F08D0A4
:1051D00017F4807F05D046F0020623686FF4007153
:1051E000596115F4806F19D017F4807F16D0638D44
:1051F00099B294F83D30DBB2206B202A1ED0236890
:105200006FF48061596146F00406102A01D0402AEB
:1052100004D12268136843F40073136015F4006F1F
:1052200008D017F4807F05D046F0080623686FF495
:1052300000625A6186B9F8BD0026C6E70029DED1B2
:10524000212B05D0292B03D0282BD8D12128D6D12A
:105250002046FFF771FAE1E7236C1E4326642046DF
:10526000FFF74AFDE7E7002856D010B50446436A29
:1052700033B94368B3F5827F05D00023C36102E0F0
:105280000023036143610023A36294F85130002B93
:105290003CD0022384F851302268136823F0400385
:1052A0001360636803F48273A26802F40442134338
:1052B000E26802F400621343226902F0020213431F
:1052C000626902F001021343A26902F400721343FF
:1052D000E26902F038021343226A02F080021343AB
:1052E000A26A02F40052216813430B60638B2268A8
:1052F00003F0040353602268D36923F40063D3618D
:1053000000206065012384F8513010BD84F85030CE
:105310002046FBF7B1FEBCE7012070477047000054
:1053200030B585B00446026851689368C3F38010B5
:1053300013F0400F05D113F0010F02D011F0400F10
:105340005AD113F0020F02D011F0800F58D1C3F3DD
:10535000401513F0200F01D1002854D011F0200F78
:1053600051D078B194F85130DBB2032B4DD0636D3E
:1053700043F00403636500230193D36801939368AA
:105380000193019B65B1636D43F0010363650023E5
:10539000039393680393136823F040031360039B04
:1053A000636D002B2FD02268536823F0E003536015
:1053B000012384F8513011F0030F2ED02268536876
:1053C00023F003035360E36C4BB1164A5A63E06C5D
:1053D000FEF7E4FD18B1636D43F040036365A36C11
:1053E0008BB1104A5A63A06CFEF7D8FD58B1636DBB
:1053F00043F04003636506E0236C2046984702E0D3
:10540000636C2046984705B030BD00230293D368F3
:10541000029393680293029BF5E72046FFF77EFF15
:10542000F1E700BF2954000808B5406A0023C3878C
:10543000C386FFF773FF08BD7047000090F83D304A
:10544000DBB2012B27D1022380F83D300268D368FC
:1054500043F00103D3600368114A934210D0B3F1C3
:10546000804F0DD0A2F59432934209D002F58062AC
:10547000934205D01A6842F001021A60002070477A
:105480009A6802F00702062A07D01A6842F0010261
:105490001A6000207047012070470020704700BF4D
:1054A000002C0140704770477047704710B50446A4
:1054B00003681A6912F0020F11D0DA6812F0020FB5
:1054C0000DD06FF002021A610123037703689B6914
:1054D00013F0030F70D0FFF7E6FF00232377236854
:1054E0001A6912F0040F12D0DA6812F0040F0ED00D
:1054F0006FF004021A610223237723689B6913F477
:10550000407F5FD02046FFF7CEFF0023237723683C
:105510001A6912F0080F12D0DA6812F0080F0ED0D4
:105520006FF008021A61042323772368DB6913F004
:10553000030F4ED02046FFF7B6FF002323772368E2
:105540001A6912F0100F12D0DA6812F0100F0ED094
:105550006FF010021A61082323772368DB6913F4C4
:10556000407F3DD02046FFF79EFF0023237723682E
:105570001A6912F0010F03D0DA6812F0010F36D168
:1055800023681A6912F0800F03D0DA6812F0800FD6
:1055900034D123681A6912F0400F03D0DA6812F090
:1055A000400F32D123681A6912F0200F03D0DA6855
:1055B00012F0200F30D110BDFFF774FF2046FFF727
:1055C00073FF8AE72046FFF76DFF2046FFF76CFF69
:1055D0009BE72046FFF766FF2046FFF765FFACE735
:1055E0002046FFF75FFF2046FFF75EFFBDE76FF045
:1055F00001021A612046FBF789FBC1E76FF08002C8
:105600001A61204600F077F8C3E76FF040021A6194
:105610002046FFF74AFFC5E76FF020021A612046D7
:1056200000F068F8C7E7000003681B4A90420AD000
:10563000B0F1804F07D0A2F59432904203D002F52A
:105640008062904203D123F070034A681343124AE8
:1056500090420AD0B0F1804F07D0A2F59432904228
:1056600003D002F58062904203D123F44073CA68EC
:10567000134323F080034A69134303608B68C362BA
:105680000B688362044B984202D001234361704748
:105690000B690363F9E700BF002C014040B310B56C
:1056A000044690F83D30F3B1022384F83D302146A2
:1056B00051F8040BFFF7B8FF012384F8463084F853
:1056C0003E3084F83F3084F8403084F8413084F82C
:1056D000423084F8433084F8443084F8453084F80C
:1056E0003D30002010BD80F83C30FFF7A5FEDBE721
:1056F00001207047704770470268D36823F49073A5
:10570000D3600268536923F001035361036B012BDB
:1057100005D0202380F83E300023036370470268E1
:10572000D36823F01003D360F3E790F83D30DBB289
:10573000212B01D0022070478368B3F5805F17D01A
:10574000036A5A1C02621A7803685A60C38C9BB2BF
:10575000013B9BB2C3844BB90268D36823F080033A
:10576000D3600268D36843F04003D36000207047E1
:105770000369002BE4D1036A1B880268C3F30803A2
:105780005360036A02330362E0E7000010B5044689
:105790000268136923F44053C1680B4313618368A3
:1057A0000269134342691A430168CB6823F4B0537A
:1057B00023F00C031343CB600268536923F4407356
:1057C00081690B4353610268134B9A4220D0FEF764
:1057D000D1F9024602EB820202EB820263689B006F
:1057E000B2FBF3F20D48A0FB02314909642303FB2D
:1057F00011231B013233A0FB03235B0903F0F002EA
:1058000002EB011203F00F03216813448B6010BDFB
:10581000FEF7C0F90246DDE7003801401F85EB5175
:1058200058B310B5044690F83D300BB3242384F8E8
:105830003D302268D36823F40053D3602046FFF73D
:10584000A5FF2268136923F490431361226853690A
:1058500023F02A0353612268D36843F40053D360D2
:1058600000202064202384F83D3084F83E3010BDB1
:1058700080F83C30FBF742FCD8E7012070477047C6
:1058800008B50168CA6822F04002CA60202280F888
:105890003D20FFF7F4FF002008BD7047704708B5B2
:1058A000406A0023C385C384FFF7F8FF08BD704733
:1058B00090F83E30DBB2222B60D18368B3F5805F75
:1058C00046D0826AB3F5805F04D0002B4DD10369C6
:1058D000002B4AD103685B681370836A01338362CB
:1058E000C38D9BB2013B9BB2C385002B48D100B551
:1058F00083B00268D36823F02003D3600268D368C2
:1059000023F48073D3600268536923F00103536169
:10591000202380F83E30036B012B2CD1002303633E
:105920000268D36823F01003D36003681A6812F08A
:10593000100F06D0002201921A6801925B68019351
:10594000019B818DFFF7B3FF002003B05DF804FBDE
:105950000269002AB5D1826A03685B68C3F3080351
:105960001380836A02338362BAE703685B6803F0DB
:105970007F031370B1E7FFF790FFE5E70220704760
:105980000020704730B583B0044602681368D068C1
:10599000516913F00F0505D113F0200F02D010F05C
:1059A000200F19D12DB111F0010119D110F4907F00
:1059B00016D1216B012975D013F0800F03D010F0A0
:1059C000800F40F0D78013F0400F03D010F0400F4D
:1059D00040F0D48003B030BD2046FFF769FFF9E7FF
:1059E00013F0010F06D010F4807F03D0226C42F038
:1059F0000102226413F0040F04D019B1226C42F0AA
:105A00000202226413F0020F04D019B1226C42F09A
:105A10000402226413F0080F07D010F0200F00D109
:105A200019B1226C42F008022264226C002AD1D003
:105A300013F0200F02D010F0200F21D123685B69F2
:105A400003F04003226C12F0080F00D123B320466C
:105A5000FFF752FE23685A6912F0400F18D05A69B6
:105A600022F040025A61A36B73B1464A5A63A06B9D
:105A7000FEF794FA0028ADD0A06B436B9847A9E7D6
:105A80002046FFF715FFD9E72046FFF707FFA1E7FC
:105A90002046FFF703FF9DE72046FFF7FFFE0023A8
:105AA000236497E713F0100F86D010F0100F83D007
:105AB000002301931368019353680193019B536979
:105AC00013F0400F32D0A16B0B685B689BB2002BC8
:105AD00080D0A08D98427FF67DAFE3858B69202B27
