:020000040800F2
:1000000000500020459E000891110008931100083F
:1000100095110008971100089911000800000000D0
:10002000000000000000000000000000C17C00088B
:100030009B11000800000000617D0008A57D0008FC
:100040008D9E00088D9E00088D9E00088D9E0008E4
:100050008D9E00088D9E00088D9E00088D9E0008D4
:100060008D9E00089D110008A71100088D9E0008B4
:100070008D9E00088D9E00088D9E00088D9E0008B4
:100080008D9E00088D9E00088D9E00088D9E0008A4
:10009000B11100088D9E00088D9E0008C111000856
:1000A0008D9E0008CD1100088D9E00088D9E0008D1
:1000B0008D9E00088D9E00088D9E0008DD110008B1
:1000C000ED1100088D9E00088D9E0008FD110008AE
:1000D0008D9E00088D9E00080D1200088D9E000860
:1000E0001D1200088D9E00088D9E00080000000073
:1000F0000000000000000000000000000000000000
:0C01000000000000000000005FF808F1A3
:1001100010B5054C237833B9044B13B10448AFF341
:1001200000800123237010BD480300200000000060
:1001300058F0000808B5034B1BB103490348AFF35F
:10014000008008BD000000004C03002058F00008AB
:10015000034613F8012B002AFBD1181A0138704707
:1001600081F0004102E000BF83F0004330B54FEA68
:1001700041044FEA430594EA050F08BF90EA020FD5
:100180001FBF54EA000C55EA020C7FEA645C7FEA68
:10019000655C00F0E2804FEA5454D4EB5555B8BF8B
:1001A0006D420CDD2C4480EA020281EA030382EAFC
:1001B000000083EA010180EA020281EA0303362D8E
:1001C00088BF30BD11F0004F4FEA01314FF4801C61
:1001D0004CEA113102D0404261EB410113F0004F73
:1001E0004FEA03334CEA133302D0524263EB43032A
:1001F00094EA050F00F0A780A4F10104D5F1200EC8
:100200000DDB02FA0EFC22FA05F2801841F1000122
:1002100003FA0EF2801843FA05F359410EE0A5F1F6
:1002200020050EF1200E012A03FA0EFC28BF4CF027
:10023000020C43FA05F3C01851EBE37101F00045DD
:1002400007D54FF0000EDCF1000C7EEB00006EEBEA
:100250000101B1F5801F1BD3B1F5001F0CD3490874
:100260005FEA30004FEA3C0C04F101044FEA4452CB
:1002700012F5800F80F09A80BCF1004F08BF5FEA52
:10028000500C50F1000041EB045141EA050130BD32
:100290005FEA4C0C404141EB0101013C28BFB1F544
:1002A000801FE9D291F0000F04BF01460020B1FA8F
:1002B00081F308BF2033A3F10B03B3F120020CDA62
:1002C0000C3208DD02F1140CC2F10C0201FA0CF040
:1002D00021FA02F10CE002F11402D8BFC2F1200CA5
:1002E00001FA02F120FA0CFCDCBF41EA0C0190405B
:1002F000E41AA2BF01EB0451294330BD6FEA0404A4
:100300001F3C1CDA0C340EDC04F11404C4F120028E
:1003100020FA04F001FA02F340EA030021FA04F3A0
:1003200045EA030130BDC4F10C04C4F1200220FAF7
:1003300002F001FA04F340EA0300294630BD21FA35
:1003400004F0294630BD94F0000F83F4801306BFFB
:1003500081F480110134013D4EE77FEA645C18BFEF
:100360007FEA655C29D094EA050F08BF90EA020F86
:1003700005D054EA000C04BF1946104630BD91EA7E
:10038000030F1EBF0021002030BD5FEA545C05D181
:100390004000494128BF41F0004130BD14F58004C0
:1003A0003CBF01F5801130BD01F0004545F0FE4134
:1003B00041F470014FF0000030BD7FEA645C1ABF69
:1003C000194610467FEA655C1CBF0B46024650EAA0
:1003D000013406BF52EA033591EA030F41F40021CC
:1003E00030BD00BF90F0000F04BF0021704730B552
:1003F0004FF4806404F132044FF000054FF0000127
:1004000050E700BF90F0000F04BF0021704730B5E7
:100410004FF4806404F1320410F0004548BF4042BC
:100420004FF000013EE700BF42004FEAE2014FEA11
:1004300031014FEA02701FBF12F07F4393F07F4FEC
:1004400081F06051704732F07F4208BF704793F0EF
:100450007F4F04BF41F40021704730B54FF4607402
:1004600001F0004521F000411CE700BF50EA010205
:1004700008BF704730B54FF000050AE050EA0102AE
:1004800008BF704730B511F0004502D5404261EB1E
:1004900041014FF4806404F132045FEA915C3FF45F
:1004A000D8AE4FF003025FEADC0C18BF03325FEAFC
:1004B000DC0C18BF033202EBDC02C2F1200300FAAD
:1004C00003FC20FA02F001FA03FE40EA0E0021FAD2
:1004D00002F11444BDE600BF70B54FF0FF0C4CF4C0
:1004E000E06C1CEA11541DBF1CEA135594EA0C0F72
:1004F00095EA0C0F00F0DEF82C4481EA030621EAAD
:100500004C5123EA4C5350EA013518BF52EA0335E7
:1005100041F4801143F4801338D0A0FB02CE4FF099
:100520000005E1FB02E506F00042E0FB03E54FF0C9
:100530000006E1FB03569CF0000F18BF4EF0010EC1
:10054000A4F1FF04B6F5007F64F5407404D25FEABD
:100550004E0E6D4146EB060642EAC62141EA555170
:100560004FEAC52040EA5E504FEACE2EB4F1FD0CB2
:1005700088BFBCF5E06F1ED8BEF1004F08BF5FEA30
:10058000500E50F1000041EB045170BD06F00046E2
:1005900046EA010140EA020081EA0301B4EB5C048F
:1005A000C2BFD4EB0C0541EA045170BD41F4801187
:1005B0004FF0000E013C00F3AB8014F1360FDEBFAC
:1005C000002001F0004170BDC4F10004203C35DA88
:1005D0000C341BDC04F11404C4F1200500FA05F30B
:1005E00020FA04F001FA05F240EA020001F00042AC
:1005F00021F0004110EBD37021FA04F642EB060122
:100600005EEA430E08BF20EAD37070BDC4F10C044B
:10061000C4F1200500FA04F320FA05F001FA04F20F
:1006200040EA020001F0004110EBD37041F10001FB
:100630005EEA430E08BF20EAD37070BDC4F1200506
:1006400000FA05F24EEA020E20FA04F301FA05F26E
:1006500043EA020321FA04F001F0004121FA04F216
:1006600020EA020000EBD3705EEA430E08BF20EAE6
:10067000D37070BD94F0000F0FD101F00046400020
:1006800041EB010111F4801F08BF013CF7D041EAA2
:10069000060195F0000F18BF704703F000465200A6
:1006A00043EB030313F4801F08BF013DF7D043EA77
:1006B0000603704794EA0C0F0CEA135518BF95EA2D
:1006C0000C0F0CD050EA410618BF52EA4306D1D1B4
:1006D00081EA030101F000414FF0000070BD50EAD3
:1006E000410606BF1046194652EA430619D094EA5D
:1006F0000C0F02D150EA013613D195EA0C0F05D147
:1007000052EA03361CBF104619460AD181EA03019A
:1007100001F0004141F0FE4141F470014FF0000052
:1007200070BD41F0FE4141F4780170BD70B54FF0ED
:10073000FF0C4CF4E06C1CEA11541DBF1CEA13556D
:1007400094EA0C0F95EA0C0F00F0A7F8A4EB05044F
:1007500081EA030E52EA03354FEA013100F0888046
:100760004FEA03334FF0805545EA131343EA12630F
:100770004FEA022245EA111545EA10654FEA0026C4
:100780000EF000419D4208BF964244F1FD0404F57D
:10079000407402D25B084FEA3202B61A65EB0305D9
:1007A0005B084FEA32024FF480104FF4002CB6EB96
:1007B000020E75EB030E22BFB61A754640EA0C0016
:1007C0005B084FEA3202B6EB020E75EB030E22BF56
:1007D000B61A754640EA5C005B084FEA3202B6EB97
:1007E000020E75EB030E22BFB61A754640EA9C0056
:1007F0005B084FEA3202B6EB020E75EB030E22BF26
:10080000B61A754640EADC0055EA060E18D04FEAE3
:10081000051545EA16754FEA06164FEAC30343EA83
:1008200052734FEAC2025FEA1C1CC0D111F4801F50
:100830000BD141EA00014FF000004FF0004CB6E749
:1008400011F4801F04BF01430020B4F1FD0C88BFE8
:10085000BCF5E06F3FF6AFAEB5EB030C04BFB6EBF3
:10086000020C5FEA500C50F1000041EB045170BDE6
:100870000EF0004E4EEA113114EB5C04C2BFD4EB13
:100880000C0541EA045170BD41F480114FF0000E97
:10089000013C90E645EA060E8DE60CEA135594EA13
:1008A0000C0F08BF95EA0C0F3FF43BAF94EA0C0F16
:1008B0000AD150EA01347FF434AF95EA0C0F7FF48B
:1008C00025AF104619462CE795EA0C0F06D152EADF
:1008D00003353FF4FDAE1046194622E750EA4106C3
:1008E00018BF52EA43067FF4C5AE50EA41047FF4D4
:1008F0000DAF52EA43057FF4EBAE12E74FF0FF3C39
:1009000006E000BF4FF0010C02E000BF4FF0010C09
:100910004DF804CD4FEA410C7FEA6C5C4FEA430C82
:1009200018BF7FEA6C5C1BD001B050EA410C0CBFD1
:1009300052EA430C91EA030F02BF90EA020F002033
:10094000704710F1000F91EA030F58BF994208BF9A
:1009500090422CBFD8176FEAE37040F00100704757
:100960004FEA410C7FEA6C5C02D150EA013C07D1AE
:100970004FEA430C7FEA6C5CD6D152EA033CD3D0F9
:100980005DF8040B704700BF8446104662468C46F3
:100990001946634600E000BF01B5FFF7B7FF002826
:1009A00048BF10F1000F01BD4DF808EDFFF7F4FF4F
:1009B0000CBF012000205DF808FB00BF4DF808EDDA
:1009C000FFF7EAFF34BF012000205DF808FB00BFFD
:1009D0004DF808EDFFF7E0FF94BF012000205DF81F
:1009E00008FB00BF4DF808EDFFF7CEFF94BF0120D4
:1009F00000205DF808FB00BF4DF808EDFFF7C4FFCD
:100A000034BF012000205DF808FB00BF4FEA410C15
:100A10007FEA6C5C02D150EA013C0AD14FEA430CF8
:100A20007FEA6C5C02D152EA033C02D14FF0000035
:100A300070474FF0010070474FEA410212F5001273
:100A400015D211D56FF47873B3EB625212D94FEA15
:100A5000C12343F0004343EA505311F0004F23FAFF
:100A600002F018BF404270474FF00000704750EA54
:100A7000013005D111F0004008BF6FF00040704711
:100A80004FF00000704700BF4A0011D212F500126B
:100A900011D20DD56FF47873B3EB62520ED44FEAD6
:100AA000C12343F0004343EA505323FA02F0704756
:100AB0004FF00000704750EA013002D14FF0FF3094
:100AC00070474FF0000070474FEA4102B2F1E04337
:100AD00024BFB3F5001CDCF1FE5C0DD901F0004C25
:100AE0004FEAC0024CEA5070B2F1004F40EB830075
:100AF00008BF20F00100704711F0804F21D113F1A1
:100B00003872BCBF01F00040704741F480114FEAD9
:100B10005252C2F11802C2F1200C10FA0CF320FA62
:100B200002F018BF40F001004FEAC1234FEAD3237F
:100B300003FA0CFC40EA0C0023FA02F34FEA4303E9
:100B4000CCE77FEA625307D150EA01331EBF4FF072
:100B5000FE4040F44000704701F0004040F0FE408D
:100B600040F40000704700BF38B505460C4600222F
:100B7000002328462146FFF721FF28B928462146B1
:100B8000BDE8384000F00AB8284604F1004100F002
:100B900005F8404261EB410138BD00BFD0B50022ED
:100BA0000B4B06460F46FFF797FCFFF76DFF044619
:100BB000FFF718FC0022074BFFF78EFC02460B469E
:100BC00030463946FFF7D0FAFFF75EFF2146D0BD29
:100BD0000000F03D0000F0412DE9F04188B0002414
:100BE00004940594069407943A4B9A6942F02002C3
:100BF0009A619A6902F020020192019A9A6942F080
:100C000004029A619A6902F004020292029A9A69B5
:100C100042F008029A619B6903F008030393039B67
:100C20002D4E22461021304603F0E2FA2B4D22468B
:100C30000321284603F0DCFA102304934FF0010847
:100C4000CDF814800694022707970DEB0301304678
:100C500003F0BCF903230493CDF81480069407979E
:100C600004A9284603F0B2F94FF4004304931C4F43
:100C70000597069404A9304603F0A8F93823049395
:100C80000597069404A9284603F0A0F922460521F9
:100C9000092003F045FB092003F07AFB22460521D9
:100CA0000A2003F03DFB0A2003F072FB22460521D7
:100CB000172003F035FB172003F06AFB22460521BD
:100CC000282003F02DFB282003F062FB08B0BDE8CC
:100CD000F08100BF0010024000080140000C0140FC
:100CE0000000111008B54FF0FF310A4B186806F0EC
:100CF00024FE68B94FF0FF31064B186806F01DFE60
:100D00000028F7D1044B1968044807F08BFFF1E77E
:100D100008BD00BF700500206C0500207C0300208A
:100D200008B54FF47A7006F0DDFD0D4B93F868308E
:100D3000012BF6D10B4B93F89C32032BF1D0084CCE
:100D4000094D00226189284603F052FA0122A18947
:100D5000284603F04DFA022384F86830E1E700BF2B
:100D60007C03002010080020000C014008B5012081
:100D700006F0B8FDFBE7000008B54FF0FF31094B66
:100D8000186806F0DAFD58B94FF0FF31054B1868C6
:100D900006F0D3FD0028F7D1034807F0E9FEF3E79A
:100DA00008BD00BF680500207C03002008B54FF097
:100DB000FF31094B186806F0C0FD58B94FF0FF31FC
:100DC000054B186806F0B9FD0028F7D1034807F075
:100DD000EBFEF3E708BD00BF6C0500207C0300209C
:100DE00008B5124B1B8883420FD0104B5B8883429F
:100DF00013D00E4B9B88834213D00C4BDB8883426D
:100E000006D10A4B04221A7202E0084B01221A7220
:100E1000074B186806F0C0FD08BD044B02221A7289
:100E2000F6E7024B03221A72F2E700BF7C030020B0
:100E30006805002008B502680E4B1B689A4200D076
:100E400008BD0D4B93F87A202E2A0DD093F87B1015
:100E5000481C83F87B000B4483F87C20012207495F
:100E6000044805F022FBEBE7034B002283F87B20CC
:100E7000F4E700BF240500207C030020F6030020D7
:100E8000074B1B7823B1064A1378013BDBB2137082
:100E9000044A13781378013BDBB21370704700BF2C
:100EA000780300207903002010B5044602680E4B39
:100EB0009A4204D022680C4B9A4203D010BD02F033
:100EC00083FCF7E7094A13780133DBB21370137818
:100ED000DBB2092B02D802F077FCEFE713460022C1
:100EE0001A70FFF7CDFFF6E7002C014068030020E1
:100EF00072B6FEE708B50A480A4B03600A4B436026
:100F000000238360C3604FF48042026143618361C8
:100F1000C361036203F012FC00B908BDFFF7E8FFEC
:100F20007804002000540040A086010008B50D4858
:100F30000D4B03604FF48273436000238360C360F2
:100F4000036143614FF4007282612022C261036237
:100F5000436283620A23C36204F062FB00B908BDE6
:100F6000FFF7C6FFCC0400200030014008B50A4856
:100F70000A4B03604FF4E133436000238360C36096
:100F800003610C2242618361C36105F053F800B92B
:100F900008BDFFF7ADFF00BF24050020004400405E
:100FA00000B595B0282200210DEB020008F0A2FF49
:100FB00000230593069307930893099301930293E3
:100FC0000393049301220A924FF480330B930E9201
:100FD0000222119212934FF4E01313930AA802F025
:100FE0002FFCC0B90F23059302210691002307931C
:100FF0004FF480620892099305A802F061FE60B97F
:10100000102301930023049301A802F053FF30B989
:1010100015B05DF804FBFFF76BFFFFF769FFFFF703
:1010200067FF000000B5A7B002F0BCFBFFF7B8FFF8
:10103000FFF7D2FDFFF75EFFFFF778FFFFF796FFA0
:1010400008F0FCF900F01EFA3F4C204607F070FD56
:101050003E48E0663E4B6366012204F17A0105F0EA
:1010600024FA002524952595012124A806F041FCA9
:10107000384B1860012124A806F03BFC364B186061
:10108000012124A806F035FC344B1860344C0DF1D6
:10109000740CA646BEE80F00ACE80F009EE80700FF
:1010A0008CE8070029461DA806F0E7FB2D4B1860C9
:1010B0000DF1580C04F11C0EBEE80F00ACE80F0057
:1010C0009EE807008CE80700294616A806F0D5FB25
:1010D000254B18600DF13C0C04F1380EBEE80F00F2
:1010E000ACE80F009EE807008CE8070029460FA82F
:1010F00006F0C3FB1D4B18600DF1200C04F1540EDB
:10110000BEE80F00ACE80F009EE807008CE807007F
:10111000294608A806F0B1FB154B18600DF1040E26
:1011200004F1700CBCE80F00AEE80F009CE807006B
:101130008EE80700294601A806F09FFB0D4B1860BA
:1011400006F096FBFEE700BF7C030020240500208C
:101150001008002070050020680500206C050020A4
:1011600070F0000874040020740300206403002061
:101170006C03002070030020034B0360034B0B60E3
:1011800080231360704700BF74070020740500209F
:10119000FEE7FEE7FEE7FEE7FEE7704708B508203A
:1011A00003F02CF808BD08B5102003F027F808BD9F
:1011B00008B5024801F0DBF808BD00BFD40C0020E0
:1011C00008B5202003F01AF808BD000008B5024851
:1011D00004F040FD08BD00BFC807002008B5024864
:1011E00004F06AF808BD00BF7804002008B5024882
:1011F00004F032F908BD00BF7804002008B50248A9
:1012000004F062FC08BD00BFCC04002008B5024811
:1012100005F02EF808BD00BF2405002008B54FF4E6
:10122000004002F0EBFF08BD00B583B0114B9A6996
:1012300042F001029A619A6902F001020092009A5A
:10124000DA6942F08052DA61DB6903F0805301937E
:10125000019B00220F216FF0010003F061F8064AA4
:10126000536823F0E06343F00073536003B05DF80C
:1012700004FB00BF001002400000014010B586B022
:10128000002302930393049305930268194B9A4237
:1012900001D006B010BD184CA36943F00803A36148
:1012A000A36903F008030093009BC0230293122359
:1012B00003930323059302A9104802F087FEE36914
:1012C00043F40013E361E36903F400130193019B0A
:1012D000002205211F2003F023F81F2003F058F8F7
:1012E00000220521202003F01BF8202003F050F8F5
:1012F000CFE700BF0054004000100240000C014046
:1013000030B587B0002302930393049305930268DA
:101310001A4B9A4201D007B030BD03F560439A6979
:1013200042F480529A619A6902F480520092009AC3
:101330009A6942F004029A619B6903F004030193E5
:10134000019BA023029302230393032305930C4DD7
:1013500002A9284602F03AFE402302930024039497
:10136000049402A9284602F031FE224605212320DA
:1013700002F0D6FF232003F00BF8CCE70030014049
:101380000008014030B587B0002302930393049313
:10139000059302681B4B9A4201D007B030BD03F59C
:1013A000E633DA6942F40032DA61DA6902F40032D3
:1013B0000092009A9A6942F004029A619B6903F0D4
:1013C00004030193019B0423029302230393032349
:1013D00005930D4D02A9284602F0F8FD082302935B
:1013E0000024039404940DEB0301284602F0EEFD63
:1013F00022460521262002F093FF262002F0C8FF96
:10140000CBE700BF004400400008014000B589B0B0
:1014100001460022192002F083FF192002F0B8FFD4
:10142000144B9A6942F400629A619B6903F4006369
:101430000193019B02A903A802F01EFD02F00CFD1E
:101440000D4BA3FB00239B0C013B0C480C4A026094
:1014500040F2E732C260436000230361836004F01E
:10146000F1FC18B1012009B05DF804FB034804F059
:10147000B9FBF8E70010024083DE1B43C8070020D9
:10148000002C014008B500220F49104806F042FD2B
:1014900070B90F490D4806F054FD60B90D490B486D
:1014A00007F03FFB50B9094806F052FD48B908BDA6
:1014B000FFF71EFDEDE7FFF71BFDEFE7FFF718FD58
:1014C000F1E7FFF715FDF2E700000020100800200B
:1014D0008C0000206C00002012230B800048704715
:1014E0001C00002004230B800048704730000020BF
:1014F000002393421ED200B510E00CF1370C01F826
:1015000013C000014FEA430C0CF1010C4FF0000E28
:1015100001F80CE00133DBB2934209D24FEA107CB0
:10152000B0F1204FE9D20CF1300C01F813C0E8E71C
:101530005DF804FB7047000038B50B4BD3F8E807A3
:10154000D3F8EC47D3F8F037C01800D138BD074DB9
:101550000822A91CFFF7CCFF042205F11201204646
:10156000FFF7C6FFF2E700BF00F0FF1F34000020C6
:1015700008B51A230B80FFF7DFFF014808BD00BF45
:101580003400002008B50A4628B90549054807F087
:1015900036F9034808BD0249024807F030F9F8E778
:1015A000D40A002064F1000810B50A46034C214615
:1015B000034807F024F9204610BD00BFD40A0020DC
:1015C0006CF1000808B50A4628B90549054807F036
:1015D00016F9034808BD0249024807F010F9F8E778
:1015E000D40A002080F1000808B50A4628B9054948
:1015F000054807F004F9034808BD0249024807F00E
:10160000FEF8F8E7D40A002094F1000800207047A3
:101610000020704710B50F4BD3F8B802002305E047
:10162000C15C0D4A1A4491730133DBB23F2BF7D9E9
:101630004022002108F05EFC084B00241C605C6026
:101640009C60DC60C3F80F40054B186806F0A4F9F5
:10165000204610BD100800207C030020CA03002093
:1016600070050020022805D8DFE800F0050402001C
:10167000012070470220704702680E4B9A4200D04A
:10168000704700B583B003F5DA33DA6942F400023B
:10169000DA61DB6903F400030193019B0022052159
:1016A000142002F03DFE142002F072FE03B05DF83B
:1016B00004FB00BF005C004008B500F52C71D0F8B9
:1016C000E80206F05DFC08BD08B501EB810300EB04
:1016D000C303D3F87C21D0F8E80206F07EFC08BDF5
:1016E00008B501EB810300EBC303DA6BD0F8E80225
:1016F00006F0B9FC08BD08B5D0F8E80206F05AFDBE
:1017000008BD10B504468368022B09D10121D4F825
:10171000E80206F038FDD4F8E80206F00CFD10BD32
:10172000FFF7E6FBF2E7000010B50446D0F8E80248
:1017300006F02CFDA36923B1024A136943F00603A6
:10174000136110BD00ED00E008B5D0F8E80206F026
:1017500026FD08BD10B504461948C0F8E842C4F893
:10176000C002184B036008234360022383600023F8
:101770008361C361036200F015F9E8B91823002200
:101780001146D4F8C00201F011F85823002280213C
:10179000D4F8C00201F00AF8982300228121D4F87D
:1017A000C00201F003F8D82300220121D4F8C002BE
:1017B00000F0FCFF002010BDFFF79AFBDEE700BF42
:1017C000D40C0020005C004008B5D0F8C00200F046
:1017D00075F9FFF747FF08BD08B594461A466346FA
:1017E000D0F8C00200F0ADFEFFF73CFF08BD08B521
:1017F000D0F8C00200F0E7FEFFF734FF08BD08B5DF
:10180000D0F8C00200F05BFFFFF72CFF08BD08B561
:10181000D0F8C00200F08FFFFFF724FF08BDD0F81A
:10182000C03211F0800F08D101F07F0101EB81017E
:1018300003EBC10191F86A01704701F07F010131AA
:1018400001EB810103EBC1018878704708B5D0F83E
:10185000C00200F078FDFFF705FF08BD08B5D0F81D
:10186000C00200F004FFFFF7FDFE08BD08B5D0F888
:10187000C00200F0DAFEFFF7F5FE08BD0048704731
:10188000C00F00207047704738B512F4804F44D025
:101890000468B4F850309BB291F800C003EBCC035D
:1018A000023304EB4303B3F80044C4F309048B6927
:1018B000A34228D31B1B8B618B697BB9056835F864
:1018C0002C309BB223F4804323F0700383F4005345
:1018D00043F4004343F0800325F82C3012F0400F0E
:1018E0000ED002680D7832F825309BB223F4E04325
:1018F00023F0700343F4004343F0C00322F8253083
:1019000024B9204638BD00238B61D5E723460A89D8
:101910004969006801F02DFFF3E70468B4F850301E
:101920009BB291F800C003EBCC03063304EB4303F6
:10193000B3F80044C4F309048B69A3422FD31B1BE3
:101940008B618B697BB9056835F82C309BB223F429
:10195000804323F0700383F4005343F4004343F0C7
:10196000800325F82C3012F0400F0FD1026891F857
:1019700000C032F82C309BB223F4E04323F0700314
:1019800043F4004343F0C00322F82C30002CB8D0BD
:1019900023464A894969006801F0EBFEB1E700235C
:1019A0008B61CEE770B586B0002800F085800446D4
:1019B00090F8A932EBB1032384F8A932206800F033
:1019C00021FF254655F8106BEC460FCDACE80F0013
:1019D0002B68CCF80030231D0ECB304600F002FF00
:1019E000054658B1022384F8A9320125284606B0DD
:1019F00070BD80F8A832FFF73FFEDCE700212068C9
:101A000000F00AFF2B461AE05A1C02EB820104EB9D
:101A1000C1010120487002EB820104F8313003EB70
:101A2000830104EBC101CB8602EB820C04EBCC0CEE
:101A300000208CF803008863C8630864D3B261682F
:101A40008B42E1D316E005EB850304EBC3030022D0
:101A500083F8692183F8685183F86B21C3F87821F2
:101A6000C3F87C2105EB850304EBC303C3F8802195
:101A70000135EDB2A942E6D8254655F8106BEC4683
:101A80000FCDACE80F002B68CCF80030231D0ECB37
:101A9000304600F0C3FE054620B1022384F8A93287
:101AA0000125A3E7002384F82430012384F8A93218
:101AB000206801F0E9F999E7012597E738B590F832
:101AC000A832012B11D00446012580F8A8520068E5
:101AD00000F08FFE29462046FFF7D5FE206801F072
:101AE000D1F9002084F8A80238BD0220FCE770B5C7
:101AF00005460C46164612F0400F00F00D810268B4
:101B0000B2F850309BB2097803EBC103023302EB09
:101B10004303B3F80024C2F30902A369934252D9E4
:101B20009B1AA361A369002B6AD16378002B4DD166
:101B30002B68B3F8502092B2134403EB0111B1F8B3
:101B400004349BB223F4F8439BB2A1F80434B1F8F7
:101B500004346FEA43436FEA53439BB2A1F8043461
:101B60002B686278002A3ED1B3F8502092B2134419
:101B7000227803EB0213B3F80C2492B222F4F84259
:101B800092B2A3F80C24B3F80C246FEA42426FEA35
:101B9000524292B2A3F80C2421782846FFF7A0FD08
:101BA00016F4804F41D02A68217832F821309BB258
:101BB00023F4E04323F0700343F4404343F08003F5
:101BC00022F8213031E00023A361ABE7012BC7D11C
:101BD0002B68B3F8502092B2134403EB0111002399
:101BE000A1F80434BCE7012AD6D1B3F8502092B250
:101BF0001344227803EB02130022A3F80C24CBE752
:101C000016F4804F0DD0286830F821309BB223F4B1
:101C1000E04323F0700343F4404343F0800320F893
:101C2000213094F82430012B12D02A68217832F820
:101C300021309BB223F4E04323F0400383F03003D0
:101C400043F4004343F0800322F82130002070BDAC
:101C5000636913446361E3691344E361216A23699F
:101C600099421FD3C91A21626278002A3FD12A689B
:101C7000B2F8501089B20A44217802EB0112EBB994
:101C8000B2F8041489B221F4F84189B2A2F804141C
:101C9000B2F804146FEA41416FEA514189B2A2F8E7
:101CA000041426E021B9002384F824301346DBE72E
:101CB000002384F8243023620B46D5E73E2B09D855
:101CC000590813F0010F00D00131890289B2A2F83E
:101CD00004140EE0590913F01F0F00D101396FEA07
:101CE000C1616FEA514189B2A2F8041401E0012AEE
:101CF00006D09BB222896169286801F0CDF894E78B
:101D00002A68B2F8501089B20A44217802EB011215
:101D100099B2A2F80414ECE70268B2F850309BB212
:101D2000097803EBC103063302EB4303B3F8002445
:101D3000C2F30902A369934253D39B1AA361A36917
:101D4000002B6BD16378002B4ED12B68B3F8502059
:101D500092B2134403EB0111B1F804349BB223F4A3
:101D6000F8439BB2A1F80434B1F804346FEA43435A
:101D70006FEA53439BB2A1F804342B686278002ABF
:101D80003FD1B3F8502092B21344227803EB0213F0
:101D9000B3F80C2492B222F4F84292B2A3F80C24C5
:101DA000B3F80C246FEA42426FEA524292B2A3F8AF
:101DB0000C2421782846FFF793FC16F4804F7FF41B
:101DC00034AF2A68217832F821309BB223F4E04303
:101DD00023F0700343F4404343F0800322F82130A2
:101DE00023E70023A361AAE7012BC6D12B68B3F830
:101DF000502092B2134403EB01110023A1F80434E4
:101E0000BBE7012AD5D1B3F8502092B2134422780F
:101E100003EB02130022A3F80C24CAE716F4804F48
:101E20000DD1286830F821309BB223F4E04323F031
:101E3000700343F4404343F0800320F8213094F8CA
:101E40002430012B7FF4F1AE636913446361E369CD
:101E50001344E361216A236999421FD3C91A21629D
:101E60002A68617800293ED1B2F8501089B20A443C
:101E7000217802EB0112EBB9B2F80C1489B221F40B
:101E8000F84189B2A2F80C14B2F80C146FEA41417F
:101E90006FEA514189B2A2F80C1426E021B900235F
:101EA00084F824301346DBE70023236284F82430CF
:101EB0000B46D5E73E2B09D8590813F0010F00D087
:101EC0000131890289B2A2F80C140EE0590913F00D
:101ED0001F0F00D101396FEAC1616FEA514189B228
:101EE000A2F80C1401E0012906D09BB26289616955
:101EF000286800F0D1FF98E6B2F8501089B20A4481
:101F0000217802EB011299B2A2F80C14EDE72DE949
:101F1000F04105462868B0F8443013F4004F00F053
:101F20000F82B0F84440A3B214F00F0440F0D88000
:101F300013F0100F61D003889AB213F4006F40F0D1
:101F4000938012F4004FE5D0038823F070031B0543
:101F50001B0D43F0800303802868B0F850309BB21B
:101F600095F8682103EBC203063300EB4303B3F893
:101F70000034C3F30903C5F884318BB1D5F87C1163
:101F800071B1B5F86E2101F0F4FBD5F88421D5F8D4
:101F90007C311344C5F87C3100212846FFF794FBBF
:101FA0002B681A8812F4006FB4D1B3F8502092B2A3
:101FB0001344D5F87821002A79D1B3F80C2492B2D1
:101FC00022F4F84292B2A3F80C24B3F80C246FEA7E
:101FD00042426FEA524292B2A3F80C242A68138854
:101FE0009BB223F4804323F0700383F4405343F403
:101FF000004343F0800313808CE703889BB223F4F3
:10200000E14323F070036FEA43436FEA53439BB20B
:1020100003802A68B2F850309BB295F8281003EB81
:10202000C103023302EB4303B3F80034C3F30903E3
:102030006B64EA6B1344EB6300212846FFF750FB07
:1020400095F82430002B3FF465AF2B6C002B7FF408
:1020500061AF95F824302A6843F08003A2F84C3031
:10206000002385F8243055E7B0F850309BB295F83E
:10207000682103EBC203063300EB4303B3F80034DB
:10208000C3F30903C5F88431B5F86E2105F52C7149
:1020900001F06FFB2A68138823F070031B051B0DEA
:1020A00043F0800313802846FFF706FB32E73E2A01
:1020B00009D8510812F0010F00D001318A0292B202
:1020C000A3F80C248AE7510912F01F0F00D101393F
:1020D0006FEAC1626FEA524292B2A3F80C247DE724
:1020E00030F824309EB213F4004F4FD116F0800F19
:1020F0003FF410AF621C02EB820105EBC1012868BE
:1021000030F824309BB223F4E14323F070036FEAEC
:1021100043436FEA53439BB220F82430CB78032B20
:1021200007D033B1022B40F0068116F4807F40F0D7
:1021300002812868B0F850309BB2621C02EB820228
:1021400015F8326003EBC603023300EB4303B3F828
:102150000034C3F3090304EB840205EBC202126CE2
:102160009A4240F2D48004EB840705EBC707D21AE9
:102170003A6404EB840205EBC202126C002A40F0C0
:10218000CD8031462846FFF7ABFAC3E630F824305D
:1021900023F070031B051B0D43F0800320F824304F
:1021A00004EB8401C90001F5B47105EB010804EBEF
:1021B000840305EBC30393F87431002B42D12868E4
:1021C000B0F850309BB204EB840205EBC20292F8E7
:1021D000682103EBC203063300EB4303B3F800743A
:1021E000C7F3090717BB04EB840305EBC303D3F85C
:1021F00084213A44C3F88421D3F87C213A44C3F8BB
:102200007C21D3F880313BB104EB840305EBC3039D
:10221000D3F878319F4275D204EB840305EBC303F6
:1022200093F868112846FFF74FFA5FE704EB840143
:1022300005EBC1013B46B1F86E21D1F87C1101F0EC
:1022400098FAD0E704EB840305EBC30393F86B31F2
:10225000022B35D0296804EB840205EBC20292F808
:10226000680131F820309BB223F4E04323F070037F
:1022700043F4004343F0C00321F82030286892F86B
:10228000682130F8223013F4804F20D0B0F850305D
:102290009BB203EBC203023300EB4303B3F80074B9
:1022A000C7F30907002F9ED004EB840105EBC101A1
:1022B0003B46B1F87021D1F87C1101F05AFA92E74F
:1022C000324641462846FFF7DFFA07468BE7B0F86B
:1022D00050309BB203EBC203063300EB4303B3F869
:1022E0000074C7F30907002F3FF47DAF04EB8401AE
:1022F00005EBC1013B46B1F87221D1F87C1101F028
:1023000038FA70E74146286800F0DAFDEEE604EBA3
:10231000840205EBC202002717642AE704EB84025B
:1023200005EBC202D66B1E44D663546C234453643F
:1023300000F0C6FDEEE532462846FFF7D8FBE9E59A
:102340000020BDE8F08190F8A832012B0DD010B527
:102350000446012380F8A83280F82410006800F0B9
:102360008BFD002084F8A80210BD0220704710B534
:1023700084B00446006800F089FD10F4004F47D196
:10238000206800F083FD10F4806F45D1206800F0D4
:102390007DFD10F4804F08D02268B2F844309BB223
:1023A00023F480439BB2A2F84430206800F06EFD15
:1023B00010F4005F08D02268B2F844309BB223F4D6
:1023C00000539BB2A2F84430206800F05FFD10F487
:1023D000805F32D1206800F059FD10F4006F78D191
:1023E000206800F053FD10F4007F40F09D802068CD
:1023F00000F04CFD10F4807F08D02268B2F8443021
:102400009BB223F480739BB2A2F8443004B010BD99
:102410002046FFF77CFDB3E72268B2F844309BB258
:1024200023F480639BB2A2F844302046FFF769F999
:1024300000212046FFF787FFA8E72268B2F8403066
:102440009BB223F004039BB2A2F840302268B2F89A
:1024500040309BB223F008039BB2A2F840302046E4
:10246000FFF772F92268B2F844309BB223F480532C
:102470009BB2A2F84430ADE7226832F8231004AAD8
:1024800002EB430222F8101C0133DBB2072BF3D915
:102490002268B2F840309BB243F00103A2F840300A
:1024A0002268B2F840309BB223F001039BB2A2F83D
:1024B00040302368B3F8442012F4806FF9D0B3F8A9
:1024C000442092B222F4806292B2A3F84420002306
:1024D0000BE00023DAE7226804A901EB430131F89D
:1024E000101C22F823100133DBB2072BF3D922682A
:1024F000B2F840309BB243F00803A2F840302268A3
:10250000B2F844309BB223F400639BB2A2F844308B
:102510002268B2F840309BB243F00403A2F8403086
:102520002046FFF701F95BE72268B2F844309BB21E
:1025300023F400739BB2A2F844302046FFF7DBF887
:1025400055E710B504468C4611F0800F2AD101F0F2
:10255000070000EB8001C90001F5B47E04EB0E0119
:1025600000EB800004EBC0004FF0000E80F869E142
:102570000CF0070C81F800C00A61CB704A780AB1F0
:10258000A1F80EC0022B19D094F8A832012B18D054
:10259000012384F8A832206800F051F9002084F863
:1025A000A80210BD01F00700013000EB800104EB30
:1025B000C1014FF0010E81F801E0D9E700230B7152
:1025C000E2E70220EDE710B504460B4611F0800F5C
:1025D0001FD101F0070202EB8201C90001F5B471BD
:1025E000014402EB820200EBC202002082F8690182
:1025F00003F007030B7094F8A832012B13D00123CA
:1026000084F8A832206800F0D6FA002084F8A802E6
:1026100010BD01F00702013202EB820100EBC101A3
:1026200001204870E4E70220F2E710B501F007044A
:1026300004EB8401C90001F5B471014404EB840C7E
:1026400000EBCC0CCCF87C21CCF880310023CCF80A
:1026500084318CF869318CF8684124B9006800F045
:102660002FFC002010BD006800F02AFCF9E710B52F
:1026700001F0070404F1010C0CEB8C0100EBC1012B
:1026800004EB840E00EBCE0ECEF83C20CEF84030AA
:1026900001228EF84C20CEF848300023CEF844308A
:1026A0004A700CEB8C0C00F83C4024B9006800F038
:1026B00007FC002010BD006800F002FCF9E738B507
:1026C00001F007054268954231D804460B4611F0E7
:1026D000800F1ED101EB8101C90001F5B4710144E5
:1026E00003EB830300EBC303002283F8692101237A
:1026F0008B700D7094F8A832012B1AD0012384F846
:10270000A832206800F042FB5DB1002084F8A802E6
:1027100038BD6B1C03EB830100EBC10101224A7041
:10272000E5E704F52C71206800F0B4FBEDE701202B
:10273000EEE70220ECE70B4601F00F014268914200
:1027400030D810B5044613F0800F21D103F00702F2
:1027500002EB8201C90001F5B471014402EB82026F
:1027600000EBC202002082F8690100228A7003F0A7
:1027700007030B7094F8A832012B15D0012384F8BD
:10278000A832206800F027FB002084F8A80210BDC2
:1027900003F00702013202EB820100EBC1010120CC
:1027A0004870E2E7012070470220F0E711F0800F47
:1027B0000BD001F00701013101EB810100EBC101F8
:1027C00052B90A73CB800020704701EB8101C90028
:1027D00001F5B4710144F3E701220A730B811B0C6C
:1027E0004B81F0E784B001A880E80E00002004B01F
:1027F000704703460020A3F844004FF43F42A3F87B
:1028000040207047B0F8403023F47C535B045B0CED
:10281000A0F84030002070470020704784B0844604
:1028200001A880E80E000123ACF840300020ACF88D
:102830004000ACF84400ACF8500004B0704710B54C
:10284000034691F800C030F82C2092B222F4EC42FA
:1028500022F0700292B2C878032861D8DFE800F055
:10286000555C0258002048F2800E42EA0E0223F81E
:102870002C2091F800C033F82C2092B222F4E042D0
:1028800022F070024CEA020242EA0E0223F82C20E7
:102890000A7B002A40F0C4804A78002A51D0B3F85D
:1028A000502092B21A440C7802EB0412B1F806C020
:1028B0004FEA5C0C4FEA4C0CA2F800C40C7833F8D9
:1028C000242012F0400F0CD033F8242092B222F4CE
:1028D000E04222F0700242F4004242F0C00223F8CB
:1028E0002420CA78012A1DD0097833F8212092B219
:1028F00022F4E04222F0400282F0200242F4004240
:1029000042F0800223F821206AE042F40072AAE734
:1029100042F4C0620020A6E742F480620020A2E7F1
:102920000120A0E7097833F8212092B222F4E04296
:1029300022F0400242F4004242F0800223F82120BB
:102940004EE0B3F8502092B21A440C7802EB041215
:10295000B1F806C04FEA5C0C4FEA4C0CA2F808C470
:10296000B3F8502092B21A440C7802EB04120C69AE
:10297000BCBBB2F80CC41FFA8CFC2CF4F84C1FFA48
:102980008CFCA2F80CC4B2F80CC46FEA4C4C6FEA91
:102990005C4C1FFA8CFCA2F80CC40C7833F8242091
:1029A00012F4804F0CD033F8242092B222F4E0428B
:1029B00022F0700242F4404242F0800223F82420C8
:1029C000097833F8212092B222F4804222F070027A
:1029D00082F4405242F4004242F0800223F8212067
:1029E00010BD3E2C0DD84FEA540C14F0010F01D04D
:1029F0000CF1010C4FEA8C2C1FFA8CFCA2F80CC4D1
:102A0000CBE74FEA541C14F01F0F01D10CF1FF3C2F
:102A10006FEACC646FEA5444A4B2A2F80C44BCE759
:102A200091F800C033F82C2092B222F4E04222F058
:102A3000700242F4014242F0800223F82C20B3F8E5
:102A4000502092B21A4491F800C002EB0C12B1F877
:102A500008C04FEA5C0C4FEA4C0CA2F800C4B3F873
:102A6000502092B21A4491F800C002EB0C12B1F857
:102A70000AC04FEA5C0C4FEA4C0CA2F808C44A7832
:102A8000002A41D10C7833F8242012F4804F0CD066
:102A900033F8242092B222F4E04222F0700242F491
:102AA000404242F0800223F824200C7833F824209E
:102AB00012F0400F0CD033F8242092B222F4E042FE
:102AC00022F0700242F4004242F0C00223F82420B7
:102AD00091F800C033F82C2092B222F4804222F008
:102AE000700282F4405248F28004224323F82C20E2
:102AF000097833F8212092B222F4E04222F0400219
:102B0000224323F821206BE70C7833F8242012F4B9
:102B1000804F0CD033F8242092B222F4E04222F00D
:102B2000700242F4404242F0800223F824200C78E4
:102B300033F8242012F0400F0CD033F8242092B246
:102B400022F4E04222F0700242F4004242F0C0025D
:102B500023F82420CA78012A1ED00C7833F82420C8
:102B600092B222F4E04222F0400282F0200242F4CB
:102B7000004242F0800223F82420097833F8212013
:102B800092B222F4804222F0700242F4004242F0FB
:102B9000800223F8212023E70C7833F8242092B216
:102BA00022F4E04222F0400242F4004242F080026D
:102BB00023F82420E1E70B7B002B46D14B7813B39D
:102BC0000A7830F8223013F0400F0CD030F8223061
:102BD0009BB223F4E04323F0700343F4004343F03B
:102BE000C00320F822300A7830F822309BB223F458
:102BF000E04323F0400343F4004343F0800320F814
:102C00002230002070470A7830F8223013F4804FC9
:102C10000CD030F822309BB223F4E04323F0700351
:102C200043F4404343F0800320F822300A7830F820
:102C300022309BB223F4804323F0700343F400431B
:102C400043F0800320F82230DBE74B78002B4ED195
:102C50000A7830F8223013F4804F0CD030F822304C
:102C60009BB223F4E04323F0700343F4404343F06A
:102C7000800320F822300A7830F8223013F0400F19
:102C80000CD030F822309BB223F4E04323F07003E1
:102C900043F4004343F0C00320F822300A7830F8B0
:102CA00022309BB223F4E04323F0700343F400434B
:102CB00043F0C00320F822300B7830F8232092B282
:102CC00022F4804222F0700248F2800C42EA0C02A8
:102CD00020F823200A7830F822309BB223F4E04316
:102CE00023F0400343EA0C0320F8223089E70A78F6
:102CF00030F8223013F4804F0CD030F822309BB2E1
:102D000023F4E04323F0700343F4404343F0800393
:102D100020F822300A7830F8223013F0400F0CD01F
:102D200030F822309BB223F4E04323F0700343F4E5
:102D3000004343F0C00320F822300A7830F82230F4
:102D40009BB223F4E04323F0700343F4404343F089
:102D5000800320F822300B7830F8232092B222F43E
:102D6000E04222F0400248F2800C42EA0C0220F8D5
:102D700023200A7830F822309BB223F4804323F0DA
:102D8000700343EA0C0320F822303AE74B788BB10A
:102D90000A7830F822309BB223F4E04323F040035A
:102DA00083F0100343F4004343F0800320F8223003
:102DB000002070470A7830F822309BB223F4804319
:102DC00023F0700383F4805343F4004343F0800303
:102DD00020F82230ECE70B7B002B4BD14B7833B340
:102DE0000A7830F8223013F0400F0CD030F822303F
:102DF0009BB223F4E04323F0700343F4004343F019
:102E0000C00320F82230CB78012B33D00A7830F879
:102E100022309BB223F4E04323F0400383F02003ED
:102E200043F4004343F0800320F8223022E00A7884
:102E300030F8223013F4804F0CD030F822309BB29F
:102E400023F4E04323F0700343F4404343F0800352
:102E500020F822300A7830F822309BB223F48043E5
:102E600023F0700383F4405343F4004343F08003A2
:102E700020F822300020704711B98023A0F84C3090
:102E8000002070470020704700207047B0F84400D1
:102E900080B270470020704710B45C1C640800EBDF
:102EA000420202F5806207E00B78487843EA00238B
:102EB00022F8043B0231013C002CF5D110BC7047D4
:102EC00070B505460C464B78012B37D00A7B002A9B
:102ED00040F026838B690A69934240F204839B1A6F
:102EE0008B61B5F850309BB22B44217803EB011372
:102EF000002A40F0FC82B3F80C2492B222F4F8428B
:102F000092B2A3F80C24B3F80C246FEA42426FEAA1
:102F1000524292B2A3F80C24227835F822309BB2A8
:102F200023F4804323F0700383F4405343F40043BD
:102F300043F0800325F82230002070BD8E690A69B5
:102F4000964200D91646237B002B39D0E378022B1A
:102F500058D0227835F822309BB223F4E04323F096
:102F6000700343F4014343F0800325F82230236AC1
:102F70009B1B2362237835F8232012F0400F00F0CA
:102F800026826278002A40F0CA81B5F8502092B2B9
:102F90002A4402EB0313002E40F0A881B3F80C245E
:102FA00092B222F4F84292B2A3F80C24B3F80C24A3
:102FB0006FEA42426FEA524292B2A3F80C24B0E1A7
:102FC000B6B23346E28861692846FFF765FFB5F877
:102FD00050309BB22B44227803EB0213A3F8046415
:102FE000227835F822309BB223F4E04323F04003EB
:102FF00083F0300343F4004343F0800325F822308C
:1030000000209AE7236A9A4280F05281227835F8AC
:1030100022309BB223F4E04323F0700343F40143D6
:1030200043F0800325F82230236A9B1B2362237818
:1030300035F8232012F0400F00F09D8062788ABBA3
:10304000B5F8502092B22A4402EB03138EB9B3F8BC
:103050000C2492B222F4F84292B2A3F80C24B3F8F2
:103060000C246FEA42426FEA524292B2A3F80C2457
:103070001AE03E2E09D8720816F0010F00D0013276
:10308000920292B2A3F80C240EE0720916F01F0F00
:1030900000D1013A6FEAC2626FEA524292B2A3F8DB
:1030A0000C2401E0012A2BD0B3B262896169284661
:1030B000FFF7F2FE636933446361236A2269934236
:1030C00028D99B1B23626378002B40D1B5F8503080
:1030D0009BB22B44227803EB0213FEB9B3F804240D
:1030E00092B222F4F84292B2A3F80424B3F8042472
:1030F0006FEA42426FEA524292B2A3F8042428E0F7
:10310000B5F8502092B22A4402EB0313B2B2A3F8EE
:103110000C24C9E7002222621E46D4E73E2E09D8BD
:10312000720816F0010F00D00132920292B2A3F899
:1031300004240EE0720916F01F0F00D1013A6FEA65
:10314000C2626FEA524292B2A3F8042401E0012B5A
:1031500006D0B3B2228961692846FFF79DFE3FE79A
:10316000B5F850309BB22B44227803EB0213B2B275
:10317000A3F80424EDE762788ABBB5F8502092B238
:103180002A4402EB03138EB9B3F8042492B222F45A
:10319000F84292B2A3F80424B3F804246FEA42423E
:1031A0006FEA524292B2A3F804241AE03E2E09D8E4
:1031B000720816F0010F00D00132920292B2A3F809
:1031C00004240EE0720916F01F0F00D1013A6FEAD5
:1031D000C2626FEA524292B2A3F8042401E0012ACB
:1031E0002BD0B3B2228961692846FFF755FE636987
:1031F00033446361236A2269934228D99B1B23626B
:103200006378002B40D1B5F850309BB22B44227824
:1032100003EB0213FEB9B3F80C2492B222F4F84285
:1032200092B2A3F80C24B3F80C246FEA42426FEA7E
:10323000524292B2A3F80C2428E0B5F8502092B282
:103240002A4402EB0313B2B2A3F80424C9E7002214
:1032500022621E46D4E73E2E09D8720816F0010FEE
:1032600000D00132920292B2A3F80C240EE072094F
:1032700016F01F0F00D1013A6FEAC2626FEA5242A4
:1032800092B2A3F80C2401E0012B06D0B3B26289FC
:1032900061692846FFF700FEA2E6B5F850309BB200
:1032A0002B44227803EB0213B2B2A3F80C24EDE70F
:1032B000217835F8212092B222F4E24222F0700205
:1032C00042F4004242F0800225F82120B5F8502057
:1032D00092B22A44217802EB01129BB2A2F8043484
:1032E000228961692846FFF7D7FD79E63E2E09D885
:1032F000720816F0010F00D00132920292B2A3F8C8
:103300000C240EE0720916F01F0F00D1013A6FEA8B
:10331000C2626FEA524292B2A3F80C2401E0012A81
:1033200026D0B3B2628961692846FFF7B5FD6369AB
:1033300033446361236A2269934223D99B1B23622E
:10334000002E3FF44DAE63786BBBB5F850309BB2A6
:103350002B44227803EB02133E2E17D8720816F086
:10336000010F00D00132920292B2A3F804241CE0B3
:10337000B5F8502092B22A4402EB0313B2B2A3F87C
:103380000C24CEE7002222621E46D9E7720916F00D
:103390001F0F00D1013A6FEAC2626FEA524292B245
:1033A000A3F8042401E0012B06D0B3B2228961699D
:1033B0002846FFF771FD13E6B5F850309BB22B4459
:1033C000227803EB0213B2B2A3F80424EDE762788B
:1033D0008ABBB5F8502092B22A4402EB03138EB98F
:1033E000B3F8042492B222F4F84292B2A3F804246F
:1033F000B3F804246FEA42426FEA524292B2A3F851
:1034000004241AE03E2E09D8720816F0010F00D0ED
:103410000132920292B2A3F804240EE0720916F06F
:103420001F0F00D1013A6FEAC2626FEA524292B2B4
:10343000A3F8042401E0012A26D0B3B222896169ED
:103440002846FFF729FD636933446361236A2269D3
:10345000934223D99B1B2362002E3FF4C1AD6378B6
:103460006BBBB5F850309BB22B44227803EB0213B0
:103470003E2E17D8720816F0010F00D001329202CA
:1034800092B2A3F80C241CE0B5F8502092B22A4462
:1034900002EB0313B2B2A3F80424CEE700222262A7
:1034A0001E46D9E7720916F01F0F00D1013A6FEAE4
:1034B000C2626FEA524292B2A3F80C2401E0012BDF
:1034C00006D0B3B2628961692846FFF7E5FC87E55B
:1034D000B5F850309BB22B44227803EB0213B2B202
:1034E000A3F80C24EDE700228A611A46F9E43E2A8B
:1034F00009D8510812F0010F00D00131890289B2B8
:10350000A3F80C1408E5510912F01F0F00D101397E
:103510006FEAC1616FEA514189B2A3F80C14FBE470
:10352000CA78022A45D0012A40F02081896922699F
:10353000914240F2D480891AA161D3B9B5F85030D4
:103540009BB22B44217803EB0113002A40F0CB807F
:10355000B3F8041489B221F4F84189B2A3F8041431
:10356000B3F804146FEA41416FEA514189B2A3F8FC
:1035700004146378002B40F0EA80B5F850309BB219
:103580002B44217803EB0113002A40F0C580B3F8E7
:103590000C2492B222F4F84292B2A3F80C24B3F8AD
:1035A0000C246FEA42426FEA524292B2A3F80C2412
:1035B000B2E4CBB9B0F850309BB203440A7803EBC5
:1035C00002130A6972BBB3F8042492B222F4F842DF
:1035D00092B2A3F80424B3F804246FEA42426FEADB
:1035E000524292B2A3F804246378002B4CD1B5F870
:1035F00050309BB22B44227803EB0213226952BB5A
:10360000B3F80C2492B222F4F84292B2A3F80C243C
:10361000B3F80C246FEA42426FEA524292B2A3F826
:103620000C2433E03E2A09D8510812F0010F00D0D3
:1036300001318A0292B2A3F80424D5E7510912F0AD
:103640001F0F00D101396FEAC1626FEA524292B294
:10365000A3F80424C8E73E2A09D8510812F0010F44
:1036600000D001318A0292B2A3F80C240EE0510975
:1036700012F01F0F00D101396FEAC1626FEA5242A6
:1036800092B2A3F80C2401E0012B1DD0E369002BBA
:103690003FF442AC227835F8221044F2400303EAAA
:1036A00001008B4302D000287FF436AC35F822307D
:1036B0009BB223F4E04323F0700343F4004343F050
:1036C000C00325F8223027E4B5F850309BB22B44D4
:1036D000227803EB0213228AA3F80C24D6E70022F7
:1036E000A2610A4629E73E2A09D8510812F0010FC3
:1036F00000D00131890289B2A3F8041439E75109D5
:1037000012F01F0F00D101396FEAC1616FEA514118
:1037100089B2A3F804142CE73E2A0AD8510812F003
:10372000010F00D001318A0292B2A3F80C24FFF7F6
:10373000F3BB510912F01F0F00D101396FEAC162CA
:103740006FEA524292B2A3F80C24FFF7E5BB012BBB
:103750007FF4E2ABB5F850309BB22B44217803EBF9
:10376000011392B2A3F80C24FFF7D6BB0120FFF798
:10377000E4BB10B45C0800EB420000F5806007E099
:1037800030F8042B0A70C2F307224A700231013C60
:10379000002CF5D113F0010F01D003880B7010BC81
:1037A0007047000008B5074A136843F01003136020
:1037B000032000F0A3FD0F20FDF728FEFDF734FDE8
:1037C000002008BD00200240034A1168034B1B780B
:1037D0000B441360704700BF181000207C000020CD
:1037E000014B1868704700BF1810002038B5044618
:1037F000FFF7F6FF0546B4F1FF3F02D0044B1B78FC
:103800001C44FFF7EDFF401BA042FAD338BD00BFB8
:103810007C00002082B0084B1B68084AA2FB0323EF
:103820005B0A00FB03F3019300BF019B5A1E019248
:10383000002BF9D102B0704784000020D34D6210F4
:10384000002800F0F18170B582B00446036813F0DF
:10385000010F2CD0994B5B6803F00C03042B1DD097
:10386000964B5B6803F00C03082B12D06368B3F52A
:10387000803F41D0002B55D103F1804303F5043341
:103880001A6822F480321A601A6822F480221A60C0
:1038900037E08A4B5B6813F4803FE7D0874B1B68A7
:1038A00013F4003F03D06368002B00F0BF8123684E
:1038B00013F0020F75D0814B5B6813F00C0F5FD0D3
:1038C0007E4B5B6803F00C03082B54D02369002B5C
:1038D00000F08A807A4B01221A60FFF781FF0546CB
:1038E000764B1B6813F0020F75D1FFF779FF401B71
:1038F0000228F5D903209EE1704A136843F480330F
:103900001360636843B3FFF76BFF05466B4B1B689F
:1039100013F4003FCBD1FFF763FF401B6428F5D9B8
:10392000032088E1B3F5A02F09D0644B1A6822F474
:1039300080321A601A6822F480221A60E1E703F1EB
:103940008043A3F53C331A6842F480221A601A6857
:1039500042F480321A60D4E7FFF742FF0546574B26
:103960001B6813F4003FA2D0FFF73AFF401B642806
:10397000F5D903205FE1514B5B6813F4803FA5D17B
:103980004E4B1B6813F0020F03D02369012B40F04C
:103990004F814A4A136823F0F803616943EAC1037F
:1039A0001360236813F0080F33D0A369002B5CD099
:1039B000434B0122C3F88024FFF712FF05463F4B1B
:1039C0005B6A13F0020F21D1FFF70AFF401B0228A8
:1039D000F5D903202FE1394A136823F0F803616910
:1039E00043EAC1031360DCE7354B00221A60FFF79E
:1039F000F7FE0546314B1B6813F0020FD1D0FFF7DD
:103A0000EFFE401B0228F5D9032014E10120FFF747
:103A100001FF236813F0040F00F09680274BDB6949
:103A200013F0805F34D1254BDA6942F08052DA61BD
:103A3000DB6903F080530193019B0125214B1B6837
:103A400013F4807F26D0E368012B3DD0002B53D1A7
:103A500003F1804303F504331A6A22F001021A626B
:103A60001A6A22F004021A6233E0154B0022C3F8EE
:103A70008024FFF7B5FE0546104B5B6A13F0020F7A
:103A8000C7D0FFF7ADFE401B0228F5D90320D2E0D6
:103A90000025D3E70B4A136843F480731360FFF7E4
:103AA0009FFE0646074B1B6813F4807FCBD1FFF7C0
:103AB00097FE801B6428F5D90320BCE0001002406B
:103AC00000004242007000405F4A136A43F0010365
:103AD0001362E36833B3FFF783FE06465A4B1B6A53
:103AE00013F0020F2FD1FFF77BFE801B41F28833CA
:103AF0009842F3D903209EE0052B09D0524B1A6A55
:103B000022F001021A621A6A22F004021A62E0E745
:103B10004D4B1A6A42F004021A621A6A42F001021C
:103B20001A62D6E7FFF75CFE0646474B1B6A13F0A6
:103B3000020F08D0FFF754FE801B41F288339842F1
:103B4000F3D9032077E0E5B9E369002B72D03E4A50
:103B5000526802F00C02082A56D0022B17D03B4BB9
:103B600000221A66FFF73CFE0446374B1B6813F031
:103B7000007F47D0FFF734FE001B0228F5D9032051
:103B800059E0314AD36923F08053D361DCE72F4BEE
:103B900000221A66FFF724FE05462B4B1B6813F024
:103BA000007F06D0FFF71CFE401B0228F5D903203A
:103BB00041E0236AB3F5803F1AD023494B6823F4D0
:103BC0007413226A606A024313434B601F4B012245
:103BD0001A66FFF705FE04461B4B1B6813F0007FB7
:103BE0000ED1FFF7FDFD001B0228F5D9032022E0CE
:103BF000154A536823F40033A1680B435360DCE794
:103C0000002018E0002016E0012B16D00E4B5B6858
:103C100003F48031226A914211D103F47013626A75
:103C200093420ED1002006E001207047012002E0FF
:103C3000012000E0002002B070BD0120FBE7012060
:103C4000F9E70120F7E700BF001002400000424200
:103C500086B0174B0FCB0DF1180C0CE90F0040F29A
:103C60000123ADF80430134B5B6803F00C02082A03
:103C700002D0114806B07047C3F3834218326A4439
:103C800012F8100C13F4803F0DD00A4B5B68C3F39D
:103C9000404318336B4413F8143C074A02FB00F00E
:103CA000B0FBF3F0E6E7054B03FB00F0E2E700BFF3
:103CB000ACF100080010024000127A0000093D003B
:103CC000002800F0A08070B50D460446524B1B68DA
:103CD00003F007038B420BD24F4A136823F007030C
:103CE0000B431360136803F007038B4240F08D8091
:103CF000236813F0020F17D013F0040F04D0474AC3
:103D0000536843F4E0635360236813F0080F04D052
:103D1000424A536843F460535360404A536823F067
:103D2000F003A1680B435360236813F0010F31D0F7
:103D30006368012B20D0022B25D0384A126812F07C
:103D4000020F64D035494A6822F0030213434B60E6
:103D5000FFF746FD0646314B5B6803F00C036268D3
:103D6000B3EB820F16D0FFF73BFD801B41F2883387
:103D70009842F0D9032045E0284A126812F4003F27
:103D8000E0D101203EE0254A126812F0007FD9D12F
:103D9000012037E0204B1B6803F00703AB420AD930
:103DA0001D4A136823F007032B431360136803F0C5
:103DB0000703AB422DD1236813F0040F06D0174A36
:103DC000536823F4E063E1680B435360236813F006
:103DD000080F07D0114A536823F46053216943EA5E
:103DE000C1035360FFF734FF0C4B5B68C3F303134D
:103DF0000B4AD35CD8400B4B18600B4B1868FDF78F
:103E000005FB002070BD012070470120FAE701206A
:103E1000F8E70120F6E700BF002002400010024052
:103E2000C0F100088400002080000020014B1868C9
:103E3000704700BF8400002008B5FFF7F7FF044B70
:103E40005B68C3F30223034AD35CD84008BD00BFBC
:103E500000100240D0F1000808B5FFF7E7FF044B5F
:103E60005B68C3F3C223034AD35CD84008BD00BFDC
:103E700000100240D0F100080F2303600B4B5A687A
:103E800002F0030242605A6802F0F00282605A684F
:103E900002F4E062C2605B68DB0803F4E063036184
:103EA000034B1B6803F007030B60704700100240D0
:103EB0000020024070B582B00446036813F0010F81
:103EC00036D03F4BDB6913F0805F49D13C4BDA6958
:103ED00042F08052DA61DB6903F080530193019B69
:103EE0000125384B1B6813F4807F3BD0344B1B6A91
:103EF00013F4407313D0626802F440729A420ED0F9
:103F00002F4A136A23F440702F490126C1F84064F8
:103F10000026C1F84064106213F0010F36D1284A20
:103F2000136A23F4407361680B431362002D3ED182
:103F3000236813F0020F06D0214A536823F440434C
:103F4000A1680B435360236813F0100F34D01C4A50
:103F5000536823F48003E1680B43536000202CE096
:103F60000025BEE7174A136843F480731360FFF718
:103F700037FC0646134B1B6813F4807FB6D1FFF75E
:103F80002FFC801B6428F5D9032016E0FFF728FCDE
:103F900006460B4B1B6A13F0020FC0D1FFF720FC43
:103FA000801B41F288339842F3D9032005E0D3699E
:103FB00023F08053D361BBE7002002B070BD00BF87
:103FC00000100240007000400000424270B582B014
:103FD0000024A446A6E0804DAA4210D007D97F4D08
:103FE000AA420CD005F58035AA4208D013E0A5F509
:103FF0008015AA4203D005F57025AA4207D18A6828
:10400000002A58D0012A51D04361082403E0A5F5C5
:104010008015AA42F3D0BEF1FF0F4ED80646BEF17E
:10402000FF0F4CD84FEA8C0233680F25954023EAE6
:10403000050304FA02F2134333604B6813F0805F08
:104040006ED0674B9A6942F001029A619B6903F056
:1040500001030193019B4FEA9C02951C614B53F8AD
:1040600025600CF003039D000F23AB4026EA0306F6
:104070005D4B984229D003F58063984200F08E8012
:1040800003F58063984200F08B8003F580639842CB
:1040900019D004231AE0CC68BDE7CC680434BAE731
:1040A000CC680834B7E7CC680C34B4E70361082463
:1040B000B1E70024AFE70424ADE7061DAFE7ACF19C
:1040C00008029200B0E7032300E00023AB40334333
:1040D0000232444D45F822304B6813F4803F61D0E2
:1040E000424A136843EA0E0313604B6813F4003F1F
:1040F0005ED03E4A536843EA0E0353604B6813F4A4
:10410000801F5BD0394A936843EA0E0393604B6883
:1041100013F4001F58D0354AD36843EA0E03D36026
:104120000CF1010C0A6832FA0CF353D0012303FAA4
:104130000CF302EA030E33EA0202F1D14A68122AB2
:104140003FF649AF122A3FF666AF01A555F822F0B7
:10415000FF3F000897400008A1400008B340000856
:1041600017400008174000081740000817400008D3
:1041700017400008174000081740000817400008C3
:1041800017400008174000081740000817400008B3
:10419000174000089B400008A7400008012395E74E
:1041A000022393E7114A136823EA0E0313609CE786
:1041B0000E4A536823EA0E0353609FE70B4A936845
:1041C00023EA0E039360A2E7084AD36823EA0E03AA
:1041D000D360A5E702B070BD0000221000003110CE
:1041E00000100240000001400008014000040140AE
:1041F0000AB10161704709040161704708B5054BB8
:104200005B69034200D108BD024B5861FCF7E8FD31
:10421000F9E700BF0004014090F82130022B06D0DE
:1042200004238363002380F8203001207047026854
:10423000136823F00E0313600268136823F0010370
:104240001360036CC16B012202FA03F34B6080F828
:104250002120002380F820301846704708B590F8D8
:104260002130022B03D004238363012008BD0268A0
:10427000136823F00E0313600268136823F0010330
:1042800013600368194A934214D0143293421FD02A
:10429000143293421ED0143293421ED014329342F1
:1042A0001ED01432934202D04FF0807203E04FF4DC
:1042B000801200E001220E4B5A60012380F8213069
:1042C000002380F82030436B6BB198470020CDE786
:1042D0001022F0E74FF48072EDE74FF48052EAE7E6
:1042E0004FF48032E7E70020C0E700BF080002403B
:1042F0000000024090F8210070470000074AD36890
:1043000023F4E0631B041B0C000200F4E060034391
:1043100043F0BF6343F40033D360704700ED00E027
:1043200000B5194BDB68C3F30223C3F1070CBCF1E2
:10433000040F28BF4FF0040C03F1040EBEF1060F6A
:1043400018D9033B4FF0FF3E0EFA0CFC21EA0C019A
:1043500099400EFA03F322EA0303194300280BDB0A
:104360000901C9B200F1604000F5614080F8001316
:104370005DF804FB0023E5E700F00F000901C9B276
:10438000024B1954F4E700BF00ED00E014ED00E02B
:10439000002807DB00F01F02400901239340024A76
:1043A00042F82030704700BF00E100E090F83E3056
:1043B000DBB2402B10D00369B3F5804F1BD0036DE7
:1043C000002B39D1436CC3F3C813026803F0060312
:1043D00043F0F00313617047036D2BB9436C02681F
:1043E00003F0FE0313617047436C026843F001035E
:1043F000DBB21361704790F83D30DBB2212B0FD058
:10440000436C026843F00103DBB21361436B6BB191
:104410009B6A5BB10268536843F400635360704762
:10442000436C026803F0FE031361EFE7836B33B163
:104430009B6A002BEED102E0036D012B00D0704788
:10444000436CC3F3C813026803F0060343F0F1039F
:104450001361F4E7436C0268DBB21361436B3BB159
:104460009B6A2BB10268536843F400635360704742
:10447000836B002BFBD09B6A002BF3D1F7E710B4C2
:104480008DB090F83E30DAB2C16A046B90F83D30DE
:10449000DBB2222B0AD000230B9303685A690B92DC
:1044A0009B690B930B9B0DB010BC7047036D0BB950
:1044B000402A17D0036D1BB90369B3F5404F19D0DB
:1044C000438D9BB2002B25D1039303685A69039255
:1044D0009A690392039A1A6842F400721A600023E0
:1044E0000365E0E7019303685A6901929B690193B0
:1044F000019BD8E70023029303685A6902929A69E4
:104500000292029A1A6842F480721A60036D0133B3
:104510000365C8E7438D9BB2012B25D0438D9BB229
:10452000022B7BD00268136843F480631360036836
:104530005A6812F4006F0ED011F5803F07D00129A0
:1045400005D0082903D0102901D0202903D15A68A9
:1045500042F480525A6000230A9303685A690A920F
:104560009B690A930A9BBAE711F5803F11D008298D
:1045700034D0202932D0122C2ED0042940D0022948
:104580003ED010293CD00268136823F48063136086
:104590003BE00268136823F48063136003685A6881
:1045A00012F4006F0CD01A6822F480621A600023A3
:1045B000049303685A6904929B690493049B8EE7F1
:1045C000002205925A6905929A690592059A1A681D
:1045D00042F400721A6082E70129CED002681368A3
:1045E00023F4806313600023079303685A690792DA
:1045F0009A690792079A1A6842F400721A606EE785
:104600000268136843F48063136000230693036811
:104610005A6906929B690693069B60E7042915D0A8
:10462000022913D0102911D00268136843F40063E3
:1046300013600023089303685A6908929A690892E4
:10464000089A1A6822F480621A600CE00268136803
:1046500043F4806313600023099303685A69099245
:104660009B690993099B03685A6812F4006F3FF431
:1046700036AF11F5803F08D0012906D0082904D0B3
:10468000102902D020297FF42AAF5A6842F48052C0
:104690005A6024E7438D9BB25BB1426A036812788B
:1046A0001A61436A01334362438D9BB2013B9BB263
:1046B00043857047438D9BB25BB103681A69436AB7
:1046C0001A70436A01334362438D9BB2013B9BB234
:1046D0004385704782B0002301930E4B1B68DB08B3
:1046E0000D4AA2FB03231B0A03EB83030193019BE7
:1046F000013B0193019B33B103681B6813F4007FF6
:10470000F5D1002004E0036C43F020030364012092
:1047100002B070478400002089B5F814C36AB3F56D
:104720002A0F04D0C36AB3F12A4F03D07047012384
:10473000C36270470823C362F8E70000002800F056
:10474000CC8070B5044690F83D30002B77D0242300
:1047500084F83D302268136823F001031360226857
:10476000136843F4004313602268136823F4004382
:104770001360FFF761FB62685A4B9A4264D85A4B48
:1047800098428CBF00230123002B40F0A88057499A
:10479000A1FB00318B0C25686A6822F03F0242EAD7
:1047A00091426A6021680A6A22F03F0266684D4DB4
:1047B000AE424FD8013313430B622168CA6922F419
:1047C0004F4222F0FF026668464B9E424CD8431E81
:1047D0007600B3FBF6F3013340F6FC70034278D069
:1047E000C3F30B031343CB6121680B6823F0C003B1
:1047F000E269206A024313430B6021688B6823F44B
:10480000034323F0FF032269E068024313438B60F4
:104810002168CB6823F0FF036269A0690243134358
:10482000CB602268136843F001031360002020640A
:10483000202384F83D30206384F83E0070BD80F86A
:104840003C30FCF71BFD82E7294B98428CBF0023CC
:10485000012399E74FF4967505FB03F3254DA5FB5E
:1048600003539B090133A6E7A368BBB9451E06EBBA
:10487000460CB5FBFCF50135C5F30B05B5FA85F51E
:104880006D0945BBC3B9013806EB4603B0FBF3F332
:104890000133C3F30B0343F40043A3E7451E06EBC8
:1048A000860C0CEB8C0CB5FBFCF50135C5F30B0548
:1048B000B5FA85F56D09E4E7013806EB860303EBED
:1048C0008303B0FBF3F30133C3F30B0343F440431F
:1048D00088E7042386E7012384E70120704701204D
:1048E000ACE700BFA08601007F841E0083DE1B436F
:1048F000FF083D00D34D621070477047704708B500
:1049000090F83D30DAB2438D9BB283B1416A0368BF
:1049100009781961436A01334362438D9BB2013BBD
:104920009BB24385438D9BB20BB9292A00D008BDA9
:104930000268536823F480635360212303632823B0
:1049400080F83D30FFF7DAFFF1E7704708B590F8DF
:104950003D30DAB2438D9BB283B103681969436A73
:104960001970436A01334362438D9BB2013B9BB292
:104970004385438D9BB20BB92A2A00D008BD02683B
:10498000536823F48063536022230363282380F851
:104990003D30FFF7DAFFF1E7704700B583B090F8DC
:1049A0003D3003F02803282B0CD00023019302682C
:1049B0005169019192690192019A80F83C3003B0EB
:1049C0005DF804FB0268536823F48063536011F0C0
:1049D000040F0BD0002311F0800F09D18289002130
:1049E00080F83C101946FFF7D7FFE8E70123F2E70C
:1049F000028BF4E77047000008B590F83D30DBB259
:104A0000C26A082A01D0202A01D1282B06D0212BE6
:104A10001ED003686FF480625A6108BD1A4BC362EE
:104A20000268536823F4E063536003686FF48062A4
:104A30005A610268136823F48063136000230363E0
:104A4000202280F83D2080F83E30FFF7D3FFE4E7D6
:104A50000D4BC36221230363202380F83D300023E4
:104A600080F83E300268536823F4E06353600368C3
:104A70006FF480625A610268136823F480631360E4
:104A8000FFF73CFFC9E700BF0000FFFF704708B514
:104A9000C26A90F83D30DBB2212B00D008BD438DB7
:104AA0009BB263B1426A036812781A61436A0133A8
:104AB0004362438D9BB2013B9BB24385EEE7082ADC
:104AC00004D0202A02D012F5803F19D10268536821
:104AD00023F4E06353600268136843F400731360C7
:104AE00000230363202380F83D3090F83E30DBB292
:104AF000402B15D0002380F83E30FFF7FDFECDE7B8
:104B00000268536823F4E0635360112303630023B6
:104B100080F83E30202380F83D30FFF7EDFEBDE702
:104B2000002380F83E30FFF7B1FFB7E708B590F8F3
:104B30003D30026D9AB9C36C012B08D0836CC3F36E
:104B4000072302681361036D0133036508BD836C9D
:104B50000268DBB21361036D02330365F6E7DBB273
:104B6000026D012A23D0026D022AEFD1222B26D01A
:104B7000428D92B20AB1212B2AD0428D92B2002AE4
:104B8000E4D1212BE2D10268536823F4E06353603F
:104B90000268136843F40073136000230363202248
:104BA00080F83D2080F83E30FFF770FFCEE7836C41
:104BB0000268DBB21361036D01330365C6E7026867
:104BC000136843F480731360036D01330365BDE71D
:104BD000426A036812781A61436A01334362438D63
:104BE0009BB2013B9BB24385B0E710B590F83D30D6
:104BF000DBB290F83E20D2B2C46A018D09B9212BF4
:104C000004D0212B3BD0402A37D010BD082C04D033
:104C1000202C02D014F5803F19D10268536823F488
:104C2000E06353600268136843F400731360002369
:104C30000363202380F83D3090F83E30DBB2402BF8
:104C400015D0002380F83E30FFF756FEDDE70268FE
:104C5000536823F4E063536011230363002380F857
:104C60003E30202380F83D30FFF746FECDE700239D
:104C700080F83E30FFF70AFFC7E7222BC5D1438DEE
:104C80009BB22BB90268536823F480635360BCE77E
:104C900090F83E30DBB2402B0CD0426A03681278A9
:104CA0001A61436A01334362438D9BB2013B9BB25D
:104CB0004385AAE7FFF73AFFA7E7704708B5C26A3E
:104CC000438D9BB2042B14D0438D9BB2032B22D077
:104CD000438D9BB2022B39D003681A69436A1A705C
:104CE000436A01334362438D9BB2013B9BB24385D0
:104CF00010E00268536823F48063536003681A6904
:104D0000436A1A70436A01334362438D9BB2013B8D
:104D10009BB2438508BD01684B6823F480634B60F8
:104D2000042A06D0022A04D00268136823F48063A0
:104D3000136003681A69436A1A70436A0133436255
:104D4000438D9BB2013B9BB24385E3E7012A0BD025
:104D5000102A09D0042A38D0022A36D002681368F3
:104D600043F40073136004E00268136823F4806363
:104D7000136003681A69436A1A70426A531C4362DB
:104D8000438D9BB2013B9BB2438503681B69537003
:104D9000436A01334362438D9BB2013B9BB243851F
:104DA0000268536823F440735360202380F83D3039
:104DB00090F83E30DBB2402B0DD0002380F83E301F
:104DC00012230363FFF799FDA4E70268136843F415
:104DD00080631360CDE7002380F83E300363FFF764
:104DE0006CFF97E7704790F83D30DBB2222B00D084
:104DF000704710B50446438D9BB2032B16D9036848
:104E00001A69436A1A70436A01334362438D9BB245
:104E1000013B9BB24385438D9BB2032B00D010BD59
:104E20000268536823F480635360F8E7C26A022A79
:104E3000F5D0012BF3D8FFF74DFC00282ED12268C6
:104E4000136823F4806313602268536823F4E063DB
:104E5000536023681A69636A1A70636A0133636274
:104E6000638D9BB2013B9BB26385202384F83D3068
:104E700094F83E30DBB2402B08D0002384F83E305B
:104E8000122323632046FFF738FDC8E7002384F888
:104E90003E3023632046FFF710FFC0E722685368C7
:104EA00023F4E063536023681A69636A1A70636AC3
:104EB00001336362638D9BB2013B9BB26385202308
:104EC00084F83D30002384F83E302046FFF78AFF07
:104ED000A5E7704700B583B000230193406A90F8BE
:104EE0003D20D2B2324B1B68DB083249A1FB0313D1
:104EF0001B0A03EB8303C3EBC3030193019B43B181
:104F0000019B013B019303681B6813F4007FF5D1FB
:104F100003E0036C43F020030364436B0BB10021F7
:104F20009962836B0BB10021996201680B6823F4CD
:104F300080630B6000234385436B0BB100215963F1
:104F4000836B0BB10021596301680B6823F00103E7
:104F50000B6090F83D30DBB2602B0ED002F02802DF
:104F6000282A14D0202380F83D30002380F83E30DA
:104F7000FFF738FF03B05DF804FB202380F83D30D5
:104F8000002380F83E300364FFF7A3FFF2E70268D6
:104F9000136843F0010313600268136843F48063ED
:104FA000136000230363282380F83D30E0E700BF4F
:104FB0008400002089B5F81410B5044690F83D30FF
:104FC000DBB290F83E20D2B2102A35D0402A33D03E
:104FD00003F02802282A37D02268526812F4006FA2
:104FE00007D1602B05D0202384F83D30002384F8BE
:104FF0003E300023236323685A6812F4006F47D0C1
:105000005A6822F400625A60636B93F82120012AE7
:1050100020D0444A5A63606BFFF720F9002849D03A
:105020002268136823F001031360202384F83D30C5
:10503000606B436B98473DE0222BC9D121680A6819
:1050400022F400620A60C3E700232363282384F864
:105050003D30D0E7A36B334A5A63A06BFFF7FEF8ED
:1050600040B323685A6912F0400F05D01A69636A89
:105070001A70636A013363622268136823F00103C4
:105080001360202384F83D30A06B436B984711E0F8
:1050900094F83D20D2B2602A1FD05A6912F0400F16
:1050A00005D01A69636A1A70636A01336362204625
:1050B000FFF798FE236C13F00F0F04D0226853689B
:1050C00023F4E063536094F83D30DBB2226C12F0BD
:1050D000040F01D0282B18D010BD202284F83D20C9
:1050E000002222645A6912F0400F05D01A69636ADF
:1050F0001A70636A013363622268136823F0010344
:1051000013602046FFF7E5FED4E7074BE362002378
:105110002363202284F83D2084F83E302046FFF7A8
:1051200069FCD9E7D54E00080000FFFF30B583B019
:10513000044690F83D50EDB20268536823F4E063F2
:1051400053600023019303685A6901921A6842F080
:1051500001021A60019B0268136823F480631360E4
:1051600003685A6812F4006F38D0222D21D02A2DFE
:105170001FD0426B1268526892B24285428D92B241
:105180001AB1026C42F0040202645A6822F400620E
:105190005A60606BFFF7AEF801281FD0636B444A7A
:1051A0005A63606BFFF75AF8C0B1606B436B984766
:1051B00014E0A26B1268526892B26285628D92B25C
:1051C0001AB1226C42F0040222645A6822F400628E
:1051D0005A60A06BFFF78EF8012842D1638D9BB215
:1051E00033B323685A6912F0040F0AD01A69636A4C
:1051F0001A70636A01336362638D9BB2013B9BB299
:10520000638523685A6912F0400F0AD01A69636AED
:105210001A70636A01336362638D9BB2013B9BB278
:105220006385638D9BB21BB1236C43F0040323643D
:10523000236C13BB2A2D25D094F83D30DBB2282BEC
:1052400029D0236B222B01D0222D19D100232363D7
:10525000202284F83D2084F83E302046FFF775FB7D
:105260000EE0A36B124A5A63A06BFEF7F7FF00280B
:10527000B4D0A06B436B9847B0E72046FFF79CFE85
:1052800003B030BD00232363282384F83D3020463B
:10529000FFF75BFBD0E7074BE36200232363202289
:1052A00084F83D2084F83E302046FFF7A3FBE7E773
:1052B000D54E00080000FFFFF8B5044602685568A7
:1052C000C66A90F83E30DBB290F83D10C8B2102BA1
:1052D00013D0402B11D0236C002B7AD053690021BE
:1052E00013F0020F78D015F4007F75D0236C03B152
:1052F00091692046FFF751FBF8BDD2F818C05169FB
:1053000011F0010705D1B6F52A0FF5D0B6F12A4FF5
:10531000F2D017B115F4007F29D111F0080F02D097
:1053200015F4007F2AD111F0020F02D015F4007F8E
:1053300028D11CF0040F31D0526812F4006FDBD179
:1053400011F0800F05D015F4806F02D011F0040F1A
:105350001CD011F0040FCFD015F4007FCCD0212841
:1053600018D0402BC8D12046FFF7E0FBC4E7204609
:10537000FFF7D4F92046FFF719F8BDE72046FFF7FD
:1053800069F8B9E72046FFF77AF8B5E72046FFF756
:105390002CFCB1E72046FFF77AFBADE7536813F426
:1053A000006FA9D111F0400F05D015F4806F02D025
:1053B00011F0040F09D011F0040F9DD015F4007FF7
:1053C0009AD02046FFF77AFC96E72046FFF70BFDC0
:1053D00092E79169536983E713F0100F02D015F437
:1053E000007F18D121281AD0292818D013F0400F97
:1053F00005D015F4806F02D013F0040F28D013F0FD
:10540000040F3FF479AF15F4007F3FF475AF2046E9
:10541000FFF750F970E72046FFF788FE6CE713F0BE
:10542000800F05D015F4806F02D013F0040F0BD05D
:1054300013F0040F3FF460AF15F4007F3FF45CAF4E
:105440002046FFF727F957E72046FFF758FA53E7BA
:105450002046FFF77BFA4FE7F8B5044603685D691D
:105460005F6890F83E20D2B215F4807F0CD017F41C
:10547000807F41D06FF48071596101680B6843F4FB
:1054800000430B60012600E0002615F4007F08D0E1
:1054900017F4807F05D046F0020623686FF4007190
:1054A000596115F4806F19D017F4807F16D0638D81
:1054B00099B294F83D30DBB2206B202A1ED02368CD
:1054C0006FF48061596146F00406102A01D0402A29
:1054D00004D12268136843F40073136015F4006F5D
:1054E00008D017F4807F05D046F0080623686FF4D3
:1054F00000625A6186B9F8BD0026C6E70029DED1F0
:10550000212B05D0292B03D0282BD8D12128D6D167
:105510002046FFF771FAE1E7236C1E43266420461C
:10552000FFF74AFDE7E700002DE9F04782B00546A6
:10553000884617461E46FEF753F90A9B1B1A03EBD3
:105540000609FEF74DF982462B4B1B68C3F3CB339C
:1055500009FB03F301932B689C6838EA04030CBF32
:105560004FF0010C4FF0000CBC4540D0B6F1FF3FAE
:10557000F1D0FEF735F9A0EB0A0048450AD2B9F19F
:10558000000F07D0019A02B14A46019B013B0193EB
:105590009146E0E72A68536823F0E00353606B68A4
:1055A000B3F5827F0BD0AB6AB3F5005F14D0012353
:1055B00085F85130002385F85030032018E0AB689F
:1055C000B3F5004F02D0B3F5806FECD12A681368B1
:1055D00023F040031360E6E72A68136823F40053BE
:1055E00013602A68136843F400531360DFE7002058
:1055F00002B0BDE8F08700BF8400002010B582B083
:1056000004460B46009200228021FFF78DFF08B967
:1056100002B010BD636D43F0200363650320F7E71C
:10562000002856D010B50446436A33B94368B3F531
:10563000827F05D00023C36102E000230361436140
:105640000023A36294F85130002B3CD0022384F84D
:1056500051302268136823F040031360636803F439
:105660008273A26802F404421343E26802F4006207
:105670001343226902F002021343626902F001023D
:105680001343A26902F400721343E26902F0380284
:105690001343226A02F080021343A26A02F400520A
:1056A000216813430B60638B226803F0040353608B
:1056B0002268D36923F40063D3610020606501236D
:1056C00084F8513010BD84F850302046FBF718FEA6
:1056D000BCE7012070472DE9F04383B01D4690F8E8
:1056E0005030012B00F0D1800446884691460123BA
:1056F00080F85030FEF774F8074694F85160F6B21F
:10570000012E40F0AF80B8F1000F00F0AC80B9F18D
:10571000000F00F0A880032384F851300023636554
:10572000C4F83080A4F83490A4F83690A363A3871B
:10573000E38763642364A368B3F5004F1ED0236836
:105740001A6812F0400F03D11A6842F040021A6042
:10575000E368B3F5006F1CD0636813B1B9F1010FB2
:1057600052D1226B236812781A73236B013323639F
:10577000E38E9BB2013B9BB2E38645E0226813684F
:1057800023F0400313602268136843F480431360DE
:10579000D5E7636813B1B9F1010F16D1226B236805
:1057A0001288DA60236B02332363E38E9BB2013BE2
:1057B0009BB2E38609E0FEF713F8C01BA84202D3B0
:1057C000B5F1FF3F59D1002D59D0E38E9BB2002B8C
:1057D00033D023689A6812F0020FECD0226B128843
:1057E000DA60236B02332363E38E9BB2013B9BB2EF
:1057F000E386EAE7FDF7F4FFC01BA84202D3B5F148
:10580000FF3F3ED1002D3ED0E38E9BB2ABB123686B
:105810009A6812F0020FEDD0226B12781A73236B84
:1058200001332363B4F836C01FFA8CFC0CF1FF3C43
:105830001FFA8CFCA4F836C0E6E73A462946204613
:10584000FFF7DCFE08B120236365A36833B9019339
:105850002368DA6801929B680193019B636D13B919
:10586000002600E00226012384F85130002384F84A
:105870005030304603B0BDE8F0830326F3E703263B
:10588000F1E70326EFE70326EDE70226F1E72DE92E
:10589000F04383B01F460A9D90F85030012B00F072
:1058A0001081044688469146012380F85030FDF768
:1058B00097FF064694F85130DBB26268012B0AD09C
:1058C000B2F5827F40F0E380A268002A40F0E980D0
:1058D000042B40F0E880B8F1000F00F0E680B9F149
:1058E000000F00F0E480002F00F0E38094F85130C6
:1058F000DBB2042B02D0052384F85130002363650A
:10590000C4F83890E787A787C4F83080E786A78671
:105910002364636423681A6812F0400F03D11A6885
:1059200042F040021A60E368B3F5006F11D063687B
:105930000BB1012F0BD1226B236812781A73236BE2
:1059400001332363E38E9BB2013B9BB2E3860127C5
:105950006BE063680BB1012F0BD1226B23681288B7
:10596000DA60236B02332363E38E9BB2013B9BB26D
:10597000E38601271CE023689A6812F0010F0ED01D
:10598000E28F92B25AB1DA68A36B1A80A36B02332A
:10599000A363E38F9BB2013B9BB2E3870127FDF733
:1059A0001FFF801BA84203D3B5F1FF3F40F0838067
:1059B000E38E9BB21BB9E38F9BB2002B53D02368BD
:1059C0009A6812F0020FD6D0E28E92B2002AD2D09C
:1059D000002FD0D0226B1288DA60236B023323634E
:1059E000E38E9BB2013B9BB2E3860027C3E72368AB
:1059F0009A6812F0010F0ED0E28F92B25AB1DA68B3
:105A0000A36B1A70A36B0133A363E38F9BB2013BBB
:105A10009BB2E3870127FDF7E3FE831BAB4202D372
:105A2000B5F1FF3F49D1002D49D0E38E9BB213B9A8
:105A3000E38F9BB2BBB123689A6812F0020FD6D0F5
:105A4000E28E92B2002AD2D0002FD0D0226B1278F0
:105A50001A73236B01332363E38E9BB2013B9BB22A
:105A6000E3860027C3E7324629462046FFF7C6FDF6
:105A700048B9A36863B901932368DA6801929B6807
:105A80000193019B04E020236365012000E00220D4
:105A9000012384F85130002384F8503003B0BDE86E
:105AA000F0830220F4E70220F2E70120F0E7012072
:105AB000EEE70120ECE70320EAE70320E8E7032014
:105AC000E6E70220EAE7704730B585B00446026891
:105AD00051689368C3F3801013F0400F05D113F0A1
