:020000040800F2
:1000000000500020513A00089D1800089F18000871
:10001000A1180008A3180008A51800080000000097
:10002000000000000000000000000000A718000809
:10003000A918000800000000AB180008AD1800085F
:10004000993A0008993A0008993A0008993A000844
:10005000993A0008993A0008993A0008993A000834
:10006000993A0008993A0008993A0008993A000824
:10007000993A0008993A0008993A0008993A000814
:10008000993A0008993A0008993A0008993A000804
:10009000993A0008993A0008993A0008993A0008F4
:1000A000993A0008993A0008993A0008993A0008E4
:1000B000993A0008993A0008993A0008993A0008D4
:1000C000993A0008993A0008993A0008993A0008C4
:1000D000993A0008993A0008D1180008993A00089E
:1000E000E1180008993A0008993A00080000000059
:1000F0000000000000000000000000000000000000
:0C01000000000000000000005FF808F1A3
:1001100010B5054C237833B9044B13B10448AFF341
:1001200000800123237010BDE001002000000000CA
:10013000FC8C000808B5034B1BB103490348AFF31F
:10014000008008BD00000000E4010020FC8C0008D5
:10015000034613F8012B002AFBD1181A0138704707
:100160004FF0FF0C1CEAD0521EBF1CEAD15392EA9A
:100170000C0F93EA0C0F6FD01A4480EA010C400276
:1001800018BF5FEA41211ED04FF0006343EA5010D0
:1001900043EA5111A0FB01310CF00040B1F5000F12
:1001A0003EBF490041EAD3715B0040EA010062F1C1
:1001B0007F02FD2A1DD8B3F1004F40EBC25008BFAB
:1001C00020F00100704790F0000F0CF0004C08BFC9
:1001D00049024CEA502040EA51207F3AC2BFD2F196
:1001E000FF0340EAC250704740F400004FF00003A4
:1001F000013A5DDC12F1190FDCBF00F000407047DE
:10020000C2F10002410021FA02F1C2F1200200FA1B
:1002100002FC5FEA310040F1000053EA4C0308BFE2
:1002200020EADC70704792F0000F00F0004C02BF33
:10023000400010F4000F013AF9D040EA0C0093F0AE
:10024000000F01F0004C02BF490011F4000F013B08
:10025000F9D041EA0C018FE70CEAD15392EA0C0F76
:1002600018BF93EA0C0F0AD030F0004C18BF31F0E1
:10027000004CD8D180EA010000F00040704790F0B7
:10028000000F17BF90F0004F084691F0000F91F05B
:10029000004F14D092EA0C0F01D142020FD193EA21
:1002A0000C0F03D14B0218BF084608D180EA0100A9
:1002B00000F0004040F0FE4040F40000704740F085
:1002C000FE4040F44000704781F0004102E000BF72
:1002D00083F0004330B54FEA41044FEA430594EA06
:1002E000050F08BF90EA020F1FBF54EA000C55EA41
:1002F000020C7FEA645C7FEA655C00F0E2804FEA12
:100300005454D4EB5555B8BF6D420CDD2C4480EAF3
:10031000020281EA030382EA000083EA010180EA23
:10032000020281EA0303362D88BF30BD11F0004F71
:100330004FEA01314FF4801C4CEA113102D04042A7
:1003400061EB410113F0004F4FEA03334CEA1333E2
:1003500002D0524263EB430394EA050F00F0A780FA
:10036000A4F10104D5F1200E0DDB02FA0EFC22FAF5
:1003700005F2801841F1000103FA0EF2801843FAE9
:1003800005F359410EE0A5F120050EF1200E012ADA
:1003900003FA0EFC28BF4CF0020C43FA05F3C01818
:1003A00051EBE37101F0004507D54FF0000EDCF191
:1003B000000C7EEB00006EEB0101B1F5801F1BD33A
:1003C000B1F5001F0CD349085FEA30004FEA3C0C3E
:1003D00004F101044FEA445212F5800F80F09A8034
:1003E000BCF1004F08BF5FEA500C50F1000041EB38
:1003F000045141EA050130BD5FEA4C0C404141EB3C
:100400000101013C28BFB1F5801FE9D291F0000F36
:1004100004BF01460020B1FA81F308BF2033A3F1E5
:100420000B03B3F120020CDA0C3208DD02F1140CDC
:10043000C2F10C0201FA0CF021FA02F10CE002F117
:100440001402D8BFC2F1200C01FA02F120FA0CFC10
:10045000DCBF41EA0C019040E41AA2BF01EB045159
:10046000294330BD6FEA04041F3C1CDA0C340EDC57
:1004700004F11404C4F1200220FA04F001FA02F39A
:1004800040EA030021FA04F345EA030130BDC4F158
:100490000C04C4F1200220FA02F001FA04F340EA4D
:1004A0000300294630BD21FA04F0294630BD94F0FE
:1004B000000F83F4801306BF81F480110134013DE5
:1004C0004EE77FEA645C18BF7FEA655C29D094EA56
:1004D000050F08BF90EA020F05D054EA000C04BFD4
:1004E0001946104630BD91EA030F1EBF00210020BF
:1004F00030BD5FEA545C05D14000494128BF41F05E
:10050000004130BD14F580043CBF01F5801130BDC1
:1005100001F0004545F0FE4141F470014FF000004C
:1005200030BD7FEA645C1ABF194610467FEA655CFD
:100530001CBF0B46024650EA013406BF52EA03359F
:1005400091EA030F41F4002130BD00BF90F0000F8D
:1005500004BF0021704730B54FF4806404F13204C9
:100560004FF000054FF0000150E700BF90F0000F82
:1005700004BF0021704730B54FF4806404F13204A9
:1005800010F0004548BF40424FF000013EE700BF79
:1005900042004FEAE2014FEA31014FEA02701FBF09
:1005A00012F07F4393F07F4F81F06051704732F03B
:1005B0007F4208BF704793F07F4F04BF41F4002192
:1005C000704730B54FF4607401F0004521F00041F0
:1005D0001CE700BF50EA010208BF704730B54FF07A
:1005E00000050AE050EA010208BF704730B511F07B
:1005F000004502D5404261EB41014FF4806404F1B3
:1006000032045FEA915C3FF4D8AE4FF003025FEA38
:10061000DC0C18BF03325FEADC0C18BF033202EBBC
:10062000DC02C2F1200300FA03FC20FA02F001FA16
:1006300003FE40EA0E0021FA02F11444BDE600BFB9
:1006400070B54FF0FF0C4CF4E06C1CEA11541DBF68
:100650001CEA135594EA0C0F95EA0C0F00F0DEF833
:100660002C4481EA030621EA4C5123EA4C5350EA18
:10067000013518BF52EA033541F4801143F4801369
:1006800038D0A0FB02CE4FF00005E1FB02E506F0FA
:100690000042E0FB03E54FF00006E1FB03569CF04F
:1006A000000F18BF4EF0010EA4F1FF04B6F5007F55
:1006B00064F5407404D25FEA4E0E6D4146EB0606C7
:1006C00042EAC62141EA55514FEAC52040EA5E5050
:1006D0004FEACE2EB4F1FD0C88BFBCF5E06F1ED8FA
:1006E000BEF1004F08BF5FEA500E50F1000041EB31
:1006F000045170BD06F0004646EA010140EA0200DE
:1007000081EA0301B4EB5C04C2BFD4EB0C0541EAFF
:10071000045170BD41F480114FF0000E013C00F314
:10072000AB8014F1360FDEBF002001F0004170BD38
:10073000C4F10004203C35DA0C341BDC04F1140451
:10074000C4F1200500FA05F320FA04F001FA05F2DD
:1007500040EA020001F0004221F0004110EBD370AA
:1007600021FA04F642EB06015EEA430E08BF20EAD6
:10077000D37070BDC4F10C04C4F1200500FA04F379
:1007800020FA05F001FA04F240EA020001F000410B
:1007900010EBD37041F100015EEA430E08BF20EA7E
:1007A000D37070BDC4F1200500FA05F24EEA020EC6
:1007B00020FA04F301FA05F243EA020321FA04F0F5
:1007C00001F0004121FA04F220EA020000EBD370AC
:1007D0005EEA430E08BF20EAD37070BD94F0000FAC
:1007E0000FD101F00046400041EB010111F4801FE0
:1007F00008BF013CF7D041EA060195F0000F18BF91
:10080000704703F00046520043EB030313F4801FCC
:1008100008BF013DF7D043EA0603704794EA0C0F86
:100820000CEA135518BF95EA0C0F0CD050EA41069C
:1008300018BF52EA4306D1D181EA030101F0004119
:100840004FF0000070BD50EA410606BF1046194641
:1008500052EA430619D094EA0C0F02D150EA01364D
:1008600013D195EA0C0F05D152EA03361CBF10468E
:1008700019460AD181EA030101F0004141F0FE412D
:1008800041F470014FF0000070BD41F0FE4141F4B1
:10089000780170BD70B54FF0FF0C4CF4E06C1CEAB1
:1008A00011541DBF1CEA135594EA0C0F95EA0C0F66
:1008B00000F0A7F8A4EB050481EA030E52EA033521
:1008C0004FEA013100F088804FEA03334FF0805542
:1008D00045EA131343EA12634FEA022245EA11156F
:1008E00045EA10654FEA00260EF000419D4208BF20
:1008F000964244F1FD0404F5407402D25B084FEACD
:100900003202B61A65EB03055B084FEA32024FF478
:1009100080104FF4002CB6EB020E75EB030E22BFD5
:10092000B61A754640EA0C005B084FEA3202B6EB95
:10093000020E75EB030E22BFB61A754640EA5C0044
:100940005B084FEA3202B6EB020E75EB030E22BFD4
:10095000B61A754640EA9C005B084FEA3202B6EBD5
:10096000020E75EB030E22BFB61A754640EADC0094
:1009700055EA060E18D04FEA051545EA16754FEAF6
:1009800006164FEAC30343EA52734FEAC2025FEA14
:100990001C1CC0D111F4801F0BD141EA00014FF0A3
:1009A00000004FF0004CB6E711F4801F04BF014374
:1009B0000020B4F1FD0C88BFBCF5E06F3FF6AFAE90
:1009C000B5EB030C04BFB6EB020C5FEA500C50F120
:1009D000000041EB045170BD0EF0004E4EEA1131A3
:1009E00014EB5C04C2BFD4EB0C0541EA045170BDAA
:1009F00041F480114FF0000E013C90E645EA060EEE
:100A00008DE60CEA135594EA0C0F08BF95EA0C0F1B
:100A10003FF43BAF94EA0C0F0AD150EA01347FF463
:100A200034AF95EA0C0F7FF425AF104619462CE73A
:100A300095EA0C0F06D152EA03353FF4FDAE10469D
:100A4000194622E750EA410618BF52EA43067FF4EE
:100A5000C5AE50EA41047FF40DAF52EA43057FF47E
:100A6000EBAE12E74FF0FF3C06E000BF4FF0010C89
:100A700002E000BF4FF0010C4DF804CD4FEA410CED
:100A80007FEA6C5C4FEA430C18BF7FEA6C5C1BD0BA
:100A900001B050EA410C0CBF52EA430C91EA030F3B
:100AA00002BF90EA020F0020704710F1000F91EA98
:100AB000030F58BF994208BF90422CBFD8176FEA66
:100AC000E37040F0010070474FEA410C7FEA6C5C34
:100AD00002D150EA013C07D14FEA430C7FEA6C5C3B
:100AE000D6D152EA033CD3D05DF8040B704700BF67
:100AF0008446104662468C461946634600E000BFB5
:100B000001B5FFF7B7FF002848BF10F1000F01BD86
:100B10004DF808EDFFF7F4FF0CBF012000205DF851
:100B200008FB00BF4DF808EDFFF7EAFF34BF0120D6
:100B300000205DF808FB00BF4DF808EDFFF7E0FF6F
:100B400094BF012000205DF808FB00BF4DF808EDC0
:100B5000FFF7CEFF94BF012000205DF808FB00BF27
:100B60004DF808EDFFF7C4FF34BF012000205DF809
:100B700008FB00BF4FEA410C7FEA6C5C02D150EAEF
:100B8000013C0AD14FEA430C7FEA6C5C02D152EA85
:100B9000033C02D14FF0000070474FF00100704756
:100BA0004FEA410212F5001215D211D56FF4787395
:100BB000B3EB625212D94FEAC12343F0004343EA38
:100BC000505311F0004F23FA02F018BF4042704713
:100BD0004FF00000704750EA013005D111F000409D
:100BE00008BF6FF0004070474FF00000704700BF33
:100BF0004A0011D212F5001211D20DD56FF478739C
:100C0000B3EB62520ED44FEAC12343F0004343EAF0
:100C1000505323FA02F070474FF00000704750EA3B
:100C2000013002D14FF0FF3070474FF000007047A5
:100C30004FEA4102B2F1E04324BFB3F5001CDCF1FE
:100C4000FE5C0DD901F0004C4FEAC0024CEA507036
:100C5000B2F1004F40EB830008BF20F00100704765
:100C600011F0804F21D113F13872BCBF01F0004068
:100C7000704741F480114FEA5252C2F11802C2F19A
:100C8000200C10FA0CF320FA02F018BF40F001001B
:100C90004FEAC1234FEAD32303FA0CFC40EA0C00CD
:100CA00023FA02F34FEA4303CCE77FEA625307D10A
:100CB00050EA01331EBF4FF0FE4040F44000704741
:100CC00001F0004040F0FE4040F40000704700BFDB
:100CD00080F0004002E000BF81F0004142001FBFF1
:100CE0005FEA410392EA030F7FEA226C7FEA236CFA
:100CF0006AD04FEA1262D2EB1363C1BFD2184140EF
:100D000048404140B8BF5B42192B88BF704710F084
:100D1000004F40F4000020F07F4018BF404211F027
:100D2000004F41F4000121F07F4118BF494292EA8F
:100D3000030F3FD0A2F1010241FA03FC10EB0C00BB
:100D4000C3F1200301FA03F100F0004302D5494248
:100D500060EB4000B0F5000F13D3B0F1807F06D3F5
:100D600040084FEA310102F10102FE2A51D2B1F1ED
:100D7000004F40EBC25008BF20F0010040EA0300E2
:100D80007047490040EB0000013A28BFB0F5000F62
:100D9000EDD2B0FA80FCACF1080CB2EB0C0200FA18
:100DA0000CF0AABF00EBC25052421843BCBFD04067
:100DB0001843704792F0000F81F4000106BF80F4E1
:100DC00000000132013BB5E74FEA41037FEA226CA4
:100DD00018BF7FEA236C21D092EA030F04D092F06F
:100DE000000F08BF0846704790EA010F1CBF0020A3
:100DF000704712F07F4F04D1400028BF40F0004000
:100E0000704712F100723CBF00F50000704700F01F
:100E1000004343F0FE4040F4000070477FEA226246
:100E200016BF08467FEA23630146420206BF5FEA17
:100E3000412390EA010F40F4800070474FF0000317
:100E400004E000BF10F0004348BF40425FEA000CDE
:100E500008BF704743F0964301464FF000001CE086
:100E600050EA010208BF70474FF000030AE000BFDC
:100E700050EA010208BF704711F0004302D540421A
:100E800061EB41015FEA010C02BF8446014600208C
:100E900043F0B64308BFA3F18053A3F50003BCFAA7
:100EA0008CF2083AA3EBC25310DB01FA02FC634454
:100EB00000FA02FCC2F12002BCF1004F20FA02F25B
:100EC00043EB020008BF20F00100704702F120024E
:100ED00001FA02FCC2F1200250EA4C0021FA02F2AF
:100EE00043EB020008BF20EADC7070474FF0FF3C84
:100EF00006E000BF4FF0010C02E000BF4FF0010C14
:100F00004DF804CD4FEA40024FEA41037FEA226CDC
:100F100018BF7FEA236C11D001B052EA530C18BFFE
:100F200090EA010F58BFB2EB030088BFC81738BF63
:100F30006FEAE17018BF40F0010070477FEA226C51
:100F400002D15FEA402C05D17FEA236CE4D15FEA4D
:100F5000412CE1D05DF8040B704700BF8446084681
:100F60006146FFE70FB5FFF7C9FF002848BF10F142
:100F7000000F0FBD4DF808EDFFF7F4FF0CBF012087
:100F800000205DF808FB00BF4DF808EDFFF7EAFF11
:100F900034BF012000205DF808FB00BF4DF808EDCC
:100FA000FFF7E0FF94BF012000205DF808FB00BFC1
:100FB0004DF808EDFFF7D2FF94BF012000205DF847
:100FC00008FB00BF4DF808EDFFF7C8FF34BF012054
:100FD00000205DF808FB00BF4FEA4002B2F1FE4F6F
:100FE0000FD34FF09E03B3EB12620DD94FEA0023EB
:100FF00043F0004310F0004F23FA02F018BF4042C4
:1010000070474FF00000704712F1610F01D14202AA
:1010100005D110F0004008BF6FF0004070474FF05E
:101020000000704742000ED2B2F1FE4F0BD34FF0DA
:101030009E03B3EB126209D44FEA002343F000434E
:1010400023FA02F070474FF00000704712F1610F71
:1010500001D1420202D14FF0FF3070474FF0000043
:10106000704700BF38B505460C46002200232846CD
:101070002146FFF757FD28B928462146BDE83840EC
:1010800000F00AB8284604F1004100F005F840429B
:1010900061EB410138BD00BFD0B500220B4B0646C5
:1010A0000F46FFF7CDFAFFF7A3FD0446FFF74EFA10
:1010B0000022074BFFF7C4FA02460B46304639467A
:1010C000FFF706F9FFF794FD2146D0BD0000F03D83
:1010D0000000F0412DE9F04188B00024049405940B
:1010E000069407942A4B9A6942F020029A619A6901
:1010F00002F020020192019A9A6942F004029A6178
:101100009A6902F004020292029A9A6942F0080275
:101110009A619B6903F008030393039B1D4D2246CC
:101120003021284601F068FD1B4E22464FF44071E5
:10113000304601F061FD302304934FF00108CDF8F3
:10114000148006940227079704A9284601F042FC60
:101150004FF4E0530493114B0593069404A92846D9
:1011600001F038FC4FF440730493CDF814800694DA
:10117000079704A9304601F02DFC2246214628207D
:1011800001F0CEFD282001F003FE08B0BDE8F0819B
:101190000010024000080140000C01400000211036
:1011A00038B50446174B9B8F83420AD0154BB3F8D2
:1011B0009030A3420FD0134BB3F8E430A34215D0C4
:1011C00038BD104D0023EB61284602F05FF9012382
:1011D00085F84630EAE70B4D00232B6705F15400F4
:1011E00002F054F9012385F89A30E4E7054C002316
:1011F000C4F8C43004F1A80002F048F9012384F8CF
:10120000EE30DDE7FC01002008B502680F4B1B68DB
:101210009A4200D008BD0E4B93F810212E2A0DD013
:1012200093F81111481C83F811010B4483F81C2119
:1012300001220849054802F0D2F8EBE704480023F0
:1012400080F8113102F0E8F8F2E700BF4404002012
:10125000FC0100200C0300202D4B2E4A9A62DA6715
:10126000C3F8D020C3F800212B4A5A622B4A9A6750
:101270002B4AC3F8CC202B4A1A63C3F88420A2F56A
:101280008062C3F8D820C3F808214FF48071998692
:101290004FF40071A3F888102021A3F8DC1010216E
:1012A000A3F80C110821D9620C21C3F88010042185
:1012B000C3F8D4100021C3F804119A63C3F88C203A
:1012C000C3F8E0204FF480529A874FF40062A3F8ED
:1012D00090204FF48062A3F8E420134A1A605A6504
:1012E000124AC3F8A820124A5A609A65C3F8AC2083
:1012F000104A9A60104ADA65104AC3F8B020104AC2
:101300001A64104AC3F894200F4AC3F8E8207047C3
:10131000FC010020B4030020FC0300206C0300202B
:1013200024030020000C01400000A0413333333F70
:1013300017B7D1389A99193ECDCC4C3E0AD7A33C69
:101340007BE37943E192F7430000FA4372B6FEE78C
:1013500000B58DB02422002103A802F0C3FB0023B6
:10136000019302931148124A0260436083604FF672
:10137000FF72C2600361436183610323039301230E
:101380000593099303A900F021FD50B900230193AF
:10139000029301A9054800F06BFF20B90DB05DF87C
:1013A00004FBFFF7D3FFFFF7D1FF00BF24030020AA
:1013B000002C014000B58DB02422002103A802F0CA
:1013C00091FB00230193029311484FF08042026089
:1013D000436083604FF6FF72C26003618361032341
:1013E000039301230593099303A900F0EFFC50B97F
:1013F00000230193029301A9054800F039FF20B9A9
:101400000DB05DF804FBFFF7A1FFFFF79FFF00BFE2
:101410006C03002000B58FB000230A930B930C934C
:101420000D930893099301930293039304930593F7
:10143000069307932B482C4A02601D22426083606A
:101440006322C2600361836100F068FC002839D127
:101450004FF480530A930AA9224800F0B9FD0028EE
:1014600032D1204800F086FC00282FD100230893B9
:10147000099308A91B4800F0FBFE48BB60230193B9
:10148000002202920392059201A9164800F02CFD59
:1014900000BB04220DEB0201124800F025FDD8B973
:1014A000082201A90F4800F01FFDB8B90C2201A9BC
:1014B0000C4800F019FD98B90A4800F0C5FA0FB0C1
:1014C0005DF804FBFFF742FFFFF740FFFFF73EFF29
:1014D000FFF73CFFFFF73AFFFFF738FFFFF736FF54
:1014E000FFF734FFB40300200004004000B58DB0C6
:1014F0002422002103A802F0F5FA002301930293AD
:101500001048114A0260436083604FF6FF72C26068
:10151000036183610323039301230593099303A9C3
:1015200000F054FC50B900230193029301A905482F
:1015300000F09EFE20B90DB05DF804FBFFF706FF3A
:10154000FFF704FFFC0300200008004008B50A482C
:101550000A4B03604FF4E133436000238360C360B0
:1015600003610C2242618361C36101F0FDFC00B99B
:1015700008BDFFF7EBFE00BF44040020004400401C
:1015800000B591B02822002106A802F0ABFA002392
:1015900001930293039304930593012206924FF45F
:1015A000803307930A9202220D920E934FF4E013B8
:1015B0000F9306A800F0F2FE80B90F2301930221D9
:1015C0000291002303934FF480620492059301A8D3
:1015D00001F024F920B911B05DF804FBFFF7B6FE65
:1015E000FFF7B4FE08B500F09FFEFFF7C9FFFFF755
:1015F00071FDFFF7ADFEFFF7DDFEFFF70BFFFFF715
:1016000075FFFFF7A3FF012299499A4801F0E7FE11
:10161000FFF722FE984C0021204600F055FD0421E2
:10162000204600F051FD0821204600F04DFD0C2120
:10163000204600F049FD0421904800F0B3FD04214C
:101640008F4800F0AFFD04218E4800F0ABFDDEE0D6
:101650008D4C8E4904F5807002F05AF994F84630AA
:10166000002B00F0D48094F89A30002B00F0CF804B
:1016700094F8EE30002B00F0CA80626A11680022F4
:101680004A62A16F09684A62D4F8CC1009684A62BC
:10169000A261E266C4F8C020022284F8FC20B6E011
:1016A0007B4D794C2946204601F0F7FF294604F18D
:1016B000540001F0F2FF294604F1A80001F0EDFF0B
:1016C00094F84430002B00F0A28094F89830002B5E
:1016D00000F09D8094F8EC30002B00F098800025FD
:1016E00084F8445084F8985084F8EC50636A1B687E
:1016F0005D62A36F1B685D62D4F8CC301B685D62CD
:10170000A561E566C4F8C05004F58971C4F81251AA
:10171000C4F816510D815F4B1A889B78A4F81221EA
:101720008B7064230A22534801F04DFC84F8115158
:1017300084F8FC506BE0544B93F80E2193F80F3172
:101740009A4208D1504B93F80F3123B34E4B0522E8
:1017500083F8FC205BE02BB14B4B4FF07E52C3F87B
:10176000F0200AE0484B0022C3F8F02005E046488C
:10177000D0F8F010A83001F090FF434B93F8EC3014
:10178000002BF4D0404B002283F8EC2093F80F217B
:1017900083F80E21D6E73C4B042283F8FC2036E088
:1017A000394CA16C204601F078FFD4F89C1004F16C
:1017B000540001F072FF344B93F84430002BEFD00B
:1017C000314B93F89830002BEAD02F4C002584F849
:1017D000445084F89850A36CE364D4F89C30C4F867
:1017E000A03004F58971C4F81251C4F816510D8166
:1017F000294B1A889B78A4F812218B7064230A2243
:101800001C4801F0E0FB84F8115184F8FC501E4B99
:1018100093F8FC30013B042BF9D801A252F823F0D5
:1018200051160008A116000837170008B71700085E
:1018300035180008144C04F15401204601F070FFE3
:1018400004F589710025C4F81251C4F816510D81B0
:10185000114B1A889B78A4F812218B7064230A22FA
:10186000044801F0B0FB84F8115184F8FC50CEE735
:101870000C03002044040020B403002024030020B3
:101880006C030020FC030020FC01002000008C42BF
:1018900000002041248D0008288D0008FEE7FEE7A7
:1018A000FEE7FEE7FEE770477047704710B5074C4C
:1018B000204601F0D9FE04F1540001F0D5FE04F1F8
:1018C000A80001F0D1FE00F041FD10BDFC01002098
:1018D00008B5024801F066FC08BD00BF44040020C2
:1018E00008B54FF4806001F08DF94FF4006001F00D
:1018F00089F94FF4805001F085F908BD82B00E4B94
:101900009A6942F001029A619A6902F0010200921A
:10191000009ADA6942F08052DA61DB6903F08053A1
:101920000193019B054A536823F0E06343F0007381
:10193000536002B0704700BF001002400000014039
:1019400000B58BB0002306930793089309930368AF
:101950002D4A934208D0B3F1804F20D02B4A9342B6
:1019600038D00BB05DF804FB294B9A6942F4006251
:101970009A619A6902F400620092009A9A6942F0B0
:1019800004029A619B6903F004030193019B4FF4E5
:101990004073069306A91F4801F01CF8E1E703F520
:1019A0000433DA6942F00102DA61DA6902F0010215
:1019B0000292029A9A6942F004029A619B6903F0CA
:1019C00004030393039B0323069306A9114801F024
:1019D00001F8C6E70E4BDA6942F00402DA61DA690F
:1019E00002F004020492049A9A6942F008029A6191
:1019F0009B6903F008030593059BC023069306A982
:101A0000054800F0E7FFACE7002C0140000800406B
:101A10000010024000080140000C01400268094B20
:101A20009A4200D0704782B003F50333DA6942F07E
:101A30000202DA61DB6903F002030193019B02B049
:101A4000704700BF0004004010B586B00023029329
:101A50000393049305930268154B9A4201D006B094
:101A600010BD03F503339A6942F004029A619A6942
:101A700002F004020092009A9A6942F008029A6108
:101A80009B6903F008030193019BC0230293022486
:101A90000394059402A9074800F09CFF03230293D6
:101AA0000394059402A9044800F094FFD7E700BF0F
:101AB0000004004000080140000C014030B587B030
:101AC0000023029303930493059302681B4B9A42ED
:101AD00001D007B030BD03F5E633DA6942F40032D5
:101AE000DA61DA6902F400320092009A9A6942F0EF
:101AF00004029A619B6903F004030193019B042390
:101B0000029302230393032305930D4D02A9284654
:101B100000F060FF082302930024039404940DEB6B
:101B20000301284600F056FF22462146262001F0F8
:101B3000F7F8262001F02CF9CBE700BF0044004065
:101B40000008014070B4036A23F001030362036AD2
:101B50004668826922F073020C6844EA020523F0A9
:101B600002028B6813430D4CA04209D00B4CA042DB
:101B70000DD0466085614A684263036270BC70475D
:101B800023F00803CA68134323F00403EEE726F4A6
:101B900040764A6932438E691643EAE7002C0140D9
:101BA00030B4036A23F480730362036A4568C26930
:101BB00022F073020C68224323F400738C6843EA1A
:101BC00004230F4CA04209D00D4CA0420ED045601A
:101BD000C2614A68C263036230BC704723F4006389
:101BE000CC6843EA042323F48063EDE725F44055F1
:101BF0004C6945EA04158C6945EA0415E7E700BF1E
:101C0000002C014030B4036A23F480530362036A5A
:101C10004468C26922F4E6420D6842EA052223F4D0
:101C200000538D6843EA0533074DA84206D044604F
:101C3000C2614A680264036230BC704724F4804485
:101C40004D6944EA8514F2E7002C014010B4036AA0
:101C5000046A24F001040462846924F0F00C4CEA64
:101C6000021223F00A030B438261036210BC704727
:101C700010B4046A24F0100404628469036A24F432
:101C8000704C4CEA023223F0A00343EA0113826154
:101C9000036210BC7047836823F070030B4343F06A
:101CA000070383607047704703681B4A90420AD05D
:101CB000B0F1804F07D0A2F59432904203D002F5E4
:101CC0008062904203D123F070034A681343124AA2
:101CD00090420AD0B0F1804F07D0A2F594329042E2
:101CE00003D002F58062904203D123F44073CA68A6
:101CF000134323F080034A69134303608B68C36274
:101D00000B688362044B984202D001234361704701
:101D10000B690363F9E700BF002C014040B310B525
:101D2000044690F83D30F3B1022384F83D3021465B
:101D300051F8040BFFF7B8FF012384F8463084F80C
:101D40003E3084F83F3084F8403084F8413084F8E5
:101D5000423084F8433084F8443084F8453084F8C5
:101D60003D30002010BD80F83C30FFF757FEDBE728
:101D70000120704740B310B5044690F83D30F3B1F0
:101D8000022384F83D30214651F8040BFFF78CFF05
:101D9000012384F8463084F83E3084F83F3084F8DC
:101DA000403084F8413084F8423084F8433084F87D
:101DB000443084F8453084F83D30002010BD80F870
:101DC0003C30FFF770FFDBE701207047002857D059
:101DD00070B50D46044690F83D30002B4BD00223E1
:101DE00084F83D302268936823F4804323F007038E
:101DF0009360214651F8040BFFF756FF21688A686B
:101E00008B690E6A2868104323F4407C2CF0030C85
:101E1000AA68AB6942EA032343EA0C0323F47C4338
:101E200023F0FC03EA69D5F80CC04CEA022C4CEA1A
:101E3000030C2A6A13032A6943EA021343EA0C03D8
:101E400026F022066A686D6942EA0512324388600C
:101E500021688B6123681A62012384F8463084F874
:101E60003E3084F83F3084F8423084F8433084F8C0
:101E70003D30002070BD80F83C30FFF761FDAEE7DB
:101E80000120704730B4036A23F010030362036A31
:101E90004468826922F4E6420D6842EA052223F092
:101EA00020038D6843EA05130E4DA84209D00D4D5D
:101EB000A8420ED0446082614A688263036230BCEB
:101EC000704723F08003CD6843EA051323F04003F5
:101ED000EDE724F440644D6944EA85048D6944EAE1
:101EE0008504E7E7002C014038B590F83C30012B21
:101EF00060D004460D46012380F83C300C2A1AD8E5
:101F0000DFE802F0071919191D19191931191919E2
:101F100044000068FFF716FE2268936943F0080347
:101F200093612268936923F00403936122689369A3
:101F300029690B439361002084F83C0038BD006898
:101F4000FFF7A0FF2268936943F40063936122685E
:101F5000936923F48063936122689369296943EA52
:101F600001239361E7E70068FFF71AFE2268D3694F
:101F700043F00803D3612268D36923F00403D361DB
:101F80002268D36929690B43D361D4E70068FFF75E
:101F900039FE2268D36943F40063D3612268D369B0
:101FA00023F48063D3612268D369296943EA01235A
:101FB000D361C0E70220C1E710B4846824F47F4CE9
:101FC00042EA03220A4342EA0C02826010BC7047D4
:101FD00090F83C30012B66D010B50446012380F800
:101FE0003C30022380F83D300268936823F47F433D
:101FF00023F0770393600B68602B40D022D8402BEE
:1020000047D00BD9502B0ED1CA6849680068FFF73A
:102010001DFE50212068FFF73EFE04E0202B0CD06F
:1020200008D9302B09D0012384F83D30002084F8F2
:102030003C0010BD0BB1102BF5D119462068FFF7FD
:102040002AFEF0E7702B0ED0B3F5005FEBD1CB6822
:102050004A6889680068FFF7AFFF2268936843F415
:1020600080439360DFE7CB684A6889680068FFF7C0
:10207000A3FF2268936843F077039360D3E7CA68AD
:1020800049680068FFF7F4FD60212068FFF703FE50
:10209000C9E7CA6849680068FFF7D8FD4021206891
:1020A000FFF7F9FDBFE70220704701F01F01012390
:1020B00003FA01FC036A23EA0C030362036A02FACF
:1020C00001F10B430362704710B50446084651BB4B
:1020D00094F83E30DBB2013B18BF0123002B5BD1EB
:1020E000002839D1022384F83E30012201462068BD
:1020F000FFF7DBFF23682A4A93423DD02368284A32
:1021000093423ED0B3F1804F3BD0A2F5943293423C
:1021100037D002F58062934233D01A6842F0010250
:102120001A60002039E0042908D008290DD094F85D
:102130004130DBB2013B18BF0123CFE794F83F30B9
:10214000DBB2013B18BF0123C8E794F84030DBB293
:10215000013B18BF0123C1E7042805D0082807D098
:10216000022384F84130C0E7022384F83F30BCE703
:10217000022384F84030B8E75A6C42F400425A64B3
:10218000BCE79A6802F00702062A07D01A6842F0F4
:1021900001021A60002000E0012010BD0020FCE7D1
:1021A000002C014038B5044690F83E00C0B294F8C7
:1021B0003F3094F84220D2B294F843C00D46B1B9F2
:1021C000012849D1012A48D1022384F83E3084F8FD
:1021D00042307DB3042D39D0012200212068FFF761
:1021E00064FF012204212068FFF75FFF27E0DBB2D4
:1021F0005FFA8CFC042912D0012833D1012B2CD199
:10220000012A31D1BCF1010F30D1022384F83E30D4
:1022100084F83F3084F8423084F84330D9E7012B0A
:102220001CD1BCF1010F1BD1022384F83F3084F88C
:102230004330CEE7012200212068FFF736FF2268F5
:10224000136843F001031360002006E0012204211B
:102250002068FFF72AFFF2E7012038BD0120FCE7E4
:102260001846FAE70120F8E71846F6E71046F4E7C3
:1022700090F83C30012B2CD010B4012380F83C3076
:10228000022380F83D3003685A689C6822F0700C85
:102290000A6842EA0C025A6003680F4A93420AD065
:1022A000B3F1804F07D0A2F59432934203D002F5E8
:1022B0008062934204D124F080044A6814439C60F5
:1022C000012380F83D30002380F83C30184610BCD4
:1022D00070470220704700BF002C014010B5044633
:1022E0000E4B18784FF47A73B3FBF0F30C4A106876
:1022F000B0FBF3F000F05AFD68B90F2C01D90120B2
:102300000AE0002221464FF0FF3000F009FD054BA6
:102310001C60002000E0012010BD00BF0000002074
:10232000080000200400002008B5074A136843F0A5
:1023300010031360032000F0E1FC0F20FFF7CEFF35
:10234000FFF7DCFA002008BD00200240034A1168B4
:10235000034B1B780B441360704700BF88040020B8
:1023600000000020014B1868704700BF880400205F
:1023700082B0084B1B68084AA2FB03235B0A00FBE0
:1023800003F3019300BF019B5A1E0192002BF9D168
:1023900002B0704708000020D34D6210002800F002
:1023A000F18170B582B00446036813F0010F2CD0A0
:1023B000994B5B6803F00C03042B1DD0964B5B68B4
:1023C00003F00C03082B12D06368B3F5803F41D0B3
:1023D000002B55D103F1804303F504331A6822F42E
:1023E00080321A601A6822F480221A6037E08A4B21
:1023F0005B6813F4803FE7D0874B1B6813F4003F02
:1024000003D06368002B00F0BF81236813F0020F34
:1024100075D0814B5B6813F00C0F5FD07E4B5B680F
:1024200003F00C03082B54D02369002B00F08A80A2
:102430007A4B01221A60FFF795FF0546764B1B6821
:1024400013F0020F75D1FFF78DFF401B0228F5D95D
:1024500003209EE1704A136843F48033136063687D
:1024600043B3FFF77FFF05466B4B1B6813F4003F38
:10247000CBD1FFF777FF401B6428F5D9032088E113
:10248000B3F5A02F09D0644B1A6822F480321A6089
:102490001A6822F480221A60E1E703F18043A3F571
:1024A0003C331A6842F480221A601A6842F480327F
:1024B0001A60D4E7FFF756FF0546574B1B6813F425
:1024C000003FA2D0FFF74EFF401B6428F5D9032040
:1024D0005FE1514B5B6813F4803FA5D14E4B1B6805
:1024E00013F0020F03D02369012B40F04F814A4AB9
:1024F000136823F0F803616943EAC103136023689A
:1025000013F0080F33D0A369002B5CD0434B01229A
:10251000C3F88024FFF726FF05463F4B5B6A13F0A4
:10252000020F21D1FFF71EFF401B0228F5D903201F
:102530002FE1394A136823F0F803616943EAC103C4
:102540001360DCE7354B00221A60FFF70BFF0546EE
:10255000314B1B6813F0020FD1D0FFF703FF401B74
:102560000228F5D9032014E10120FFF701FF2368B9
:1025700013F0040F00F09680274BDB6913F0805FA7
:1025800034D1254BDA6942F08052DA61DB6903F01D
:1025900080530193019B0125214B1B6813F4807F1D
:1025A00026D0E368012B3DD0002B53D103F18043AB
:1025B00003F504331A6A22F001021A621A6A22F041
:1025C00004021A6233E0154B0022C3F88024FFF79F
:1025D000C9FE0546104B5B6A13F0020FC7D0FFF728
:1025E000C1FE401B0228F5D90320D2E00025D3E725
:1025F0000B4A136843F480731360FFF7B3FE06467B
:10260000074B1B6813F4807FCBD1FFF7ABFE801B19
:102610006428F5D90320BCE00010024000004242CB
:10262000007000405F4A136A43F001031362E368DD
:1026300033B3FFF797FE06465A4B1B6A13F0020F9F
:102640002FD1FFF78FFE801B41F288339842F3D9D8
:1026500003209EE0052B09D0524B1A6A22F001029A
:102660001A621A6A22F004021A62E0E74D4B1A6AF3
:1026700042F004021A621A6A42F001021A62D6E7B4
:10268000FFF770FE0646474B1B6A13F0020F08D097
:10269000FFF768FE801B41F288339842F3D903208C
:1026A00077E0E5B9E369002B72D03E4A526802F048
:1026B0000C02082A56D0022B17D03B4B00221A6678
:1026C000FFF750FE0446374B1B6813F0007F47D0DE
:1026D000FFF748FE001B0228F5D9032059E0314AD4
:1026E000D36923F08053D361DCE72F4B00221A66B5
:1026F000FFF738FE05462B4B1B6813F0007F06D012
:10270000FFF730FE401B0228F5D9032041E0236A81
:10271000B3F5803F1AD023494B6823F47413226A1F
:10272000606A024313434B601F4B01221A66FFF796
:1027300019FE04461B4B1B6813F0007F0ED1FFF7F8
:1027400011FE001B0228F5D9032022E0154A536828
:1027500023F40033A1680B435360DCE7002018E04A
:10276000002016E0012B16D00E4B5B6803F480317D
:10277000226A914211D103F47013626A93420ED11E
:10278000002006E001207047012002E0012000E067
:10279000002002B070BD0120FBE70120F9E7012015
:1027A000F7E700BF001002400000424286B0174B1E
:1027B0000FCB0DF1180C0CE90F0040F20123ADF81E
:1027C0000430134B5B6803F00C02082A02D0114856
:1027D00006B07047C3F3834218326A4412F8100CF3
:1027E00013F4803F0DD00A4B5B68C3F340431833AA
:1027F0006B4413F8143C074A02FB00F0B0FBF3F003
:10280000E6E7054B03FB00F0E2E700BF2C8D000874
:102810000010024000127A0000093D00002800F07C
:10282000A08070B50D460446524B1B6803F00703A9
:102830008B420BD24F4A136823F007030B431360FC
:10284000136803F007038B4240F08D80236813F078
:10285000020F17D013F0040F04D0474A536843F413
:10286000E0635360236813F0080F04D0424A5368B2
:1028700043F460535360404A536823F0F003A16867
:102880000B435360236813F0010F31D06368012BB1
:1028900020D0022B25D0384A126812F0020F64D0E3
:1028A00035494A6822F0030213434B60FFF75AFD93
:1028B0000646314B5B6803F00C036268B3EB820F92
:1028C00016D0FFF74FFD801B41F288339842F0D9B4
:1028D000032045E0284A126812F4003FE0D10120AD
:1028E0003EE0254A126812F0007FD9D1012037E07E
:1028F000204B1B6803F00703AB420AD91D4A13683B
:1029000023F007032B431360136803F00703AB4264
:102910002DD1236813F0040F06D0174A536823F40F
:10292000E063E1680B435360236813F0080F07D09E
:10293000114A536823F46053216943EAC103536089
:10294000FFF734FF0C4B5B68C3F303130B4AD35CF4
:10295000D8400B4B18600B4B1868FFF7BFFC0020EA
:1029600070BD012070470120FAE70120F8E701203F
:10297000F6E700BF0020024000100240408D000832
:102980000800002004000020014B1868704700BFB9
:102990000800002008B5FFF7F7FF044B5B68C3F39E
:1029A0000223034AD35CD84008BD00BF0010024098
:1029B000508D000808B5FFF7E7FF044B5B68C3F3D1
:1029C000C223034AD35CD84008BD00BF00100240B8
:1029D000508D000870B582B00024A446A6E0804D5A
:1029E000AA4210D007D97F4DAA420CD005F58035F8
:1029F000AA4208D013E0A5F58015AA4203D005F538
:102A00007025AA4207D18A68002A58D0012A51D0DD
:102A10004361082403E0A5F58015AA42F3D0BEF176
:102A2000FF0F4ED80646BEF1FF0F4CD84FEA8C027E
:102A300033680F25954023EA050304FA02F2134395
:102A400033604B6813F0805F6ED0674B9A6942F039
:102A500001029A619B6903F001030193019B4FEA14
:102A60009C02951C614B53F825600CF003039D00FC
:102A70000F23AB4026EA03065D4B984229D003F5AD
:102A80008063984200F08E8003F58063984200F0E6
:102A90008B8003F58063984219D004231AE0CC6838
:102AA000BDE7CC680434BAE7CC680834B7E7CC6833
:102AB0000C34B4E703610824B1E70024AFE7042431
:102AC000ADE7061DAFE7ACF108029200B0E70323C3
:102AD00000E00023AB4033430232444D45F822303E
:102AE0004B6813F4803F61D0424A136843EA0E03F7
:102AF00013604B6813F4003F5ED03E4A536843EACC
:102B00000E0353604B6813F4801F5BD0394A9368FF
:102B100043EA0E0393604B6813F4001F58D0354A04
:102B2000D36843EA0E03D3600CF1010C0A6832FA51
:102B30000CF353D0012303FA0CF302EA030E33EA39
:102B40000202F1D14A68122A3FF649AF122A3FF633
:102B500066AF01A555F822F0072A00089F2A000851
:102B6000A92A0008BB2A00081F2A00081F2A0008FB
:102B70001F2A00081F2A00081F2A00081F2A000811
:102B80001F2A00081F2A00081F2A00081F2A000801
:102B90001F2A00081F2A00081F2A0008A32A00086D
:102BA000AF2A0008012395E7022393E7114A13682F
:102BB00023EA0E0313609CE70E4A536823EA0E03D0
:102BC00053609FE70B4A936823EA0E039360A2E7E2
:102BD000084AD36823EA0E03D360A5E702B070BDAC
:102BE00000002210000031100010024000000140DF
:102BF00000080140000401400AB101617047090466
:102C00000161704708B5054B5B69034200D108BDFF
:102C1000024B5861FEF7C4FAF9E700BF0004014017
:102C200090F82130022B06D004238363002380F820
:102C30002030012070470268136823F00E031360F0
:102C40000268136823F001031360036CC16B012257
:102C500002FA03F34B6080F82120002380F8203033
:102C60001846704708B590F82130022B03D0042392
:102C70008363012008BD0268136823F00E0313600C
:102C80000268136823F0010313600368194A934232
:102C900014D0143293421FD0143293421ED01432F7
:102CA00093421ED0143293421ED01432934202D06B
:102CB0004FF0807203E04FF4801200E001220E4BCF
:102CC0005A60012380F82130002380F82030436BC4
:102CD0006BB198470020CDE71022F0E74FF48072E7
:102CE000EDE74FF48052EAE74FF48032E7E7002047
:102CF000C0E700BF0800024000000240074AD36856
:102D000023F4E0631B041B0C000200F4E0600343A7
:102D100043F0BF6343F40033D360704700ED00E03D
:102D200000B5194BDB68C3F30223C3F1070CBCF1F8
:102D3000040F28BF4FF0040C03F1040EBEF1060F80
:102D400018D9033B4FF0FF3E0EFA0CFC21EA0C01B0
:102D500099400EFA03F322EA0303194300280BDB20
:102D60000901C9B200F1604000F5614080F800132C
:102D70005DF804FB0023E5E700F00F000901C9B28C
:102D8000024B1954F4E700BF00ED00E014ED00E041
:102D9000002807DB00F01F02400901239340024A8C
:102DA00042F82030704700BF00E100E00138B0F188
:102DB000807F0BD24FF0E0235861054AF02182F862
:102DC00023100020986107221A6170470120704784
:102DD00000ED00E00268D36823F49073D3600268CA
:102DE000536923F001035361036B012B05D02023AA
:102DF00080F83E300023036370470268D36823F0F5
:102E00001003D360F3E790F83D30DBB2212B01D003
:102E1000022070478368B3F5805F17D0036A5A1C9D
:102E200002621A7803685A60C38C9BB2013B9BB262
:102E3000C3844BB90268D36823F08003D36002686F
:102E4000D36843F04003D360002070470369002B30
:102E5000E4D1036A1B880268C3F308035360036A62
:102E600002330362E0E7000010B50446026813690C
:102E700023F44053C1680B43136183680269134311
:102E800042691A430168CB6823F4B05323F00C0362
:102E90001343CB600268536923F4407381690B4389
:102EA00053610268134B9A4220D0FFF773FD02462C
:102EB00002EB820202EB820263689B00B2FBF3F238
:102EC0000D48A0FB02314909642303FB11231B01B8
:102ED0003233A0FB03235B0903F0F00202EB011283
:102EE00003F00F03216813448B6010BDFFF762FDF0
:102EF0000246DDE7003801401F85EB512DE9F8431C
:102F000005460F4616469946DDF820802C68246851
:102F100037EA04030CBF4FF0010C4FF0000CB4452E
:102F20001FD1B8F1FF3FF1D0B8F1000F05D0FFF786
:102F300019FAA0EB09004045E8D92A68D36823F4C0
:102F4000D073D3602A68536923F0010353612023AF
:102F500085F83D3085F83E30002385F83C3003206D
:102F600000E00020BDE8F88358B310B5044690F89F
:102F70003D300BB3242384F83D302268D36823F41A
:102F80000053D3602046FFF76FFF2268136923F4D4
:102F9000904313612268536923F02A035361226826
:102FA000D36843F40053D36000202064202384F8C6
:102FB0003D3084F83E3010BD80F83C30FEF77EFD99
:102FC000D8E7012070472DE9F04182B01E4690F805
:102FD0003D30DBB2202B54D104460D4690460029EB
:102FE00053D0002A53D090F83C30012B51D001230C
:102FF00080F83C3000230364212380F83D30FFF744
:10300000B1F90746A4F82480A4F82680A368B3F594
:10301000805F05D04FF00008002384F83C3012E0B8
:10302000236913B14FF00008F6E7A8460025F3E73F
:1030300038F8023B2268C3F308035360E28C92B273
:10304000013A92B2E284E38C9BB273B100963B46A4
:10305000002280212046FFF751FFE0B9002DE7D084
:1030600015F8012B23685A60E8E700963B460022DA
:1030700040212046FFF742FF78B9202384F83D30F5
:1030800000E0022002B0BDE8F0810120FAE7012053
:10309000F8E70220F6E70320F4E70320F2E77047A1
:1030A00008B50168CA6822F04002CA60202280F890
:1030B0003D20FFF7F4FF002008BD704708B5406AC7
:1030C0000023C385C384FFF7F8FF08BD704790F85D
:1030D0003E30DBB2222B60D18368B3F5805F46D0EF
:1030E000826AB3F5805F04D0002B4DD10369002BB9
:1030F0004AD103685B681370836A01338362C38DAE
:103100009BB2013B9BB2C385002B48D100B583B075
:103110000268D36823F02003D3600268D36823F4E5
:103120008073D3600268536923F001035361202345
:1031300080F83E30036B012B2CD10023036302681F
:10314000D36823F01003D36003681A6812F0100FDD
:1031500006D0002201921A6801925B680193019BDC
:10316000818DFFF7B3FF002003B05DF804FB026917
:10317000002AB5D1826A03685B68C3F30803138031
:10318000836A02338362BAE703685B6803F07F03F4
:103190001370B1E7FEF738F8E5E70220704700202A
:1031A0007047000030B583B0044602681368D068E9
:1031B000516913F00F0505D113F0200F02D010F064
:1031C000200F19D12DB111F0010119D110F4907F08
:1031D00016D1216B012975D013F0800F03D010F0A8
:1031E000800F40F0D78013F0400F03D010F0400F55
:1031F00040F0D48003B030BD2046FFF768FFF9E708
:1032000013F0010F06D010F4807F03D0226C42F03F
:103210000102226413F0040F04D019B1226C42F0B1
:103220000202226413F0020F04D019B1226C42F0A2
:103230000402226413F0080F07D010F0200F00D111
:1032400019B1226C42F008022264226C002AD1D00B
:1032500013F0200F02D010F0200F21D123685B69FA
:1032600003F04003226C12F0080F00D123B3204674
:10327000FFF7B0FD23685A6912F0400F18D05A6961
:1032800022F040025A61A36B73B1464A5A63A06BA5
:10329000FFF7E8FC0028ADD0A06B436B9847A9E787
:1032A0002046FFF714FFD9E72046FFF706FFA1E706
:1032B0002046FFF702FF9DE72046FFF7FEFE0023B2
:1032C000236497E713F0100F86D010F0100F83D00F
:1032D000002301931368019353680193019B536981
:1032E00013F0400F32D0A16B0B685B689BB2002BD0
:1032F00080D0A08D98427FF67DAFE3858B69202B2F
:1033000008D1A18DE38D9BB2C91A89B22046FFF77F
:10331000DDFE6FE7D36823F48073D36022685369BE
:1033200023F0010353612268536923F04003536182
:10333000202384F83E30002323632268D36823F0DF
:103340001003D360A06BFFF76BFCDAE7A18DE38D70
:103350009BB2C91A89B2E38D9BB2002B3FF44AAFEE
:1033600000293FF447AFD36823F49073D3602268F9
:10337000536923F001035361202384F83E30002376
:1033800023632268D36823F01003D3602046FFF73D
:103390009DFE2FE72046FFF736FD2BE72046FFF77F
:1033A0007FFE27E7BD300008034681628285C28523
:1033B00000201864222283F83E2083F83C0019681C
:1033C000CA6842F48072CA6019684A6942F0010210
:1033D0004A611A68D36843F02003D360704708B588
:1033E00090F83E30DBB2202B0DD171B17AB190F85C
:1033F0003C30012B0DD0012380F83C3000230363C7
:10340000FFF7D2FF00E0022008BD0120FCE7012009
:10341000FAE70220F8E77047F0B585B0044690F867
:103420001C31472B0DD0482B09D1002380F84630A2
:1034300080F89A3080F8EE30012380F8FC3005B037
:10344000F0BD00F58E7590F82661876CD0F89C0071
:10345000FDF79EF8CDE902013846FDF799F8CDE970
:10346000000132460849284601F0D6F994F8263181
:10347000012B06D0002384F80F31032384F8FC309D
:10348000DDE784F80F31F8E7588D000838B50446B9
:10349000C5694FF07E512846FDF794FDB8B14FF055
:1034A0007E553E492846FCF75BFEFDF795FD00B2D0
:1034B000002831DDE36ACBB9A36A1B68C0F1640060
:1034C00058630122A18E206BFFF796FB38BD0021C7
:1034D0002846FDF74FFD38B931492846FDF754FD20
:1034E0000028DED02E4DDCE70025DAE7042B07D0DC
:1034F000082B0BD0A36A1B68C0F164001864E0E7D6
:10350000A36A1B68C0F164009863DAE7A36A1B68CA
:10351000C0F16400D863D4E700BBE36A5BB9A36A77
:103520001B6800225A630022A18E206BFFF764FB08
:103530000023E361CAE7042B06D0082B09D0A36A55
:103540001B6800221A64EEE7A36A1B6800229A63D4
:10355000E9E7A36A1B680022DA63E4E70028B5DA2A
:10356000404200B2E36A43B9A36A1B685863002271
:10357000A18E206BFFF740FBA8E7042B05D0082B9A
:1035800007D0A36A1B681864F1E7A36A1B689863F5
:10359000EDE7A36A1B68D863E9E700BF0000C842F3
:1035A000000080BF03685A6A12B20B6813440B60B4
:1035B000036800225A6270472DE9F0410C468B697E
:1035C000C51A2846FCF7D2FF25A3D3E90023FDF74F
:1035D00037F806460F46E068FCF7DAFF32463B460E
:1035E000FCF778FEFDF724FB0646E06027682846D6
:1035F000FDF728FC3946FCF7B3FD07466168304605
:10360000FCF7AEFD01463846FDF768FBFCF7C0FF4E
:1036100006460F46D4F808802069281AFDF712FCE8
:103620004146FCF79DFDFCF7B3FF0DA3D3E9002352
:10363000FDF730F902460B4630463946FCF74AFEA4
:10364000FDF7F6FAE0612561284600F0EFF904285D
:1036500004DC012384F844300023E361BDE8F081F9
:10366000B81E85EB51B89E3F90F84530A3B110B518
:103670000446037D0133DBB20375022B00D810BD75
:1036800000F11801406AFFF78DFF2146206AFFF71D
:1036900093FF00232375F2E7704710B5044690F8B6
:1036A000453043B9006CFCF75BFDFDF795FC2062EB
:1036B000012384F845302046FFF7E8FE94F84430B3
:1036C00003B910BD0023E3612046FFF7DFFE0023AE
:1036D00084F845302375F4E710B50446016CC06CDE
:1036E000FCF73EFDFDF778FC2062012384F84530AD
:1036F00094F8453093B12046FFF7C8FE94F8443063
:10370000002BF5D00023E3612046FFF7BFFE002326
:1037100084F84530237584F84430E9E710BD000093
:103720002DE9F04F85B080468946C16C806CFDF76D
:10373000D3FAFCF72DFF05F045FAFDF731FA0546FF
:10374000D9F84C10D9F84800FDF7C6FAFCF720FF6D
:1037500005F038FAFDF724FA83460290284600F077
:1037600065F90446584600F061F90146204600F02C
:1037700068F98246284600F059F90446584600F098
:1037800055F90146204600F056F9CAF100064400FA
:103790004FEA4A030393284600F048F90746584683
:1037A00000F044F9874206DC4FF0010B00272B465E
:1037B0005D469B4643E04FF0000BF7E7D9F84C001D
:1037C000FCF7E6FE50A3D3E90023FCF781FDFDF7EB
:1037D0002FFAC9F84C0059E0BBF1000F10DDD8F802
:1037E0004C00FCF7D5FE48A3D3E90023FCF772FD9B
:1037F000FDF71EFAC8F84C004046FFF76DFF48E0A1
:10380000D8F84C00FCF7C4FE3FA3D3E90023FCF733
:103810005FFDFDF70DFAC8F84C00EDE7D9F84C0054
:10382000FCF7B6FE38A3D3E90023FCF751FDFDF702
:10383000FFF9C9F84C004846FFF74EFF01373846FC
:10384000FCF794FECDE900015046FCF78FFE2EA355
:10385000D3E90023FDF71EF802460B46DDE900011F
:10386000FDF760F900284CD0002DB5D0029B002B4D
:10387000A4DDD9F84C00FCF78BFE23A3D3E9002389
:10388000FCF728FDFDF7D4F9C9F84C004846FFF7CE
:1038900023FF3619D2D4039BF61A85B9029B002B5D
:1038A000BCDDD9F84C00FCF773FE17A3D3E9002365
:1038B000FCF710FDFDF7BCF9C9F84C00BBE7BBF104
:1038C000000F10DDD8F84C00FCF762FE0EA3D3E920
:1038D0000023FCF7FFFCFDF7ABF9C8F84C004046AD
:1038E000FFF7FAFEAAE7D8F84C00FCF751FE06A352
:1038F000D3E90023FCF7ECFCFDF79AF9C8F84C007B
:10390000EDE705B0BDE8F08F9A9999999999C93F6B
:1039100038B504460D4600212846FDF753FB002824
:1039200032D0636873B929463F48FDF7D5F923685B
:103930001D68FDF777FB68630122A189A068FFF786
:103940005BF938BD042B0BD0082B13D02946364821
:10395000FDF7C2F923681D68FDF764FB2864EBE7F7
:1039600029463148FDF7B8F923681D68FDF75AFB71
:10397000A863E1E729462C48FDF7AEF923681D68E6
:10398000FDF750FBE863D7E700212846FDF7F2FA80
:10399000F0B163684BB923681B6800225A630022A8
:1039A000A189A068FFF728F9CBE7042B06D0082BE4
:1039B00009D023681B6800221A64F0E723681B689B
:1039C00000229A63EBE723681B680022DA63E6E7CC
:1039D00000212846FDF7D8FA0028B2D005F10040B2
:1039E000636853B923681D68FDF71CFB68630022F8
:1039F000A189A068FFF700F9A3E7042B07D0082BE3
:103A00000BD023681D68FDF70DFB2864EFE72368E2
:103A10001D68FDF707FBA863E9E723681D68FDF74C
:103A200001FBE863E3E700BF0000C842002800DBB9
:103A300070474042FCE7034608468B4200DA1846CE
:103A40007047034608468B4200DD18467047000069
:103A50000C480D490D4A002302E0D458C4500433E9
:103A6000C4188C42F9D30A4A0A4C002301E01360BF
:103A70000432A242FBD3FFF7CEFC00F00FF8FDF7B3
:103A8000B1FD704700000020E00100209492000882
:103A9000E0010020A0040020FEE7000070B5002631
:103AA0000C4D0D4C641BA410A64209D105F026F95B
:103AB00000260A4D0A4C641BA410A64205D170BD15
:103AC00055F8043B98470136EEE755F8043B984714
:103AD0000136F2E78C9200088C9200088C92000864
:103AE0009092000803460244934200D1704703F8C5
:103AF000011BF9E7002B2DE9F0471F46BBBF03F17F
:103B000000431F4600232D2388B01446129A109DAF
:103B10001370149BDDF84CA023F02008B8F1460F79
:103B200005D0B8F1450F00D10135022300E0032391
:103B300007AA049206AACDE902A2CDE900352246E1
:103B40003B4601F015FEB8F1470F064602D1119B26
:103B5000DB0722D5B8F1460F06EB050910D1337803
:103B6000302B0AD10022002320463946FCF7D0FF33
:103B700018B9C5F10105CAF80050DAF800309944C7
:103B80000022002320463946FCF7C2FF08B1CDF8D9
:103B90001C903022079B4B4507D33046079B159A54
:103BA0009B1B136008B0BDE8F087591C07911A7081
:103BB000F0E70346F7B5002903F8022BB6BF2D2224
:103BC0002B224942092942702BDD0DF10704A4463E
:103BD0000A2791FBF7F60A46A64607FB1615632A45
:103BE00005F13005314604F1FF340EF8015CF0DCDC
:103BF0003031AEF1020504F8011C2946441C614530
:103C00000AD30DF10902A2EB0E02654588BF00221E
:103C10001344181A03B0F0BD11F8012B04F8012F5A
:103C2000EDE7302330318370C170031DF1E70000F0
:103C30002DE9F04F91B00C46DDF8688016461F461E
:103C4000054602F0EFFE036818460993FCF780FA78
:103C500000230E93D8F800300A90073323F00703AF
:103C600003F1080294F81890D4F800B0C8F80020C6
:103C7000D3E90023C4E91223D4E9128A2AF00043CD
:103C80000B934FF0FF3240469C4B0B99FCF772FFB1
:103C900070BB4FF0FF324046984B0B99FCF74CFF3E
:103CA00030BB0022002340465146FCF73BFF10B1D9
:103CB0002D2384F84330924B9248B9F1470F94BFBB
:103CC0009846804603234FF0000A23612BF004033B
:103CD000236033462146284600970FAA00F0D4F906
:103CE000013040F090804FF0FF3011B0BDE8F08F10
:103CF0004246534640465146FCF73CFF48B1BAF1B4
:103D0000000FB8BF2D238048B8BF84F843307F4BE5
:103D1000D3E7636809F0DF015A1C42D106236360D0
:103D2000002206920EAACDE904920DAA4BF48063FC
:103D300003920DF13302CDE90132236063684246FC
:103D40000093284653460B91FFF7D4FE0B9980460B
:103D500047290D9908D1C81C02DB6368994240DDF0
:103D6000A9F102095FFA89F9B9F1650F1FD84A462E
:103D7000013904F150000D91FFF71BFF0E9A8246A6
:103D80001318012A236102DC2268D20701D501330E
:103D900023619DF83330002B9BD02D2384F84330D2
:103DA00097E74729BCD1002BBAD10123B7E7B9F176
:103DB000660F18D1002963680BDD216113B92268F1
:103DC000D00702D501330B4423614FF0000AA165EF
:103DD000DFE713B92268D20701D50233F4E70123E4
:103DE000F2E74FF067090E9B994205DB23682161DA
:103DF000D807EAD54B1CE7E70029CCBF0122C1F167
:103E000002021344E0E723685A0507D423694246B7
:103E100031462846B84701302BD164E7B9F1650F28
:103E200040F2DD80D4E9120100220023FCF770FE8D
:103E3000002833D0012331462846354AB84701309F
:103E40003FF451AFDDE90D239A4202DB2368D80726
:103E50000FD5DDE9092331462846B84701303FF444
:103E600042AF4FF0000804F11A090E9B013B434595
:103E700009DC23689B0700F10281E0680F9B9842F0
:103E8000B8BF184631E701234A4631462846B847AD
:103E900001303FF428AF08F10108E6E70D9B002B45
:103EA00038DC012331462846194AB84701303FF42F
:103EB0001AAFDDE90D23134302D12368D907D8D502
:103EC000DDE9092331462846B84701303FF40BAFFE
:103ED0004FF0000904F11A0A0D9B5B424B4501DCCF
:103EE0000E9B94E70123524631462846B8470130DD
:103EF0003FF4F9AE09F10109EEE700BFFFFFEF7FE4
:103F00006C8D0008708D0008788D0008748D000895
:103F1000D99100080E9AA36D9A42A8BF1A46002AAA
:103F2000914637DC4FF0000B29EAE97904F11A02D7
:103F3000D4F858A0AAEB09035B4533DCDDE90D2377
:103F40009A423BDB2368DA0738D40E9B0D99A3EB2A
:103F50000A02A3EB01099145A8BF9146B9F1000FF0
:103F600034DC4FF0000829EAE97904F11A0ADDE9A6
:103F70000D239B1AA3EB090343457FF77AAF012377
:103F8000524631462846B84701303FF4ACAE08F1FE
:103F90000108ECE71346314642462846B84701304F
:103FA000C0D1A0E60123314628460B92B847013024
:103FB0003FF499AE0B9A0BF1010BB9E73146DDE9FD
:103FC00009232846B8470130BFD18CE64B4631461D
:103FD000284608EB0A02B8470130C2D183E60E9AA0
:103FE000012A01DCDB0737D501234246314628464A
:103FF000B84701303FF477AEDDE909233146284662
:10400000B84701303FF46FAED4E91201002200231B
:10401000FCF77EFDD8B90E9B08F10102013B314649
:104020002846B84701300ED15DE601234A463146A5
:104030002846B84701303FF456AE08F101080E9B00
:10404000013B4345F1DC534604F15002E0E64FF0FA
:10405000000804F11A09F2E701234246DFE70123D1
:104060004A4631462846B84701303FF43CAE08F195
:104070000108E3680F995B1A4345F0DCFDE64FF059
:10408000000804F11909F4E72DE9F04716469946AE
:104090008A680B6907469342B8BF1346336091F8AC
:1040A00043200C46DDF820800AB1013333602368D9
:1040B000990642BF336802333360256815F0060560
:1040C00006D104F1190AE36832689B1AAB4228DC76
:1040D00094F84320131E226818BF012392062DD4A2
:1040E0004946384604F14302C047013020D02368D6
:1040F000E56803F00603042B18BF002532684FF073
:104100000006A36808BFAD1A226908BF25EAE57555
:104110009342C4BF9B1AED181A34B5421AD100203D
:1041200008E00123524649463846C047013003D1D2
:104130004FF0FF30BDE8F0870135C4E73020E118CB
:1041400081F843005A1C94F845102244023382F847
:104150004310C5E70123224649463846C04701308F
:10416000E6D00136D9E700002DE9FF470F7E9146E2
:10417000782F80460C469A460C9D01F1430207D8E1
:10418000622F0AD8002F00F0D980582F00F0A480A9
:1041900004F1420584F842703AE0A7F16303152B5D
:1041A000F6D801A151F823F0014200081542000899
:1041B0009141000891410008914100089141000897
:1041C0001542000891410008914100089141000802
:1041D00091410008234300084542000805430008B8
:1041E00091410008914100084543000891410008B1
:1041F0004542000891410008914100080D43000824
:104200002B681A1D1B682A6004F1420584F84230AD
:104210000123A4E020682968060601F104030AD5F9
:104220000E682B60002E03DA2D23764284F843308B
:104230000A235E4819E00E6810F0400F2B6018BF8B
:1042400036B2EFE72B682068191D2960010601D5F9
:104250001E6802E04606FBD51E886F2F0CBF0823A0
:104260000A235248002184F843106568002DA8BF36
:104270002168A560A4BF21F0040121600EB9002DC2
:104280004DD01546B6FBF3F103FB1167C75D05F88A
:10429000017D3746BB420E46F4D9082B0BD123686B
:1042A000DE0708D5236961689942DEBF302305F82F
:1042B000013C05F1FF35521B22614B462146404629
:1042C000CDF800A003AAFFF7DFFE01304CD14FF07C
:1042D000FF3004B0BDE8F087344881F845702968A4
:1042E000236851F8046B29601D0614D5DF0744BF0D
:1042F00043F0200323601EB9236823F020032360CA
:104300001023AFE7236843F0200323607823284875
:1043100084F84530E3E7590648BFB6B2E6E71546EC
:10432000BBE72B682668181D6169286035061B6885
:1043300001D5196002E07006FBD5198000231546EF
:104340002361BAE72B6800211A1D2A601D68626884
:10435000284602F097FB08B1401B60606368236148
:10436000002384F84330A8E72A464946404623699B
:10437000D0470130ABD023689B0713D4E068039B80
:104380009842B8BF1846A4E7012332464946404642
:10439000D04701309BD00135E36803995B1AAB42EB
:1043A000F2DCEBE7002504F11906F5E77C8D000847
:1043B0008D8D00082DE9F04F87B003938B68174669
:1043C0005A1EB2F5AE7F85BF6FF4AE755B19002340
:1043D000029388BF40F25D138B464FF000058CBFFF
:1043E0008B6002930B68804643F4F0634BF81C3BF0
:1043F0000C465E46AA46A946CDE904550195A26839
:1044000052B13B681B784E2B64D8402B3CD8A3F1AB
:104410002B01C8B20E283AD9B9F1000F03D0236896
:1044200023F4807323600AF1FF3ABAF1010F00F21E
:1044300013815E4500F205810125284607B0BDE8DD
:10444000F08FA3F161020D2AE6D801A151F822F004
:104450008F45000819440008194400081944000851
:10446000EF450008C7450008194400081944000832
:104470009D45000819440008194400081944000823
:104480001944000855450008A3F14102DBE70E2955
:10449000C2D801A050F821F047450008194400088F
:1044A00047450008DB45000819440008F5440008AA
:1044B0003145000831450008314500083145000804
:1044C00031450008314500083145000831450008F4
:1044D000314500086E2B09D8602BB2D8542B77D009
:1044E000592B99D1072D97D1082529E0742B6FD02E
:1044F000792BF6E72168C8051AD5029B21F08001C7
:10450000216009F101091BB1013B01320293A26054
:10451000A368013BA3602369013323617B68013BEE
:10452000002B7B6040F384803B6801333B6066E78F
:104530001AEB050F7FF470AF226822F4C07222607C
:1045400006F8013BE4E7226810067FF565AF22F02C
:104550008002F4E7BAF1000F0ED1B9F1000F0ED1CD
:10456000226802F4E061B1F5E06F08D122F4F06254
:104570004FF0010A2260E3E7BAF1020F55D0012D96
:1045800002D0042D7FF448AF0135EDB2D8E7BAF17F
:10459000010F7FF441AF4FF0020AD1E77DB9B9F1C5
:1045A000000F7FF43CAF226802F4E061B1F5E06FE8
:1045B0007FF439AF22F4F06201252260C0E7032DB9
:1045C000E2D0052DDEE7022D7FF426AF0325B7E705
:1045D000062D7FF421AF0725B2E7226891057FF50C
:1045E0001BAF22F420722260CDF80490A8E7226865
:1045F00002F4A061B1F5806F06D050057FF50CAFD5
:10460000B9F1000F3FF40FAF910558BF019922F4A3
:10461000F06258BFA9EB010142F4C0724FF00009EB
:1046200058BFCDE9041622608AE74FF0030A87E7F6
:1046300039464046D4F88031984700283FF4DFAE31
:10464000EAE6D4F87C313A46404616F8011D984710
:104650002369013B2361ECE66B1E062B25D8022D56
:1046600036D85E457FF6E8AED4F87C313A4640460F
:1046700016F8011D98472369013B2361F1E7029871
:10468000D4F87C3110F8011D3A4602904046984714
:104690002369013B23610AF1FF3A5FFA8AFABAF112
:1046A000020FECD1033DEDB2761B2368DA052FD55E
:1046B0005B0510D55E457FF6BFAED4F87C313A4637
:1046C000404616F8011D98472369013B2361F1E735
:1046D000AA460296DFE716F8011C2369652903F153
:1046E000FF3306F1FF3523610CD045290AD0D4F8F9
:1046F0007C313A4640469847236916F8021C013B34
:10470000B51E23613A464046D4F87C3198472E4680
:10471000256815F0100555D13570236803F4C06382
:10472000B3F5806F1BD1019B4B45A3EB090223D14D
:1047300000225946404600F0E7FE2268039B12F033
:10474000020F06460F461B6821D01A1D03990A6006
:104750001B68C3E90067E3680133E3606DE6049B0F
:10476000002BE5D005990A232A464046013100F086
:104770004DFF049B059EC21A04F26F139E4228BF90
:1047800004F5B7763046104900F026F8D0E712F06D
:10479000040F03F10402D9D1DDF80CC0CCF80020DD
:1047A000D3F8008002460B46FCF7E4F928B107482D
:1047B00000F00EF8C8F80000CDE730463946FCF7A7
:1047C00037FAF7E7002538E69E8D00082B9200089F
:1047D000004870470000C07F0EB46FF0004100B584
:1047E0009CB01DAB029006900791049108480949BE
:1047F00053F8042B0591006802A9019302F062FFAF
:104800000022029B1A701CB05DF804EB03B07047E5
:104810000C0000200802FFFF0EB44FF4017230B507
:104820009CB01FAC54F8045BADF8142002900690C5
:10483000FBF78EFC0B4B03900B9300230F93149309
:104840004FF6FF7307900848ADF816302A46234606
:1048500002A90068019403F08FF81CB0BDE8304055
:1048600003B070478F4800080C00002010B50C46BC
:10487000B1F90E1003F04CFB0028ABBF636DA389A8
:104880001B1823F48053ACBF6365A38110BD0020C7
:1048900070472DE9F0411F468B890546DB050C4624
:1048A000164605D502230022B1F90E1002F0BEF81B
:1048B000A389324623F48053A38128463B46B4F9AA
:1048C0000E10BDE8F04100F0A3BE10B50C46B1F9E2
:1048D0000E1002F0ABF8431CA38915BF606523F4EA
:1048E000805343F48053A38118BFA38110BDB1F955
:1048F0000E1000F09FBE2DE9F0410F46904602F0E9
:104900004DFC04460D46B8F1000F11D0C7F30A5311
:10491000C3F16B03002B0BDD00241B0503F17F5556
:1049200005F5401522462B46FBF78AFE04460D4648
:1049300020462946BDE8F0812DE9F04F9B46002333
:104940009FB01A939E4B82461F680E4638461592BA
:10495000FBF7FEFB4FF0000804464FF000091996E4
:10496000199B1A782B2A4CD03AD80D2A33D8082A0A
:1049700033D8002A3DD000230A93199D2B78302B81
:1049800040F0AA806B7803F0DF03582B66D10A9BB6
:10499000504601931AAB00938A4ACDF808B01BAB7E
:1049A00019A901F041FD10F00706044605D0062EB6
:1049B00029D10023013519950A93159B002B40F04E
:1049C0008A850A9BD3B1424609F100431046194635
:1049D0001FB0BDE8F08F202ACDD101331993BFE776
:1049E0002D2AC8D101220A925A1C19925B78002BF9
:1049F000C3D1159B1996002B40F06B8542464B4660
:104A0000E4E70022EFE71A9A3AB135211CA802F038
:104A1000C9FC50461A9902F091F8013E042E06D8BE
:104A2000DFE806F00A0314170A00DDE91C892107F4
:104A3000C3D549F00049C0E71B9ADDE91C8302F2A7
:104A4000334223F4801343EA0259F0E7DFF8789108
:104A5000EDE76FF000494FF0FF38E8E7199B5A1C6B
:104A600019925B78302BF9D0002BA6D00123079345
:104A7000199B0A22089300239B46CDE90533199818
:104A80000578A5F13003D9B2092927D9224639463C
:104A900003F09EFA002833D000202A465C460346E5
:104AA0000490652A01D0452A14D11CB9079A024303
:104AB0009FD00024199E721C199272782B2A79D0EB
:104AC0002D2A00F083800027A2F13001092940F24D
:104AD0008380199600259FE00023C8E7BBF1080FEB
:104AE000D5BF0699059902FB013302FB013300F1A2
:104AF0000100D4BF069305930BF1010B1990BEE79B
:104B0000199B1A1919921A5DBBF1000F36D05C4639
:104B10000490A2F13003092B12D90123C1E7199B9C
:104B200001305A1C19925A78302AF8D0A2F1310378
:104B3000082B00F2D584049000200446199B0893AA
:104B4000303A00F1010313D0049905191944049176
:104B500023460A21AB4213D12318082B04F1010488
:104B600004441BDC0A23069903FB0123069300235C
:104B7000199A1846511C19915278CAE75846D3E73A
:104B8000082B04DC069F4F4306970133E2E75F1CC6
:104B9000102FDEBF059F4F430597F6E7102CDFBFB0
:104BA0000A23059903FB01230593E0E700230493FF
:104BB00001237BE70027B21C1992B27884E700BF7B
:104BC00034900008A48D00080000F07F0127F2E770
:104BD000199A511C19915278302AF9D0A2F1310159
:104BE00008293FF677AF4FF00A0EA2F1300C199A60
:104BF0000992199A511C19915278A2F13005092D88
:104C000035D9099D491B082944F61F6502DC654515
:104C1000A8BF654607B16D42002C4CD107990143EE
:104C20007FF4CBAE002B7FF4E4AE692A26D023DCE0
:104C3000492A23D04E2A7FF4DCAE9D4919A801F001
:104C400041FE00283FF4D5AE199B1B78282B2CD1B0
:104C500098491CAA19A801F049FE052825D11D9BD9
:104C6000DDF8708043F0FF4949F4E009A5E60EFB4A
:104C70000C2CACF1300CBCE76E2ADCE78E4919A88D
:104C800001F020FE00283FF4B4AE199B8B49013B94
:104C900019A8199301F016FE10B9199B0133199345
:104CA0004FF00008DFF8189287E6864803F042F9D3
:104CB0008046894681E6049BBBF1000F08BFA346EE
:104CC000EB1A102C069826460793A8BF1026FBF770
:104CD0003DFC092C8046894613DD7B4B03EBC60364
:104CE00053E91223FBF7ACFC804605988946FBF795
:104CF0002DFC02460B4640464946FBF7EBFA804640
:104D000089460F2C36DC079B002B3FF456AE22DD84
:104D1000162B09DC6C49424601EBC3014B46D1E935
:104D20000001FBF78DFCC3E7079AC4F1250393420A
:104D300020DB654DC4F10F0405EBC4014246D1E907
:104D400000014B46FBF77CFC079B1C1B05EBC405D5
:104D5000D5E90023E5E7079B16330BDB049B4046B0
:104D60005D1B594B494603EBC505D5E90023FBF70D
:104D700091FD9DE7079BA61B1E44002E74DD16F0D7
:104D80000F030AD05049424601EBC301D1E90001AB
:104D90004B46FBF755FC8046894636F00F0652D04D
:104DA000B6F59A7F27DD4FF0000BCDF810B0CDF8A7
:104DB00020B0CDF818B022234FF00008DFF80091A2
:104DC000CAF80030089B002B3FF4F7AD50461A9903
:104DD00001F0B4FE5046069901F0B0FE5046049929
:104DE00001F0ACFE5046089901F0A8FE5946504625
:104DF00001F0A4FEE1E5354B40460593002349460A
:104E00001F463611012E21DC0BB1804689462F4BFF
:104E1000A9F1547903EBC7074246D7E900014B4695
:104E2000FBF70EFC264B0A460B40294980468B4275
:104E3000B9D8A1F580118B4286BF4FF0FF38DFF85B
:104E4000949002F15479002305937FE0F20705D591
:104E5000059BD3E90023FBF7F3FB0123059A0137F8
:104E6000083276100592CDE7EDD0764216F00F02AB
:104E70000AD0154B404603EBC2034946D3E9002351
:104E8000FBF708FD804689463611DCD01F2E23DD56
:104E90004FF0000BCDF810B0CDF820B0CDF818B021
:104EA00022234FF000084FF00009CAF8003089E7CC
:104EB000798D0008B88D0008718D0008FC8E0008FF
:104EC0000000F07F2B920008F0900008C8900008C6
:104ED0000000A07CFFFFEF7F16F0100318BF6A23CD
:104EE0004046059349460023B04FF20704D5D7E961
:104EF0000023FBF7A5FB0123761007F10807F4D187
:104F00000BB180468946059BC3B1C9F30A52C2F171
:104F10006B03002B494611DD1F2B40F32781342BF7
:104F2000D8BF4FF0FF334FF00008CFBF4FF05C7990
:104F3000C2F14B0203FA02F202EA01090022002345
:104F400040464946FBF7E4FD0028A1D1069B5A469E
:104F5000009350462346089901F058FE0890002817
:104F60003FF421AF049B4FF0000B5D1B079BCDF876
:104F700010B0002BB4BF2B4600230E93079B23EAEF
:104F8000E3731493089B5046596801F097FD06900F
:104F900000283FF410AF089B0C301A6903F10C0194
:104FA0000232920001F07CFD1CAB01931BAB00931D
:104FB00042464B465046CDE90C8902F069F91A90F9
:104FC00000283FF4F8AE0121504601F0B7FE034639
:104FD000049000283FF4EFAE1B9D1C9A002DABBF40
:104FE0000E9B149BEE185C1B059BA8BF149CA5EBA5
:104FF000030515446E4B05F1FF35B8BF0E9E9D426B
:10500000C2F1360280F2C4805B1B1F2B4FF00107F8
:10501000A2EB030200F3B180002507FA03F30F931C
:10502000B718059BBE4214441C443346A8BF3B46F8
:10503000A342A8BF2346002BC2BFFF1AE41AF61AE8
:105040000E9B002B17DD1A465046049901F034FFE1
:10505000049000283FF4AFAE01461A9A504601F082
:1050600083FE099000283FF4A6AE50461A9901F03D
:1050700065FD099B1A93002F00F38E80079B002B80
:1050800008DD5046149A069901F016FF0690002894
:105090003FF491AE002C08DD22465046069901F0FF
:1050A00065FF069000283FF486AE002E08DD3246EC
:1050B0005046049901F05AFF049000283FF47BAE5B
:1050C0005046069A1A9901F0DDFF834600283FF406
:1050D00072AE0024C3680499C4600B9301F0B6FF5C
:1050E000A0426BDA0B9B53EA080340F09180C9F3AE
:1050F0001303002B40F08C8029F000431B0D1B058F
:10510000B3F1D66F40F28480DBF814301BB9DBF8C2
:105110001030012B7CDD59460122504601F026FF5C
:105120000499834601F092FF002871DD05994B46F2
:10513000204A002900F08C8002EA0901B1F1D66F03
:1051400000F38680B1F15C7F7FF7AAAE4046494606
:10515000194B0022FBF774FA0B46034308BF2223C6
:105160008046894608BFCAF800302FE64FF0FF326C
:1051700002FA03F303EA0808E0E6C5F17F4505F506
:105180007F0505F57B45E23507FA05F50F9747E7FB
:10519000012300250F9343E73A4650461A9901F040
:1051A000E5FE1A9000287FF469AF04E6D08D000870
:1051B00002FCFFFF0000F07F00005039CDF8249082
:1051C00065D10B9AC9F313035AB3994A93422BD171
:1051D000059B414603B34A46964B1340B3F1D46F47
:1051E0004FF0FF321BD81B0DC3F16B0302FA03F320
:1051F000994219D1904B099A9A4202D101313FF458
:10520000DAAD4FF000088B4B099A1A4002F580196D
:10521000059B002B9AD1D9E54FF0FF33E8E7134601
:10522000E6E753EA080381D0E5B1099B1D42EFD0C0
:105230000B9B40464946059AC3B1FFF75CFB02460B
:105240000B46DDE90C01FBF745F880468946DFE7B0
:105250001340A3F580136FEA13594FF0FF386FEA3C
:105260000959D5E70F9B13EA080FE0E7FFF743FB67
:1052700002460B46DDE90C01FBF72AF80022002369
:1052800080468946FBF744FC0028C1D008E6584612
:10529000049902F059F800224FF0804306460F4669
:1052A000FBF74AFC002870D00B9B002B42D0002655
:1052B000624F624D099B23F000431B0D1B050F93AA
:1052C0000F9A5F4B9A4240F0C380099B4046A3F17E
:1052D0005479494601F062FF02460B463046394692
:1052E000FBF7AEF942464B46FAF7F4FF0B4651493D
:1052F000544A1940914280465DD90D9A4E4B9A42CC
:1053000003D10C9B01333FF456AD4FF0FF38DFF86B
:10531000289150461A9901F011FC5046069901F067
:105320000DFC5046049901F009FC5946504601F025
:1053300005FC27E6B8F1000F19D1099BC3F313034D
:10534000E3B90022304639463C4BFBF7EBFBC8B9CA
:105350000022304639463C4BFBF772F904460D46B5
:1053600005F1004316941793DDE91667A2E7B8F13B
:10537000010F03D1099B002B3FF492AD00260024BE
:10538000324F96E70B9C304DEAE72F4B0022304618
:105390003946FBF755F90B9B04460D4633B901F12D
:1053A000004310901193DDE9106783E702460B4636
:1053B000CDE91023F7E703F15479059B002BA8D121
:1053C00029F000430F9A1B0D1B059A42A1D12046DC
:1053D0002946FBF747FEFBF705F902460B46204638
:1053E0002946FAF775FF0B9AC9F3130343EA08033A
:1053F000134304460D4666D009A3D3E90023FBF707
:1054000091FB00287FF4E2AC07A3D3E900232046F8
:105410002946FBF7A5FB00283FF47BAFD6E400BF8D
:105420009535A094FFFFDF3F35E5AF350000E03F45
:10543000FFFF0F000000F07FFFFFEF7F0000F03F55
:105440000000E07FFFFF9F7C0000E03F0000F0BF16
:10545000059B13B30F9BB3F1D46F1ED826A3D3E9DA
:10546000002320462946FBF767FB90B129462046DA
:10547000FBF7BEFB012838BF0120FBF767F80B9B49
:1054800004460D46D3B901F1004312901393DDE9B0
:1054900012670F9A07F1D6639F1ADDE90C0101F03C
:1054A0007DFE02460B4630463946FBF7C9F8DDE97A
:1054B0000C23FAF70FFF804689467EE702460B462B
:1054C000CDE91223E3E70EA3D3E90023FBF72AFB80
:1054D000A1E700230A93199B159A1360FFF771BA8D
:1054E000652A3FF463AB452A3FF460AB0123FFF725
:1054F00095BB00BFAFF300800000C0FFFFFFDF419E
:105500009535A094FFFFCF3F014BFFF715BA00BFC1
:1055100074000020012B2DE9F047804601D0242B98
:1055200006D900F013FF162303600020BDE8F087C2
:105530000D46354F284615F8014BE65D16F0080676
:10554000F8D12D2C2FD101262C78851C002B57D07B
:10555000102B09D1302C07D1287800F0DF00582813
:1055600049D110236C780235002706F1004E0EF168
:10557000FF3EBEFBF3F9384603FB19EAA4F1300CF9
:10558000BCF1090F14D86446A34222DD002F1DDBB5
:1055900081451BD301D1A24518DB012700FB034045
:1055A00015F8014BEAE72B2C04BF2C78851CCDE7BE
:1055B000A4F1410CBCF1190F01D8373CE4E7A4F188
:1055C000610CBCF1190F04D8573CDDE74FF0FF37F1
:1055D000E6E7002F07DA22237046C8F80030002AD9
:1055E000A4D0691E05E006B14042002A9ED0002FDB
:1055F000F7D111609AE73024002BB5D10823B3E727
:10560000302CA9D00A23AFE7F98D0008FFF782BF3D
:1056100038B50446084611460022054D2A601A4650
:1056200003F062FB431C02D12B6803B1236038BD39
:105630009404002038B50023054D044608462B602D
:1056400003F00CFB431C02D12B6803B1236038BD6F
:10565000940400202DE9F74F03690C690746A34223
:10566000C0F28280013C00F1140501F1140805EB41
:105670008403019358F8243055F8242001339A42CA
:10568000B2FBF3F64FEA840B08EB840931D34FF0F9
:10569000000E4046AC46F24650F8042B93B206FB8F
:1056A00003E3120C4FEA134E9BB206FB02E2AAEB95
:1056B0000303DCF800A04FEA124E1FFA8AFA5344A3
:1056C000DCF800A092B2C2EB1A4202EB23429BB27A
:1056D00043EA024381454FEA224A4CF8043BDBD2BD
:1056E00055F80B302BB9019B043B9D421A462FD332
:1056F0003C61384601F0AAFC002825DB28464FF023
:10570000000C013658F8041BD0F800E08BB2ACEB6B
:1057100003031FFA8EF213440A0CC2EB1E4202EB83
:1057200023429BB243EA0243C1454FEA224C40F870
:10573000043BE7D255F8242005EB840322B9043B4F
:105740009D421A460AD33C61304603B0BDE8F08F53
:105750001268043B002ACBD1013CC6E71268043B27
:10576000002AF0D1013CEBE70020EEE7000000004A
:105770002DE9F04F16461F46446A99B00546CDE91B
:105780000467DDF8948074B9102001F061F90246D5
:10579000686220B9EA21A84BA84802F0E7FCC0E9FA
:1057A00001440460C4606B6A196851B15A680123EE
:1057B00093404A608B60284601F0C0F900226B6A72
:1057C0001A603B1EAFBF0023012223F00043059364
:1057D000A8BFC8F80030DDF81490994BB8BFC8F8DE
:1057E000002033EA090319D142F20F73249A13609F
:1057F000C9F31303334300F07F85269B53B9914BC4
:1058000022E0914B03930833269A1360039819B052
:10581000BDE8F08F8B4B03930333F5E7DDE90434E8
:10582000CDE90C34DDE90C0100220023FBF770F90F
:10583000804658B10123249A1360269B002B00F068
:10584000588582481860431E0393DFE716AB019327
:1058500017AB00932846DDE90C2301F019FDC9F3CD
:105860000A548346002C7FD0DDE90C010D9BA4F285
:10587000FF34C3F3130343F07F5141F44011CDF8DB
:105880004C800022724BFAF723FD65A3D3E9002375
:10589000FAF7D6FE64A3D3E90023FAF71BFD064608
:1058A00020460F46FAF762FE61A3D3E90023FAF718
:1058B000C7FE02460B4630463946FAF70BFD064650
:1058C0000F46FBF76DF90022824600233046394629
:1058D000FBF728F948B15046FAF748FE32463B46F6
:1058E000FBF716F908B90AF1FF3ABAF1160F58D8C2
:1058F000DDE90C01574B03EBCA03D3E90023FBF7A7
:1059000011F900284FD000230AF1FF3A0F93169B9C
:105910001C1B631E099349BFC4F1010300230693B6
:10592000002354BF06930993BAF1000F3DDB099B96
:10593000CDF838A05344099300230A93229B092BE6
:1059400000F28C80052BC4BF043B2293229BC8BF6E
:105950000024A3F10203D8BF0124032B00F28A80A4
:10596000DFE803F02D4F4D5BDDE916431C4404F2E4
:105970003243202BC3BFC3F1400304F2124009FAA3
:1059800003F3C3F12003C6BF26FA00F0184306FA5A
:1059900003F0FAF7DBFD0123A1F1F871013C139349
:1059A0006FE70123B2E70F90B1E7069BA3EB0A0371
:1059B0000693CAF100030A9300230E93BEE7002367
:1059C0000B93239B002B58DC4FF001094B46CDF87D
:1059D0002090CDF88C900022686A4260042202F187
:1059E00014069E4241684ED9284601F067F803909C
:1059F00000284CD102464FF4D571174BCCE6012359
:105A0000DEE700230B93239B0AEB030909F1010353
:105A1000012B0893B8BF0123DDE70123F2E700BFA4
:105A200061436F63A787D23FB3C8608B288AC63FA4
:105A3000FB799F501344D33F068F00081D8F000849
:105A40000000F07F028F0008F98E0008DA9100084C
:105A50000000F83FF09000089B8F0008012400230D
:105A60000B9422934FF0FF3900221223CDF820909F
:105A70002392B0E701230B93F4E7DDF88C904B46BB
:105A8000CDF82090A7E7013141605200A7E76B6A8B
:105A9000039A1A60089B0E2B00F2A880002C00F0DD
:105AA000A580BAF1000F34DD9A4A0AF00F0302EB29
:105AB000C3031AF4807FD3E90034CDE910344FEAF0
:105AC0002A1416D0DDE90C01934B0327D3E90823F0
:105AD000FAF7E0FECDE9040104F00F048E4E54B94C
